:020000040800F2
:1000000010070020610200085D1600086D15000849
:10001000591600085904000885180008000000005F
:10002000000000000000000000000000651600084D
:100030005D04000800000000611600086916000851
:100040007B0200087B0200087B0200087B0200089C
:100050007B0200087B0200087B0200087B0200088C
:100060007B0200087B0200087B0200087B0200087C
:100070007B0200087B0200087B0200087B0200086C
:100080007B0200087B0200087B02000800000000E1
:100090000000000000000000000000007B020008DB
:1000A0007B0200087B0200087B0200087B0200083C
:1000B0007B0200087B0200087B0200087B0200082C
:1000C0007B0200087B0200087B0200087B0200081C
:1000D0007B0200087B0200087B0200080000000091
:1000E0007B0200087B0200087B0200080000000081
:1000F0000000000000000000000000007B0200087B
:10010000000000007B0200087B0200087B02000860
:1001100000000000000000000000000000000000DF
:100120007B0200087B0200087B0200087B020008BB
:100130007B0200080000000000000000000000003A
:100140000000000000000000000000007B0200082A
:100150007B0200087B0200087B0200087B0200088B
:100160007B0200087B020008000000000000000085
:10017000000000000000000000000000000000007F
:10018000000000007B0200080000000000000000EA
:100190007B02000800F002F800F052F814A696E87E
:1001A000000CB244B344DA4501D100F049F8BAE892
:1001B0000F000FA696E83000A5EB040504EB060738
:1001C000AAEB0704A7F101074FEA15154FEA34140B
:1001D000A4F10104AC4201D300F032F813F0010F96
:1001E00018BFFB1A43F0010300F001F8DBE71847E2
:1001F0005419000074190000103A24BF78C878C15F
:10020000FAD8520724BF30C830C144BF04680C601C
:1002100070470000704700000023002400250026DE
:10022000103A28BF78C1FBD8520728BF30C148BF59
:100230000B6070471FB501F0F8FB1FBD10B510BD76
:1002400000F0D0F81146FFF7F5FF01F01FFB00F0BA
:10025000EEF803B4FFF7F2FF03BC00F0F5F800007E
:100260000948804709480047FEE7FEE7FEE7FEE74A
:10027000FEE7FEE7FEE7FEE7FEE7FEE70448054986
:10028000054A064B70470000111700089501000849
:100290001001002010070020100300201003002090
:1002A00053EA020C00F069802DE9F04B4FF0000694
:1002B000002B1FBFB3FA83F503FA05F424FA05F601
:1002C0005E4012BF1643B2FA82F502FA05F4C5F198
:1002D00020051EBF22FA05FC44EA0C04203556EA2C
:1002E000044C4FEA144418BF641C4FF000084FF050
:1002F0000009904271EB030C39D3002919BFB1FA00
:1003000081F701FA07F6B0FA80F700FA07F6C7F1AD
:1003100020071EBF20FA07FC46EA0C062037B6FB72
:10032000F4FCA7EB0507103F07F01F0BCBF12006ED
:100330002CFA06F60CFA0BFB44BFB3460026202F1E
:10034000A4BF5E464FF0000B5BEA060C08BF4FF0FF
:10035000010B19EB0B0948EB0608ABFB027C06FB13
:1003600002CC0BFB03CCC01B71EB0C01C1E70B46AD
:10037000024641464846BDE8F08B13B5084318BF16
:100380004FF0FF300146AFF30080BDE81C407047DE
:100390004FF0000200B5134694469646203922BF1E
:1003A000A0E80C50A0E80C50B1F12001BFF4F7AF69
:1003B000090728BFA0E80C5048BF0CC05DF804EB4B
:1003C000890028BF40F8042B08BF704748BF20F8B9
:1003D000022B11F0804F18BF00F8012B70477047B7
:1003E00070477047754600F02BF8AE460500694629
:1003F000534620F00700854618B020B5FFF73EFFB2
:10040000BDE820404FF000064FF000074FF0000815
:100410004FF0000BAC46ACE8C009ACE8C009ACE852
:10042000C009ACE8C00921F007018D46704710B53E
:100430000446AFF300802046BDE81040FFF709BF37
:10044000004870471800002001491820ABBEFEE7A5
:100450002600020070470000FEE700007047000021
:1004600072B600BFFEE70000B0B5044600F0BCF96C
:10047000054640F20000C2F200000078611C18BF7F
:10048000044400BF00F0B0F9401BA042FAD3B0BD55
:100490002DE9F04F87B0059000F13E4000F1FF706C
:1004A0004FEAB027052F0D46049180F03D81286862
:1004B0000021B1EB104F40F0198180B2002800F00C
:1004C00015816868B0F5881F80F21D81122800F23E
:1004D0004181012101FA00F00F21C0F2060108421A
:1004E00000F03881059905F11000039001F120001A
:1004F000019041F20000C4F202000722814208BFCD
:1005000004224FF0030C4FF000084FF0000A4FF0A8
:10051000000B042F38BF3A46029209E00BF1010BA1
:100520000AF1020ABBF1100F08F1040800F0DA80AA
:100530002868012101FA0BF910EA0907EED0686872
:1005400000F003014A1E012A06D9032929D100F02F
:100550000301022941D06CE0E86804280AD341F67F
:10056000CD20C0F60000C02101F08EF9049D4FF0AF
:10057000030CE868059B0CFA0AF2996800FA0AF085
:100580009143084398605968686821EA0901C0F3FB
:10059000001202FA0BF21143596000F00301032923
:1005A000D5D0A86803280AD341F6CD20C0F60000B4
:1005B000D12101F069F9049D4FF0030CA868059B57
:1005C0000CFA0AF2D96800FA0AF091430843D8609D
:1005D000686800F0030102292BD1039800681028F5
:1005E0000AD281B249F2FF7222FA01F1C90703D09F
:1005F0005DA101EB80000AE041F6CD20C0F60000CD
:10060000DE2101F041F9DDE903054FF0030C6FF045
:100610000301019C01EA5B010068625808F01C03B9
:100620000F269E40B243984010436050686800F027
:100630000301059E0CFA0AF3326801FA0AF19A43A3
:10064000114310F4403F31603FF468AF002043F69F
:1006500044010690C4F20201086843F6004440F4E5
:10066000804008600868C4F2010400F480400690ED
:1006700006982BF003004FF608462044CFF6FF768D
:10068000815908F00C020F2393409943029B03FA0F
:1006900002F211438151A068696840EA070243F6FB
:1006A0000C46CB0258BF20EA0702A260C4F2010642
:1006B00030688B0240EA070258BF20EA0702326026
:1006C00060688B0340EA070258BF20EA07026260B5
:1006D0002068C90340EA070258BF20EA07022260E7
:1006E0001CE700BF07B0BDE8F08F00BF41F6CD208A
:1006F000C0F60000AD2101F0C7F8049D6868B0F5B0
:10070000881FFFF6E3AEB0F5081F19DAB0F5881FB1
:100710003FF4E8AEB0F5901F3FF4E4AEB0F5041F2F
:100720003FF4E0AE16E000BF072F3FF4C0AE41F645
:10073000CD20C0F60000AC2101F0A6F8049DB6E67D
:100740003FF4D0AEB0F5441F3FF4CCAEB0F5481F37
:100750003FF4C8AE41F6CD20C0F60000AE2101F056
:1007600093F8049DBEE600BF0000000001000000F9
:10077000020000000300000004000000050000006B
:10078000060000000700000008000000090000004B
:100790000A000000000000000C0000000000000043
:1007A000000000000F00000070B516460C4605461C
:1007B00031B1022E0ED2002E08BF2404AC6170BDF0
:1007C00041F6CD20C0F6000040F29D1101F05CF82A
:1007D000022EF0D341F6CD20C0F600004FF4CF71C9
:1007E00001F052F8AC6170BD40F20C10C2F2000092
:1007F0000068704740F2000040F20C11C2F20000A5
:10080000C2F2000100780A681044086070470000D6
:1008100080B543F60040C4F20200016841F4007163
:100820000160016841F480610160016841F48071F8
:100830000160032000F088F8002000F005F800F0C7
:1008400027F8002080BD000070B540F20006C2F21B
:10085000000640F208013278C2F200014FF47A73C8
:100860000968B3FBF2F20446B1FBF2F1084600F06E
:10087000A1FC0F2C4FF0010508D838B94FF0FF301C
:1008800021460022002500F01FF87460284670BD44
:1008900082B0002043F640010190C4F202014A6890
:1008A00042F480424A604A6802F480420192019A0E
:1008B0000090086840F080500860086800F08050A0
:1008C0000090009802B0704770B515460E46102A89
:1008D000044606D341F60630C0F60000A82100F019
:1008E000D3FF102E06D341F60630C0F60000A92132
:1008F00000F0CAFF4EF60C50CEF2000001684FF037
:10090000FF33C1F3022181F00702042A28BF042229
:10091000033903FA02F238BF002126EA02028A40B4
:1009200003FA01F125EA0101114304F00F02043A30
:10093000104404F16042090102F56442002C48BFF2
:1009400000F10C02117070BD10B504460338052883
:1009500006D341F60630C0F60000902100F094FF67
:100960004EF60C50CEF2000001684FF6FF02114027
:1009700064F30A2141F0806141F0FD71016010BD16
:10098000002804BF012070472DE9F04104460068AB
:100990000D4601380F2807D341F69520C0F6000018
:1009A00040F25A2100F070FF082D07D341F6952040
:1009B000C0F6000040F25B2100F066FF43F6080835
:1009C000C4F20208D8F8F80300F00700854208D9FD
:1009D00088F8F853D8F8F80300F00700A84240F070
:1009E000B180206881071FD5410705D5D8F80010D0
:1009F00041F4E051C8F80010000705D5D8F8000010
:100A000040F46040C8F80000A0686FF0070101EBF7
:100A10003011082980F0B880D8F8001021F0F001DA
:100A20000843C8F800002068C00765D1D8F8F8036B
:100A300000F00700854207D288F8F853D8F8F80389
:100A400000F00700A8427DD1206841071AD5E06870
:100A50006FF0030101EBB02104290BD34FEAB02161
:100A600041B141F69520C0F6000040F2C32100F0EC
:100A70000BFFE068D8F8001021F4E0510843C8F8F3
:100A80000000206800071AD520696FF0030101EB10
:100A9000B02104290BD34FEAB02141B141F6952092
:100AA000C0F6000040F2CA2100F0EEFE2069D8F83E
:100AB000001021F4604141EAC000C8F8000000F0D5
:100AC0009BF8D8F8001041F64422C1F30311C0F698
:100AD0000002515C40F2080220FA01F140F20400E9
:100AE000C2F200000068C2F200021160FFF7ACFE23
:100AF0000020BDE8F08100BF6068042808D341F6FB
:100B00009520C0F6000040F2852100F0BDFE60682F
:100B1000811E022908D258F8081C89015CBF0120F7
:100B2000BDE8F08112E000BF012807D158F8081C89
:100B300089035CBF0120BDE8F08107E058F8081C7C
:100B4000890703D40120BDE8F08100BFD8F8001068
:100B500021F003010843C8F80000FFF745FE0646F0
:100B600041F28837D8F80000616800F00C00B0EB63
:100B7000810F3FF45BAFFFF737FE801BB842F1D91E
:100B80000320BDE8F08100BF4FEA301100293FF497
:100B900043AF41F69520C0F6000040F27E2100F000
:100BA00073FEA06838E7000040F2080043F6080131
:100BB000C2F20000C4F202010068096841F6542242
:100BC000C1F38221C0F60002515CC84070470000AA
:100BD00040F2080043F60801C2F20000C4F202012C
:100BE0000068096841F65422C1F34231C0F60002A0
:100BF000515CC8407047000010B543F60404C4F2CD
:100C000002046168C1F3810142F20040C0F2F400C5
:100C1000DFE801F002040A0210BD00BF41F200202B
:100C2000C0F27A0010BD00BF216801F03F022168C8
:100C300023684902C3F3881106D4A1FB00010023F5
:100C4000FFF72EFB07E000BF41F20020C0F27A0060
:100C50004843B0FBF2F021680222C1F3014102EBEC
:100C60004101B0FBF1F010BD002804BF0120704726
:100C70002DE9F04182B004460068102807D341F600
:100C80009520C0F60000E62100F0FEFD206843F646
:100C90000006C007C4F2020612D06068002818BF20
:100CA000B0F5803F40F00881B06800F00C000428E7
:100CB00014D13068800303D56068002800F0BA8141
:100CC0002078800753D5E068022821D220692028A7
:100CD00029D2B06810F00C0F31D13AE0B06800F0C2
:100CE0000C00082802D170684002E2D461683068C4
:100CF000B1F5803F07D0B1F5A02F40F0598140F405
:100D000080203060306840F48030306059E100BFAE
:100D100041F69520C0F6000040F21D1100F0B4FD30
:100D200020692028D5D341F69520C0F600004FF465
:100D30008F7100F0A9FDB06810F00C0F09D0B068F9
:100D400000F00C00082840F08D807068400200F12F
:100D500089803068800703D5E068012840F06A8107
:100D60003068216920F0F80040EAC1003060207846
:100D700000071FD42078400740D4A069032808D377
:100D800041F69520C0F6000040F2CD1100F07CFD48
:100D9000A069002800F04981B16801F00C01082920
:100DA00040F0AE80012840F01D81012002B0BDE876
:100DB000F08100BF6069022808D341F69520C0F693
:100DC00000004FF4AF7100F05FFD6069002800F093
:100DD0007F806020C4F247200121C0F8201EFFF769
:100DE00003FD0546706F8007C4D4FFF7FDFC401B70
:100DF0000228F7D9032002B0BDE8F081A0680528D9
:100E000000F2C880012101FA00F010F0230F00F079
:100E1000C180306C5FEAC0080AD400200190306CB9
:100E200040F080503064306C00F0805001900198A8
:100E300047F20007C4F200073868C0052ED43868AE
:100E400040F480703860FFF7CFFC05463868C00575
:100E500024D4FFF7C9FC401B0228F7D9032002B0B5
:100E6000BDE8F081E068002840F26000C4F247204D
:100E700060D0012140F8601CFFF7B6FC054600BFBA
:100E8000306880073FF56CAFFFF7AEFC401B0228CF
:100E9000F6D9032002B0BDE8F08100BFA168306F31
:100EA000012905D0052959D140F004003067306F81
:100EB00040F0010030675AE0B0F5A02F3FF4F4AEE7
:100EC00041F69520C0F60000EB2100F0DDFCEBE6DA
:100ED0006020C4F247200021C0F8201EFFF784FCE8
:100EE000054600BF706F80077FF544AFFFF77CFCBD
:100EF000401B0228F6D9032002B0BDE8F08100BFF4
:100F0000022840F09B80E06940F48000B0F5800F3B
:100F100040F0D480206A02383E2880F0DC80606A8D
:100F20003238B0F5BF7F00F2E480A06A082840F2B2
:100F3000EB8031E1002140F8601CFFF755FC0546CD
:100F4000306880077FF513AFFFF74EFC401B022887
:100F50004FF00300F4D902B0BDE8F08120F00100A9
:100F60003067306F002920F0040030677AD0FFF737
:100F70003BFC054641F28837306F800700F18480E2
:100F8000FFF732FC401BB842F6D9032002B0BDE89F
:100F9000F08100BF41F69520C0F600004FF4C57106
:100FA00000F072FC306C5FEAC0087FF536AF3FE7B7
:100FB00020F4803030603068002920F480203060D8
:100FC0006CD0FFF711FC0546306880033FF578AE22
:100FD000FFF70AFC401B6428F6D9032002B0BDE8E5
:100FE000F08100BF7068E16900F480028A4221D17B
:100FF000216A00F03F028A421CD147F6C071626A42
:101000000140B1EB821F15D1A16A4FF6FF73C903EE
:10101000994300F44032A1F580318A420AD1E16A55
:1010200000F07060B0EB016F04D1002002B0BDE8A9
:10103000F08100BF012002B0BDE8F0816020C4F261
:10104000472000210160FFF7CFFB04463068800194
:10105000EBD5FFF7C9FB001B02284FF00300F5D9C1
:1010600079E700BFFFF7C0FB054641F2883700BFB4
:10107000306F800708D5FFF7B7FB401BB8424FF031
:101080000300F5D967E700BFB8F1000F3FF575AE73
:10109000306C20F0805030646FE600BFFFF7A4FB97
:1010A000054600BF306880037FF50AAEFFF79CFB62
:1010B000401B64284FF00300F4D94CE741F695201B
:1010C000C0F600004FF4EB7100F0DEFB206A02383E
:1010D0003E28FFF424AF41F69520C0F6000040F210
:1010E000D71100F0D1FB606A3238B0F5BF7F7FF6D0
:1010F0001CAF41F69520C0F600004FF4EC7100F0F3
:10110000C3FBA06A082847D8012101FA00F010F4B7
:10111000AA7F41D0E06A02380E2807D341F6952015
:10112000C0F600004FF4ED7100F0AEFB6027C4F292
:10113000472700203860FFF757FB054630688001DD
:1011400008D5FFF751FB401B02284FF00300F5D9EB
:1011500001E700BF04F11C052FCD084340EA8210CF
:10116000D9034FF6FF729143A1F5803140EA056043
:101170000843706001203860FFF736FB044600BF6B
:10118000306880013FF551AFFFF72EFB001B0228AE
:101190004FF00300F4D9DEE641F69520C0F60000DA
:1011A00040F2D91100F070FBE06A02380E28B5D287
:1011B000BCE70000411E0020B0EB116F1CBF0120F6
:1011C00070474EF21002CEF2000251604EF62351EB
:1011D000CEF20001F0230B70072190601160704780
:1011E000002804BF0120704710B5044680692168BB
:1011F00010B344F20042C4F20002914214D041F212
:101200000002C4F2010291420ED041F20042C4F247
:101210000102914208D041F65C20C0F6000040F285
:10122000731100F031FBA0694FEA302004281DD370
:101230004FF4BA7114E000BF44F20040C4F2000061
:10124000814213D041F20000C4F2010081420DD06E
:1012500041F20040C4F20100814207D04FF4BC715A
:1012600041F65C20C0F6000000F00EFBA06840F4E0
:101270008050B0F5805F29D1E06940F40040B0F5BE
:10128000004F31D194F84100D0B3242084F84100BC
:101290002068C16821F40051C160204600F042FA84
:1012A0002068016921F490410161416921F02A011E
:1012B0004161C16841F40051C16000202021606497
:1012C00084F8411084F84210606310BD41F65C2040
:1012D000C0F600004FF4BD7100F0D6FAE06940F4AA
:1012E0000040B0F5004FCDD041F65C20C0F60000C4
:1012F00040F27B1100F0C8FA94F841000028C4D1F4
:10130000002084F84000204600F002F8BDE700000D
:1013100080B586B044F200410068C4F200010022AA
:1013200088420592CDE903220292019202D006B0D2
:1013300080BD00BF43F630000092C4F20200036992
:1013400043F400330361036903F400330093009B0B
:101350000092036843F001030360006800F001009D
:10136000009000980C2001900220CDE90202072095
:10137000059001F5DE3001A90492FFF789F806B067
:1013800080BD000090F84230202B07D100294FF09B
:10139000010318BF002A05D11846704702231846DA
:1013A000704700BF00230363816222218285C285CA
:1013B000436480F842100169006819B1C16841F4C2
:1013C0008071C160416941F001014161C16841F032
:1013D0002001C160184670472DE9F04381B00446F2
:1013E00090F84100202809D100294FF0010018BFD2
:1013F000002A07D101B0BDE8F08300BF022001B090
:10140000BDE8F0830020606421201D460E4684F86C
:1014100041001746FFF7E8F9A784E784A1688146F1
:10142000B1F5805F02D1206900285DD037460020E9
:10143000E28C2168002A5DD06A1C24D0002D4AD09D
:10144000804600BF0868000608D4FFF7CDF9A0EB7E
:101450000900A8427AD82168C868F3E717B117F8DD
:10146000010B04E038F8020B00276FF35F2048609F
:10147000E08C0138E084E08C0028E3D13AE000BF42
:101480000A68120609D40A68120606D40A68120607
:101490005CBF0A685FEA0262F2D51FB117F8012B40
:1014A00005E000BF30F8022B00276FF35F224A608F
:1014B000E28C013AE284E28C002AE4D11AE000BF17
:1014C00030F8022B00276FF35F224A60E28C013A6A
:1014D000E284E28C72B10A68120635D5002FEFD093
:1014E00017F8012BF1E700BF00273046E28C216896
:1014F000002AA1D1086840061ED42DB3681C14D15F
:10150000086840062AD40868400627D408684006C0
:1015100024D4086840064FF00000F1D50DE000BF6C
:101520002068C1680068400618D4FFF75DF9A0EB99
:101530000900A842F4D909E00020202184F84110D4
:1015400001B0BDE8F08300BFFFF74EF90320202172
:1015500084F8411001B0BDE8F08300BF00202021D5
:1015600084F8411001B0BDE8F0830000FEE7000000
:10157000F0B587B0002643F630000696CDE9046644
:10158000CDE902660196C4F202000168002441F030
:10159000040101600168C4F2020401F00401019138
:1015A000019901960168002241F080010160016803
:1015B000202701F08001019101990196016841F015
:1015C00001010160016801F0010101910199019699
:1015D000016841F0020101600068202100F0020072
:1015E000019001982046FFF7DFF84FF40050029079
:1015F0004FF4041002ADCDE9030604F5006029465E
:10160000FEF746FF0120CDE9030620462946029752
:101610000596FEF73DFF07B0F0BD000080B540F233
:10162000C40044F20041C2F20000C4F200010023F1
:101630004FF00C0C4FF4E13280E80E00C0E90333A8
:10164000C0E905C3C361FFF7CBFD002808BF80BD1B
:10165000BDE88040FEF704BFFEE70000FEE70000A3
:101660007047000070470000FFF7C4B870B592B033
:1016700006AC20463021FEF78BFE002543F64000E5
:101680000595CDE90355CDE901550095C4F2020059
:101690000168022641F080510160006800F080502E
:1016A0000090009847F200000095C4F20000016825
:1016B00066F38F310160006800F4404000900098AC
:1016C0000120099010200A900E904FF4A8700F90FE
:1016D000042010900720119020460696CDE90C6555
:1016E000FFF7C2FA10B172B6FEE700BF0F20CDE9D6
:1016F00001064FF48050CDE9040501A802210395AD
:10170000FFF73EF910B172B6FEE700BF12B070BD30
:101710004EF68850CEF20000016841F4700101607D
:1017200070470000B0B50446406843F2A171C0F2B2
:10173000A001884207D341F65C20C0F6000040F6C5
:10174000756100F0A1F8E06840F40050B0F5005F6A
:1017500007D041F65C20C0F6000040F6766100F04C
:1017600093F82069002818BFB0F5806F32D1606906
:1017700018B14FF6F371084007D041F65C20C0F66F
:10178000000040F6786100F07FF8206804F108035B
:101790000ECB0569194325F440552A43026162695D
:1017A000E3691143C268194349F20C639A43114338
:1017B000C1604169A26921F4407141F200431143C3
:1017C00040F48062C4F201039A4241610ED1FFF7F6
:1017D000FFF90DE0B0F5C06FC9D041F65C20C0F64E
:1017E000000040F6776100F04FF8C0E7FFF7DCF942
:1017F000E1694FF69C7563681922C0F6FF75B1F573
:10180000004FA0FB02011FD15A00DB0FFEF748FD7D
:1018100048F21F51C5F2EB11A0FB01235A0905F153
:10182000805302FB0300322303EBC000A0FB010145
:101830004FF4F87000EA111000EB0210C1F34211EE
:10184000084421688860B0BD9A009B0FFEF728FD10
:1018500048F21F51C5F2EB11A0FB01235A0902FB0C
:101860000500322303EB0010A0FB0101F02000EA89
:10187000511000EB0210C1F3431108442168886045
:10188000B0BD0000FEE700007047000092B0FEF718
:10189000BFFFFFF7EBFEFFF76BFEFFF7BFFE40F267
:1018A000780640F2C409C2F20006C2F20009B11C77
:1018B00048460122FFF766FD0DF1080840F2AA1A1A
:1018C00040F20C0508F10407C0F2205AC2F20005EC
:1018D0004FF0550B002407E0D6F81100D6F80E1093
:1018E000C6F80600C6F803102868297938603971EF
:1018F0009DF80C009DF80D109DF80E209DF80F30FE
:10190000484050409DF810105840484080F08E00EC
:101910008DF81100484641460B226423CDF808A0FB
:101920008DF812B0FFF758FD4FF4FA70FEF79CFDEA
:1019300070780028D8D0F07A74700128D4D196F845
:101940000DC0317B0CF10400321892F80AE0C0B2ED
:1019500040B10191494604280CF0030304D200244D
:10196000002018E0002431E0C51A0020002400BF48
:10197000321892F80A9092F80BA092F80CB084EA10
:101980000904527B84EA0A0484EA0B040430854289
:1019900084EA0204ECD1894640F2AA1A40F20C050E
:1019A0000199C0F2205AC2F200054FF0550B6BB1FD
:1019B0003044827A012B84EA020407D0C27A022BD7
:1019C00084EA02041CBF007B444000BFA6454FF0E0
:1019D00000047FF489AF102908BFBCF1070F3FF462
:1019E0007BAF20297FF480AF28682979386039716E
:1019F0009DF80C009DF80D109DF80E209DF80F30FD
:101A0000484050409DF810105840484080F08E00EB
:101A10008DF81100484641460B226423CDF808A0FA
:101A20008DF812B0FFF7D8FC5EE7F1EE100A4FF622
:101A3000FF71C0F2C03120EA010040F04070E1EED9
:101A4000100A7047000000000000000001020304BB
:101A50000607080900000000010203042E2E2F448F
:101A60007269766572732F53544D333246347878E9
:101A70005F48414C5F4472697665722F5372632FE1
:101A800073746D3332663478785F68616C5F75614A
:101A900072742E63002E2E2F447269766572732F36
:101AA00053544D3332463478785F48414C5F44722A
:101AB000697665722F5372632F73746D3332663497
:101AC00078785F68616C5F7263632E63002E2E2FDF
:101AD000447269766572732F53544D3332463478AD
:101AE000785F48414C5F4472697665722F53726328
:101AF0002F73746D3332663478785F68616C5F671A
:101B000070696F2E63002E2E2F4472697665727392
:101B10002F53544D3332463478785F48414C5F44FC
:101B200072697665722F5372632F73746D333266E8
:101B30003478785F68616C5F636F727465782E6368
:101B400000000000681B00080000002018000000D2
:101B5000F8010008801B000818000020F8060000AB
:101B60001802000800000000010000001000000042
:101B70000024F4000A141E283200000000000000B7
:040000050800019559
:00000001FF
