:020000040800F2
:10000000F007002061020008B12300082D2200083B
:1000100011230008590400084D2B000800000000BF
:10002000000000000000000000000000E1250008C2
:100030005D04000800000000B523000891270008B7
:100040007B0200087B0200087B0200087B0200089C
:100050007B0200087B0200087B0200087B0200088C
:100060007B0200087B0200087B0200087B0200087C
:100070007B0200087B0200087B0200087B0200086C
:100080007B0200087B0200087B02000800000000E1
:100090000000000000000000000000007B020008DB
:1000A0007B0200087B0200087B0200087B0200083C
:1000B0007B0200087B0200087B0200087B0200082C
:1000C0007B0200087B0200087B0200087B0200081C
:1000D0007B0200087B020008412B000800000000A2
:1000E0007B0200087B0200087B0200080000000081
:1000F0000000000000000000000000007B0200087B
:10010000000000007B0200087B0200087B02000860
:1001100000000000000000000000000000000000DF
:100120007B0200087B0200087B0200087B020008BB
:100130007B0200080000000000000000000000003A
:100140000000000000000000000000007B0200082A
:100150007B0200087B0200087B0200087B0200088B
:100160007B0200087B020008000000000000000085
:10017000000000000000000000000000000000007F
:10018000000000007B0200080000000000000000EA
:100190007B02000800F002F800F052F814A696E87E
:1001A000000CB244B344DA4501D100F049F8BAE892
:1001B0000F000FA696E83000A5EB040504EB060738
:1001C000AAEB0704A7F101074FEA15154FEA34140B
:1001D000A4F10104AC4201D300F032F813F0010F96
:1001E00018BFFB1A43F0010300F001F8DBE71847E2
:1001F000042E0000242E0000103A24BF78C878C1D5
:10020000FAD8520724BF30C830C144BF04680C601C
:1002100070470000704700000023002400250026DE
:10022000103A28BF78C1FBD8520728BF30C148BF59
:100230000B6070471FB502F0C3FE1FBD10B510BDA7
:1002400000F0D0F81146FFF7F5FF02F081FC00F056
:10025000EEF803B4FFF7F2FF03BC00F0F5F800007E
:100260000948804709480047FEE7FEE7FEE7FEE74A
:10027000FEE7FEE7FEE7FEE7FEE7FEE70448054986
:10028000054A064B70470000392800089501000810
:10029000F0010020F0070020F0030020F003002010
:1002A00053EA020C00F069802DE9F04B4FF0000694
:1002B000002B1FBFB3FA83F503FA05F424FA05F601
:1002C0005E4012BF1643B2FA82F502FA05F4C5F198
:1002D00020051EBF22FA05FC44EA0C04203556EA2C
:1002E000044C4FEA144418BF641C4FF000084FF050
:1002F0000009904271EB030C39D3002919BFB1FA00
:1003000081F701FA07F6B0FA80F700FA07F6C7F1AD
:1003100020071EBF20FA07FC46EA0C062037B6FB72
:10032000F4FCA7EB0507103F07F01F0BCBF12006ED
:100330002CFA06F60CFA0BFB44BFB3460026202F1E
:10034000A4BF5E464FF0000B5BEA060C08BF4FF0FF
:10035000010B19EB0B0948EB0608ABFB027C06FB13
:1003600002CC0BFB03CCC01B71EB0C01C1E70B46AD
:10037000024641464846BDE8F08B13B5084318BF16
:100380004FF0FF300146AFF30080BDE81C407047DE
:100390004FF0000200B5134694469646203922BF1E
:1003A000A0E80C50A0E80C50B1F12001BFF4F7AF69
:1003B000090728BFA0E80C5048BF0CC05DF804EB4B
:1003C000890028BF40F8042B08BF704748BF20F8B9
:1003D000022B11F0804F18BF00F8012B70477047B7
:1003E00070477047754600F02BF8AE460500694629
:1003F000534620F00700854618B020B5FFF73EFFB2
:10040000BDE820404FF000064FF000074FF0000815
:100410004FF0000BAC46ACE8C009ACE8C009ACE852
:10042000C009ACE8C00921F007018D46704710B53E
:100430000446AFF300802046BDE81040FFF709BF37
:10044000004870471000002001491820ABBEFEE7AD
:100450002600020070470000FEE700007047000021
:1004600070B581B00022009290F83C20012A03D19F
:10047000022001B070BD00BFD1F800E001221FFAD8
:100480008EFC4FEA4C0380F83C200EEB4E0213FA30
:100490008EF31024BEF1090F88BFA3F11E0288BF9E
:1004A0000C24036807251E59954026EA05051D51B1
:1004B0008D681E5905FA02F232431A51496806291D
:1004C00006D801EB81014A1F194651F8345F0EE04E
:1004D0000C2901EB810105D8A1F12302194651F83D
:1004E000305F04E0A1F14102194651F82C5F1F244E
:1004F000944025EA04040C600CFA02F20C6842F203
:10050000043CC4F2010C2243ACF54174A3420A60DE
:100510003ED1BEF1120F07D1DCF8001041F480018A
:10052000CCF8001034E000BF2EF0010110292FD1CB
:10053000DCF80010BEF1100F41F40001CCF80010FF
:1005400026D140F20801C2F2000109684DF683622B
:10055000C4F21B32A1FB0212910C01EB8101490094
:1005600000910099A1B1009901390091009979B1E8
:10057000009901390091009951B100990139009118
:10058000009929B100990139009100990029EAD117
:10059000002180F83C10002001B070BD0068C06CE4
:1005A00070470000002804BF0120704710B5016C9F
:1005B00000293DD0016CC90645D4016C41F20212FC
:1005C0009143023142F204320164C4F20102116823
:1005D00021F440311160136890E812102343D0F8E1
:1005E00010E013604A68012422F480724A604A686D
:1005F000C0F6007442EA0E224A604A6822F0407255
:100600004A604A6842EA0C024A608A6822F4006240
:100610008A60C2688B681A438A60826A8B68A242C9
:1006200023F070638B608B6810D123F0405216E08A
:10063000044600F065F820460021616484F83C100F
:10064000016CC906B9D5012153E000BF1A438A6085
:100650008A6822F040528A60C26A8B681A438A60B4
:100660008A6822F002028A608A68037E90F820403D
:1006700042EA43028A604A6884B142F400624A60F6
:100680004A684EF2000322F460424A60426ACFF6A2
:10069000FF734C6803EB4232224301E022F4006214
:1006A0004A60CA6A40F2000C22F47002CA62C3694E
:1006B0004269CFF6F07CCC6A0CEB03532343CB6248
:1006C0008B6823F400738B6090F830308C6844EAB8
:1006D00043238B608B6823F480638B608B6843EAD1
:1006E00082228A6000214164026C012363F30102CB
:1006F0000264002280F83C20BDE8104008467047A4
:1007000080B586B042F200010068C4F20101002207
:1007100088420592CDE903220292019202D006B0EE
:1007200080BD00BF43F630000092C4F2020043696E
:1007300043F480734361436903F480730093009B27
:100740000092036843F001030360006800F00100B9
:1007500000900098012001900320CDE9020201F5EC
:10076000604001A900F092F906B080BD70B5044662
:1007700000680D468268520544BF80685FEAC05039
:1007800038D400F05FFA21680A68920749D4064617
:10079000681C3CD0DDB90868800721D5086880074F
:1007A0003FD4086880071BD50868800739D40868DB
:1007B000800715D50868800733D4086880070FD5EF
:1007C00008688007E7D52CE00868800729D400F086
:1007D00039FA801B2168A842F6D908688007F3D44B
:1007E000206C40F004002064002084F83C000320CA
:1007F00070BD00BF206C40F020002064002084F811
:100800003C00012070BD00BF0868800709D408685B
:10081000800706D4086880075CBF08685FEA8070BC
:10082000F2D56FF012000860206C40F40070206474
:10083000886810F0405F01D0002070BD207E002845
:10084000FAD1C86A10F4700F02D088684005F3D45A
:10085000206C20F480702064206CC004ECD4206CE8
:1008600040F001002064002070BD000010B581B090
:100870000021009190F83C10012903D1022001B021
:1008800010BD00BF0468012180F83C10214651F8DA
:10089000083FDB0729D10B684DF6836243F0010363
:1008A0000B6040F20803C2F200031B68C4F21B3263
:1008B000A3FB02239A0C02EB42020092009AA2B11F
:1008C000009A013A0092009A7AB1009A013A009295
:1008D000009A52B1009A013A0092009A2AB1009A05
:1008E000013A0092009A002AEAD10A68036CD20702
:1008F0000CD143F01001016400F1440101200A68A9
:1009000010430860002001B010BD00BF40F201722A
:1009100023EA020202F5807202646268520504D57D
:10092000026C012363F30D320264026C4FF0000C81
:100930000023D20444BF426C22F0060342F2000EB0
:10094000436480F83CC06FF02200C4F2010E2060C6
:10095000DEF80403C00609D074450BD1DEF80800A8
:1009600010F0405F06D14FF08040C8E7086810F0F3
:10097000405FF8D0002001B010BD000090F83C109E
:10098000012904BF0220704701688A6822F0010231
:100990008A608968C90705D1016C41F2011291434F
:1009A00001310164002180F83C10002070470000F4
:1009B00070B5866D044600F045F994F835100229AB
:1009C00028D105462068216C026822F016020260D8
:1009D000426922F08002426109B9A16C19B1016833
:1009E00021F008010160016821F00101016000BFF0
:1009F00020680068C00715D000F024F9401B0628C5
:100A0000F6D320206065032084F83500002184F8A7
:100A1000341070BD802060650120002184F83410FE
:100A200070BD00BFE06D3F2101FA00F0B060012011
:100A300084F835000020002184F8341070BD0000D7
:100A400090F83510022909D1052180F83510006889
:100A5000016821F00101016000207047802141659B
:100A600001207047B0B5044600F0ECF8054640F2AE
:100A70000000C2F200000078611C18BF044400BFEF
:100A800000F0E0F8401BA042FAD3B0BD2DE9F04FD2
:100A900083B000F1200200F13E4741F200050092D0
:100AA00007F1FF77C4F2020507224FEAB726A842F2
:100AB00008BF042200254FF000084FF00009042E63
:100AC00038BF4FEAB72201920AE000BF09F10109DD
:100AD00008F10208B9F1100F05F1040500F0A28039
:100AE0000F68012202FA09FE17EA0E0AEED0D1F8C9
:100AF00004C003220CF003077E1E02FA08F4012E44
:100B00006FEA040B12D88468CE6804EA0B0406FA74
:100B100008F634438460446824EA0E06CCF30014DB
:100B200004FA09F42643466004E000BF032F01D114
:100B300003271EE0C6688C6806EA0B0604FA08F470
:100B40002643022FC66014D16FF00302009E02EA12
:100B5000590756F807C005F01C040F220B69A24084
:100B60002CEA0202A3401A43F251D1F804C00CF05F
:100B70000307026807FA08F302EA0B021A431CF49F
:100B8000403F0260A2D0002243F644030292C4F226
:100B900002031A6843F6004442F480421A601A685D
:100BA000C4F2010402F480420292029A29F0030284
:100BB0004FF6084C2244CFF6FF7C52F80C3005F07B
:100BC0000C070F26BE40B343019E06FA07F73B43CE
:100BD00042F80C30A2684B6842EA0A0743F60C4C14
:100BE000DE0258BF22EA0A07A760C4F2010CDCF853
:100BF00000209E0242EA0A0758BF22EA0A07CCF800
:100C0000007062689E0342EA0A0758BF22EA0A0798
:100C100067602268DB0342EA0A0758BF22EA0A0734
:100C2000276053E703B0BDE8F08F0000006908407B
:100C300018BF012070470000002A08BF0904816125
:100C40007047000040F2EC10C2F2000000687047EC
:100C500040F2000040F2EC11C2F20000C2F20001CA
:100C600000780A68104408607047000080B543F6B9
:100C70000040C4F20200016841F4007101600168A3
:100C800041F480610160016841F4807101600320DA
:100C900000F086F8002000F005F800F027F80020AA
:100CA00080BD000070B540F20006C2F2000640F2BE
:100CB00008013278C2F200014FF47A730968B3FB7D
:100CC000F2F20446B1FBF2F1084600F061FB0F2C92
:100CD0004FF0010508D838B94FF0FF302146002207
:100CE000002500F031F87460284670BD82B0002005
:100CF00043F640010190C4F202014A6842F4804286
:100D00004A604A6802F480420192019A00900868A1
:100D100040F080500860086800F080500090009813
:100D200002B07047002848BF704700F01F01012241
:100D300002FA01F11C2202EAD0004EF20012CEF2B9
:100D4000000281507047000010B54EF60C5CCEF2E8
:100D5000000CDCF80030C3F3022E8EF00704042CE4
:100D600028BF0424BEF103034FF0FF3E0EFA04F443
:100D700038BF0023A14399400EFA03F39A4311436D
:100D800000F00F0200F160430901043A03F56443E7
:100D90006244002848BF02F10C03197010BD000026
:100DA0004EF60C51CEF200010A684FF6FF031A40CE
:100DB00060F30A2242F0806040F0FD7008607047E6
:100DC000002804BF012070472DE9F04143F60808D0
:100DD000C4F202080446D8F8F8030D4600F00700F4
:100DE000814207D988F8F853D8F8F80300F00700D3
:100DF000A84277D12068810717D5410705D5D8F8D3
:100E0000001041F4E051C8F80010010705D5D8F8EA
:100E1000001041F46041C8F80010D8F80010A26832
:100E200021F0F0011143C8F80010C00740D1D8F8F4
:100E3000F80300F00700854207D288F8F853D8F885
:100E4000F80300F00700A8424CD12068410707D5FD
:100E5000D8F80010E26821F4E0511143C8F80010FE
:100E6000000708D5D8F80000216920F4604040EA66
:100E7000C100C8F8000000F07DF8D8F8001042F674
:100E8000DA72C1F30311C0F60002515C40F20802AD
:100E900020FA01F140F20400C2F200000068C2F240
:100EA00000021160FFF7FEFE0020BDE8F08100BFE8
:100EB0006068811E022907D258F8081C89015CBFAE
:100EC0000120BDE8F08111E0012807D158F8081C85
:100ED00089035CBF0120BDE8F08107E058F8081CD9
:100EE000890703D40120BDE8F08100BFD8F80010C5
:100EF00021F003010843C8F80000FFF7A3FE0646EF
:100F000041F28837D8F80000616800F00C00B0EBBF
:100F1000810F8CD0FFF796FE801BB842F2D90320D8
:100F2000BDE8F08140F2080043F60801C2F200007B
:100F3000C4F202010068096842F6EA72C1F3822134
:100F4000C0F60002515CC8407047000040F2080043
:100F500043F60801C2F20000C4F202010068096809
:100F600042F6EA72C1F34231C0F60002515CC84059
:100F70007047000010B543F60404C4F2020461682F
:100F8000C1F3810142F20040C0F2F400DFE801F059
:100F900002040A0210BD00BF41F20020C0F27A0034
:100FA00010BD00BF216801F03F022168236849029B
:100FB000C3F3881106D4A1FB00010023FFF770F9E9
:100FC00007E000BF41F20020C0F27A004843B0FBC6
:100FD000F2F021680222C1F3014102EB4101B0FBB2
:100FE000F1F010BD002804BF012070472DE9F04149
:100FF00082B00446007843F60006C007C4F2020639
:101000000CD0B06800F00C00042840F081803068FB
:10101000800303D56068002800F06881207880078D
:101020001BD5B06810F00C0F09D0B06800F00C00B0
:10103000082840F087807068400200F183803068A3
:10104000800703D5E068012840F0508130682169AD
:1010500020F0F80040EAC10030602078000713D487
:10106000207840072AD4A569002D00F03A81B068A5
:1010700000F00C00082840F0A580012D40F00E8102
:10108000012002B0BDE8F0816069002800F0828094
:101090000020C4F247200121C0F8801EFFF7D2FDD6
:1010A000054600BF706F8007DAD4FFF7CBFD401B09
:1010B0000228F7D9032002B0BDE8F081306C5FEA66
:1010C000C0080AD400200190306C40F08050306499
:1010D000306C00F080500190019847F20007C4F294
:1010E00000073868C00547D4386840F4807038601D
:1010F000FFF7A8FD054600BF3868C0053CD4FFF7E0
:10110000A1FD401B0228F7D9032002B0BDE8F08101
:10111000B06800F00C00082803D1706840023FF569
:1011200076AF61683068B1F5803F07D0B1F5A02F88
:1011300040F09A8040F480203060306840F4803085
:1011400030609AE0E068002840F20000C4F24720D6
:101150005CD001210160FFF775FD0546306880070E
:101160003FF574AFFFF76EFD401B0228F6D9032050
:1011700002B0BDE8F08100BFA168306F012905D041
:10118000052955D140F004003067306F40F0010070
:10119000306756E00020C4F247200021C0F8801ECE
:1011A000FFF750FD054600BF706F80077FF558AF11
:1011B000FFF748FD401B0228F6D9032002B0BDE826
:1011C000F08100BF0027C4F2472700203866FFF7F0
:1011D00039FD022D05460DD13068800140F18A802D
:1011E000FFF730FD401B02284FF00300F4D902B096
:1011F000BDE8F0813068800173D5FFF723FD401B07
:1012000002284FF00300F5D9F1E700BF002101608B
:10121000FFF718FD054600BF306880077FF51DAF5A
:10122000FFF710FD401B02284FF00300F4D9DEE762
:1012300020F001003067306F002920F00400306793
:101240007AD0FFF7FFFC054641F28837306F800700
:1012500000F18480FFF7F6FC401BB842F6D903206A
:1012600002B0BDE8F08100BF20F48030306030680B
:10127000002920F4802030607AD0FFF7E3FC054697
:10128000306880033FF5CAAEFFF7DCFC401B6428E2
:10129000F6D9032002B0BDE8F08100BF7068E169B3
:1012A00000F480028A4221D1216A00F03F028A4282
:1012B0001CD147F6C071626A0140B1EB821F15D1A3
:1012C000A16A4FF6FF73C903994300F44032A1F5B8
:1012D00080318A420AD1E16A00F07060B0EB016FA0
:1012E00004D1002002B0BDE8F08100BF012002B0AF
:1012F000BDE8F08104F11C052FCD084340EA8210BF
:10130000D9034FF6FF729143A1F5803140EA0560A1
:101310000843706001203866FFF794FC044600BF64
:1013200030688001DDD4FFF78DFC001B02284FF0F0
:101330000300F5D95BE700BFFFF784FC054641F2E7
:10134000883700BF306F800708D5FFF77BFC401B54
:10135000B8424FF00300F5D949E700BFB8F1000FDC
:101360003FF581AE306C20F0805030647BE600BFEA
:10137000FFF768FC054600BF306880037FF54EAE7E
:10138000FFF760FC401B64284FF00300F4D92EE700
:10139000411E0020B0EB116F1CBF012070474EF2C0
:1013A0001002CEF2000251604EF62351CEF200013F
:1013B000F0230B70072190601160704790F83C207B
:1013C000012A04BF02207047B0B501F108053CCDE9
:1013D000D1E900CE23F47C5322F470521A432EF448
:1013E000F0431A432CF4E0431A4324F4C0431A4355
:1013F0002A43C96922F480420368114359640021D9
:1014000080F83C100020B0BD90F83C20012A4FF03D
:10141000020241D010B580F83D200268D2F804E005
:10142000D2F808C00C682EF07003234340F6FF3456
:10143000C4F20004A242536010DCB2F1804F1ED00F
:1014400040F20043C4F200039A4218D040F6000371
:10145000C4F200039A4212D016E000BF40F60043E7
:10146000C4F200039A420AD044F20003C4F201031A
:101470009A4204D00023C4F201039A4204D149687D
:101480002CF08003194391600121002280F83D1067
:1014900080F83C20BDE810401046704790F83C3082
:1014A000012B04BF022070474FEAB202032A00F268
:1014B000ED802DE9F043DFE802F003A3397300BFAC
:1014C000036800261D6A1A6AC4F2010622F00102AE
:1014D0001A621A465C6852F818CFB3428E68D1F887
:1014E00000E025F0020545EA06050CD1CE68D1E9F9
:1014F000057824F4407425F00C0526F004063C43DE
:10150000354344EA08042CF0730747EA0E075C6091
:101510009F614F6809695F631D629F6947F0080713
:101520009F619F6927F004079F61A4E0036800267C
:101530001D6A1A6AC4F2010622F480721A621A46FF
:10154000D3F804C052F81CEFB3428E680C6825F43F
:10155000007545EA06250FD1CE68D1E90598360217
:1015600040F2FF4725F44065BE4335432CF4405715
:1015700048EA090647EA061C2EF073072743C3F81A
:1015800004C0DF614F680969DF631D62DF6947F0EE
:101590000807DF61DF6927F00407DF616BE000BF48
:1015A00003680027D3F820C01A6AC4F2010722F4A6
:1015B00080521A621A465C6852F81C5FD1F800E04B
:1015C0008E68BB4204D14F6924F4804444EA8714F6
:1015D0002CF4005747EA063725F4E64646EA0E267D
:1015E0005C60DE614E6809691E641F62DF6947F452
:1015F0000067DF61DF6927F48067DF613AE000BFE1
:10160000036800261D6A1A6AC4F2010622F010025D
:101610001A621A46D3F804C052F8184FB3428E68C3
:10162000D1F800E025F0200545EA06150FD1CE6877
:10163000D1E905986FF0400725F0C00507EA0616C6
:1016400035432CF4406748EA090647EA860C24F43F
:10165000E64444EA0E27C3F804C09F614F68096955
:101660009F631D629F6947F400679F619F6927F42C
:1016700080679F6109021368194311600021BDE86A
:10168000F043002280F83C200846704701210022E8
:1016900080F83C2008467047002804BF01207047AE
:1016A00010B5044690F83D0028B9002084F83C00AD
:1016B000204600F01FF8022084F83D002068211D1C
:1016C00001F0C4F8012084F8460084F83E0084F854
:1016D0003F0084F8400084F8410084F8420084F818
:1016E000430084F8440084F8450084F83D0000205D
:1016F00010BD0000B0B586B00024C4F2020400683A
:10170000A4F58031884201D006B0B0BD002043F678
:1017100030010190C4F202014A6901AD42F00102B8
:101720004A614A6902F001020192019A01900A6835
:1017300042F001020A60096801F00101019101997A
:101740004FF4807101910221CDE902100120049132
:10175000059020462946FFF799F94FF40070019053
:1017600020462946FFF792F906B0B0BDC1B1042961
:1017700008D0082914BF41224022825C012A05D0EA
:1017800016E000BF3F22825C012A11D10222082903
:1017900010D0042914BF80F8412080F83F200BE0CE
:1017A00090F83E20012A03D1022280F83E2003E077
:1017B0000120704780F84020006801F01F010122DD
:1017C000036A8A4023EA02010162036A4421C4F2E7
:1017D00001011A43A1F144039842026216D040F677
:1017E000FF31C4F2000188421ADCB0F1804F28D0EA
:1017F00040F20041C4F20001884222D040F60001CC
:10180000C4F2000188421CD022E000BF0A6842F402
:1018100000420A6040F6FF31C4F200018842E4DD74
:1018200040F60041C4F2000188420AD044F20001AF
:10183000C4F20101884204D00021C4F201018842AF
:1018400006D1816801F00701062904BF0020704716
:10185000016841F0010101600020704780B5026815
:1018600001F01F0C012303FA0CFE136A40F2000C76
:1018700023EA0E031362C4F2010C136A6245136279
:1018800011D1DCF820C041F211131CEA030F0AD178
:10189000D2F820C040F244431CEA030F03D1536C3A
:1018A00023F400435364D2F820C041F211131CEA20
:1018B000030F06D1D2F820C040F244431CEA030FC4
:1018C00014D0082918D004290AD000294FF00101AA
:1018D00014BF80F8411080F83E10002080BD00BF8A
:1018E000012180F83F10002080BD00BF136823F065
:1018F000010313600829E6D1012180F8401000207F
:1019000080BD00007047000070470000B0B582B095
:1019100001680A68CC684B6902F02F05202D04F09D
:10192000200505D125B102B0BDE8B04001F014B8E2
:101930005FEA027C1EBF03F0010E04F4907313EB08
:101940000E0341D1036BD50618D5012B16D114F027
:10195000100313D0002201920A6801924A68019292
:10196000019A496949064BD4818DC28DC38D002BE4
:1019700018BF914240F0F48102B0B0BD13062DD5DE
:1019800014F080032AD090F84120212AF4D18268F3
:10199000B2F5805F03D10269002A00F06782026A13
:1019A000531C036212784A60C28C013A1304C28449
:1019B000E2D1C86820F08000C860C86840F04000EC
:1019C000C86002B0B0BD00BFD30718BF14F4807365
:1019D00040F0D080530700F1D380D8E05206CBD539
:1019E00014F04002C8D0CA6822F04002CA60202128
:1019F00080F8411002B0BDE8B04000F015BC00BF57
:101A0000C16B0A68526893B2002BB5D0858DAB428A
:101A1000B2D2C285C969B1F5807F00F0A0800168AB
:101A200051E8031F026821F4807142E80313DBB11F
:101A3000016851E8031F026821F4807142E8031332
:101A400093B1016851E8031F026821F4807142E8F4
:101A500003134BB1016851E8031F026821F4807140
:101A600042E80313002BDAD1016851E8051F026830
:101A700021F0010142E80513BBB3016851E8051FDD
:101A8000026821F0010142E8051373B3016851E8CF
:101A9000051F026821F0010142E805132BB301681C
:101AA00051E8051F026821F0010142E80513002BEF
:101AB000DAD11AE0016851E8051F026821F04001FF
:101AC00042E80513DBB1016851E8051F026821F007
:101AD000400142E8051393B1016851E8051F02680F
:101AE00021F0400142E805134BB1016851E8051FA0
:101AF000026821F0400142E80513002BDAD12021D1
:101B000080F8421000210163016851E8031F026858
:101B100021F0100142E80313DBB1016851E8031F13
:101B2000026821F0100142E8031393B1016851E803
:101B3000031F026821F0100142E803134BB1016852
:101B400051E8031F026821F0100142E80313002B43
:101B5000DAD1C16B04460846FEF72AFF204602216F
:101B60004163818DC28D891A89B202B0BDE8B0404F
:101B7000FFF7C8BE436C43F001034364530706D527
:101B8000BEF1000F03D0436C43F00203436493079C
:101B900006D5BEF1000F03D0436C43F00403436449
:101BA000BCF1000F06D55EEA050303D0436C43F099
:101BB00008034364436C002B3FF4DEAE920605D568
:101BC00025B1044600F0C8FE216820464969426CF0
:101BD00001F0400102F00802891800F0B98000BF4E
:101BE000016851E8031F026821F4907142E8031371
:101BF000BBB3016851E8031F026821F4907142E809
:101C0000031373B3016851E8031F026821F4907154
:101C100042E803132BB3016851E8031F026821F463
:101C2000907142E80313002BDAD11AE0016851E801
:101C3000051F026821F0010142E80513DBB10168CC
:101C400051E8051F026821F0010142E8051393B134
:101C5000016851E8051F026821F0010142E80513FF
:101C60004BB1016851E8051F026821F0010142E80B
:101C70000513002BDAD1016B012924D1016851E849
:101C8000031F026821F0100142E80313DBB1016871
:101C900051E8031F026821F0100142E8031393B1D9
:101CA000016851E8031F026821F0100142E80313A4
:101CB0004BB1016851E8031F026821F0100142E8AE
:101CC0000313002BDAD1202180F842100021016398
:101CD00001684969490640F1C380016851E8051F60
:101CE000026821F0400142E80513DBB1016851E8C8
:101CF000051F026821F0400142E8051393B1016815
:101D000051E8051F026821F0400142E805134BB17C
:101D1000016851E8051F026821F0400142E80513FF
:101D2000002BDAD1C16B002900F09A8042F64D12E7
:101D3000C0F60002044608460A65FEF781FE002848
:101D40003FF41AAEE06B016D02B0BDE8B040084749
:101D50000446FFF7D9FD0020606402B0B0BD00BFAB
:101D6000891A00BF026852E8032F036822F49072B8
:101D700043E80325BDB3026852E8032F036822F449
:101D8000907243E8032575B3026852E8032F036895
:101D900022F4907243E803252DB3026852E8032F22
:101DA000036822F4907243E80325002DDAD11AE08B
:101DB000026852E8052F036822F0010243E8052576
:101DC000DDB1026852E8052F036822F0010243E802
:101DD000052595B1026852E8052F036822F001023B
:101DE00043E805254DB1026852E8052F036822F04B
:101DF000010243E80525002DDAD1202280F8422097
:101E000000220263026852E8032F036822F01002E6
:101E100043E80325DDB1026852E8032F036822F08E
:101E2000100243E8032595B1026852E8032F0368C6
:101E300022F0100243E803254DB1026852E8032F57
:101E4000036822F0100243E80325002DDAD10222B4
:101E500089B2426302B0BDE8B040FFF753BD00BF96
:101E600002B0BDE8B040FFF74FBD00BF026A32F8D4
:101E7000023B6FF35F234B60026295E5002804BFCD
:101E80000120704710B5044690F8410028B90020A1
:101E900084F84000204600F021F8242084F8410016
:101EA0002068C16821F40051C160204600F0D4FDD3
:101EB0002068016921F490410161416921F02A0102
:101EC0004161C16841F40051C1600020202160647B
:101ED00084F8411084F84210606310BD80B586B06C
:101EE00044F200410068C4F20001002288420592D9
:101EF000CDE903220292019202D006B080BD00BF5C
:101F000043F630000092C4F20200036943F4003348
:101F10000361036903F400330093009B009203689C
:101F200043F001030360006800F001000090009896
:101F30000C2001900220CDE902020720059001F556
:101F4000DE3001A90492FEF7A1FD26200021002227
:101F5000FEF7FAFE2620FEF7E5FE06B080BD000083
:101F600090F84230202B07D100294FF0010318BF11
:101F7000002A05D11846704702231846704700BF53
:101F800000230363816222218285C285436480F835
:101F900042100169006819B1C16841F48071C160E3
:101FA000416941F001014161C16841F02001C16016
:101FB0001846704770B5006844F20041C4F2000151
:101FC000884201D070BD00BF40F27004C2F200042C
:101FD0002078D8B12078012852D1A0887F2827D82E
:101FE000E078A18840F26C154A1CC2F20005A2807C
:101FF0006854A088032832D1A07880BBAE78022E26
:1020000001D0FF2E1AD10120A07023E0E078AA2889
:1020100036D1012020700020A080A070A088AA22C4
:10202000411CA18040F26C11C2F200010A5427E069
:1020300000202070A080A07022E000BF002020704F
:10204000A080A07040F22410E11CC2F20000012226
:10205000FFF786FFFF2E02D0022E18BF70BDA078BA
:1020600070B1A08807280BD32879A188073088424F
:1020700006D1E078552803D101206070002020703F
:1020800040F22410E11CC2F200000122BDE87040C1
:10209000FFF766BF2DE9F04381B0044690F8410098
:1020A000202809D100294FF0010018BF002A07D1CC
:1020B00001B0BDE8F08300BF022001B0BDE8F083AD
:1020C0000020606421201D460E4684F8410017461A
:1020D000FEF7B8FDA784E784A1688146B1F5805F6B
:1020E00002D1206900285DD037460020E28C2168AB
:1020F000002A5DD06A1C24D0002D4AD0804600BF43
:102100000868000608D4FEF79DFDA0EB0900A84270
:102110007AD82168C868F3E717B117F8010B04E013
:1021200038F8020B00276FF35F204860E08C01381D
:10213000E084E08C0028E3D13AE000BF0A68120690
:1021400009D40A68120606D40A6812065CBF0A6837
:102150005FEA0262F2D51FB117F8012B05E000BF5C
:1021600030F8022B00276FF35F224A60E28C013ABD
:10217000E284E28C002AE4D11AE000BF30F8022B9E
:1021800000276FF35F224A60E28C013AE284E28C1E
:1021900072B10A68120635D5002FEFD017F8012B5F
:1021A000F1E700BF00273046E28C2168002AA1D168
:1021B000086840061ED42DB3681C14D10868400678
:1021C0002AD40868400627D40868400624D4086842
:1021D00040064FF00000F1D50DE000BF2068C16857
:1021E0000068400618D4FEF72DFDA0EB0900A842B8
:1021F000F4D909E00020202184F8411001B0BDE8A5
:10220000F08300BFFEF71EFD0320202184F841105B
:1022100001B0BDE8F08300BF0020202184F8411008
:1022200001B0BDE8F083000070470000FEE7000049
:10223000B0B592B040F2DC04C2F2000420460021A6
:102240000025FFF70BFB20460421FFF707FB0020CA
:10225000C4F2010053213122802384E82300204668
:10226000C4E90325C4E90553FFF716FA10B172B6A5
:10227000FEE700BF40F2DC00C2F2000010A9CDE989
:102280001055FFF7C1F818B172B600BFFEE700BFE6
:10229000602009900020CDE90A00CDE90C00CDE9CD
:1022A0000E0040F2DC00C2F2000009A90022FFF794
:1022B000F5F818B172B600BFFEE700BF40F2DC00CF
:1022C000C2F2000009A90422FFF7E8F810B172B6C3
:1022D000FEE700BF4FF40061002001914FF48061E0
:1022E0000790CDE90210CDE904004FF400500690AC
:1022F0004FF48040089040F2DC00C2F2000001A9D7
:10230000FFF75CF810B172B6FEE700BF12B0B0BDC7
:10231000FEE700002DE9F0410C46022905461FD8D2
:10232000E000C0B24FF4807140F20048AF7A21FA69
:1023300000F24FF48031C4F2020821FA00F60421C1
:10234000D2B24046002F08BF0121FEF775FC4FF4C2
:102350008061F2B24046002F08BF0221FEF76CFCFC
:102360006C72BDE8F081000010B5D0E9002314685C
:10237000D4F82CC063B1082B06D0042B14BF4FF047
:10238000400E4FF0380E05E04FF03C0E02E000BF6B
:102390004FF0340E0CF1010348F281024B43C8F2B6
:1023A0008002A3FB0223DA0944F80E20017210BD5B
:1023B000FEE70000704700002DE9F04F83B040F2C7
:1023C000700BC2F2000BBBF804000728C0F0C480F9
:1023D00040F26C17C2F200073878AA2840F0BC809F
:1023E000BBF80400384410F8010C552840F0B480C4
:1023F00097F804A097F80180B87897F80390BBF895
:1024000004100AF107028A4240F0A680FF2802D099
:10241000022840F0A1800AF10400010608D0BAF1B8
:10242000FB0F00F0030C05D90020002219E000BFCB
:10243000002028E0C0B200F0FC00424200206FF013
:10244000030300BFF9184C798D79CE796040097A81
:10245000684004337040D618043680EA0100F1D198
:102460001A1DBCF1000F0ED03A445178BCF1010F97
:1024700080EA010007D09178BCF1020F80EA0100E8
:102480001CBFD17848400AEB07014979884263D1E3
:102490000020C4F202000221FEF7C8FBB9F11F0FB1
:1024A00018DCB9F1010F31D0B9F1100F24D1BAF114
:1024B000030F08BF012853D001284DD047A70220A1
:1024C000414610220323009700F08CF803B0BDE8CA
:1024D000F08F00BFB9F1200F28D0B9F1300F0BD128
:1024E00005370220414630225346009700F07AF823
:1024F00003B0BDE8F08F00BF02204146FF22FF235A
:1025000003B0BDE8F04F00F01BB900BFBAF1020FF5
:1025100008BF01282ED001281ED0022041460122EA
:10252000022303B0BDE8F04F00F00AB90138B0FA59
:1025300080F0BBF81410BBF820204009ADF804105F
:10254000ADF806208DF8080001AF02204146202298
:102550000523009700F046F803B0BDE8F08F00BFF8
:102560007879B979FD7978B10128F5D10BF11806A0
:102570000CE000BF7879B979012821D00028EBD18F
:102580000BF10C001EE000BF0BF10C063046FFF70C
:10259000EBFE681EB0FA80F0022D18BF45093046E8
:1025A0002946FFF7B7FE30890DF10907ADF809009C
:1025B00001208DF80B000220414610220323C8E7BA
:1025C0000BF11800FFF7D0FE022041460122012343
:1025D00003B0BDE8F04F00F0B3B800BF0000020048
:1025E000704700002DE9F047A8B08C46AA218DF86D
:1025F000001069468DF801008DF802C08DF80320A7
:102600008DF8043063B1DDF8C0E0042B03F0030C57
:102610000AD205200024BCF1000F804629D140E0F9
:102620004FF0050804203FE003F0FC00C0F1000873
:102630000EF1010905206FF0030500BF09EB050647
:10264000F47896F806A0B688C7B251FA80F204353D
:10265000CC55A2F80160C21C08EB05040430D2B2CC
:10266000043401F802A0E9D12C1DBCF1000F804612
:1026700017D01EF8045000F10108C6B2BCF1010FDA
:102680008D550ED074446678851C5FFA88F2BCF1D3
:10269000020FA8468E5404D0A67800F10308E8B2D1
:1026A0000E54181D030635D0C5B2042D00F0030CDE
:1026B00006D200250020BCF1000F19D12BE000BF8D
:1026C00005F0FC00454200206FF003040E197379F9
:1026D000B279F7795840367A5040043478402A1954
:1026E000043280EA0600F1D1251DBCF1000F12D0A2
:1026F0004C1C625DBCF1010F80EA02000BD0254446
:102700006A78BCF1020F80EA02001CBFAA78504030
:1027100001E000BF002008F101025FFA88F3C8540D
:1027200008F10200D2B255238B54C2B240F22410F9
:10273000C2F200006423FFF7ADFC28B0BDE8F087CB
:1027400080B5A8B08DF8010048405040584080F056
:1027500001008DF8060055204FF0AA0C8DF80700F7
:1027600040F224108DF800C08DF802108DF803207F
:102770004FF0010C8DF80530C2F2000069460822C6
:1027800064238DF804C0FFF785FC28B080BD0000ED
:10279000FEF75EBA70B592B006AC20463021FDF768
:1027A000F7FD002543F640000595CDE90355CDE939
:1027B00001550095C4F202000168022641F08051E3
:1027C0000160006800F080500090009847F200001F
:1027D0000095C4F20000016866F38F310160006863
:1027E00000F44040009000980120099010200A90C9
:1027F0000E904FF4A8700F900420109007201190B5
:1028000020460696CDE90C65FEF7ECFB10B172B6DA
:10281000FEE700BF0F20CDE901064FF48050CDE95F
:10282000040501A802210395FEF7CAFA10B172B699
:10283000FEE700BF12B070BD4EF68850CEF2000029
:10284000016841F4700101607047000010B540F26A
:10285000FF7E0368C4F2000E40F2000C7045C4F223
:10286000010C1DDD40F60002C4F20002904220D0AF
:1028700060451ED040F60042C4F20002904218D0DB
:102880004FF6FF72C4F2000290421CDC704525DC5A
:10289000B0F1804F3AD040F20042C4F2000233E07F
:1028A000B0F1804F05D040F20042C4F200029042E5
:1028B000E6D14A6823F0700313434FF6FF72C4F267
:1028C00000029042E2DD44F2FF32C4F20102904283
:1028D00010DC60451AD044F2000213E040F600021A
:1028E000C4F20002904211D040F60042C4F200024D
:1028F0000AE000BF44F60002C4F20102904205D093
:1029000044F20042C4F20102904203D1CA6823F4A7
:102910004073134323F080024B69D1F800E08C68C8
:102920001A4360450260C462C0F828E002D1096918
:10293000CCF83010012141610169C90708BF10BD01
:10294000016921F00101016110BD0000806B0021CF
:10295000C185C184FEF7D8BF81B090F8421022290A
:1029600021D183680246B3F5805F09D152F8281F50
:1029700052F8183C002B63D003685B680AE000BF84
:1029800052F8281F13B90369002BF5D003685B6860
:1029900003F07F030B70116801311160C18D0139A3
:1029A0000A04C18502D001B0704700BF0168CA683F
:1029B00022F02002CA60CA6822F48072CA604A69A2
:1029C00022F001024A61202180F842100021416377
:1029D000026B012A3CD10163016851E8031F0268C0
:1029E00021F0100142E80313DBB1016851E8031F35
:1029F000026821F0100142E8031393B1016851E825
:102A0000031F026821F0100142E803134BB1016873
:102A100051E8031F026821F0100142E80313002B64
:102A2000DAD101680A68D20606D5002200920A6847
:102A30000092496800910099818D01B0FEF762BF54
:102A4000026852686FF35F2221F8022B8162A5E7CA
:102A500001B0FFF7AFBA0000B0B50446006804F15A
:102A600008030ECB0569194325F440552A4302613A
:102A70006269E3691143C268194349F20C639A43DE
:102A80001143C1604169A26921F4407141F20043E0
:102A9000114340F48062C4F201039A42416103D1C0
:102AA000FEF754FA02E000BFFEF73CFAE1694FF688
:102AB0009C7563681922C0F6FF75B1F5004FA0FB45
:102AC00002011FD15A00DB0FFDF7EAFB48F21F514C
:102AD000C5F2EB11A0FB01235A0905F1805302FB5B
:102AE0000300322303EBC000A0FB01014FF4F87098
:102AF00000EA111000EB0210C1F3421108442168F2
:102B00008860B0BD9A009B0FFDF7CAFB48F21F51C9
:102B1000C5F2EB11A0FB01235A0902FB0500322389
:102B200003EB0010A0FB0101F02000EA511000EBC4
:102B30000210C1F34311084421688860B0BD000051
:102B400040F22410C2F20000FEF7E0BEFEE70000F3
:102B5000BAB040F2004BC4F2020BFEF787F8FFF761
:102B600019FE002643F630001696CDE91466CDE92D
:102B700012660296C4F202000168002241F00401CC
:102B80000160016840F2074801F0040102910299D6
:102B90000296016841F080010160016801F0800146
:102BA000029102990296016841F0010101600168F9
:102BB00001F00101029102990296016841F00201BF
:102BC0000160006840F2074100F0020002900298A4
:102BD0005846FEF731F84FF4005012904FF40410AD
:102BE00012ACCDE913060BF580602146FDF74EFFD0
:102BF0000220ABF58065CDE9120601272846214663
:102C00001497FDF743FF58462146CDE91287CDE9D9
:102C10001466FDF73BFF40F27008C2F20008ABF506
:102C200064414046012240F8241F4FF48031C0F631
:102C300000721596067680F82060C0E90A26C76102
:102C400080F83060C0E90116C0E903664761FDF70E
:102C5000A9FC18B172B600BFFEE700BF08F1240A54
:102C600012A950460195CDE912671496FDF7F8FBBD
:102C700010B172B6FEE700BF40F22410ABF5E031B0
:102C8000C2F2000000270C234FF4E13280E88600F6
:102C9000C0E90377C0E90537C761FFF7EFF818B15E
:102CA00072B600BFFEE700BFFFF7C2FA40F2DC04D5
:102CB000C2F20004584601210022C8E90347C8F8BF
:102CC00013704FF00109FDF7B7FF584602210022AB
:102CD000FDF7B2FFD8E9030188F815700068C26AF1
:102CE00041B1082904D0042914BF4021382102E051
:102CF0003C2100E03421002545500420C8E906406D
:102D000058460421002288F8145088F82290A8F828
:102D10002050FDF791FF58464FF480610022FDF7E7
:102D20008BFFD8E9060188F821500068C26A49B1D2
:102D3000082905D0042914BF4021382103E000BF31
:102D40003C2100E0342140F2DC040022C2F2000405
:102D500042502046002188F82020FEF707FD20463B
:102D60000421FEF703FD40F2241BC2F2000B08F120
:102D7000030158460122FFF7F3F8814803AE0290A1
:102D80007FA0071D8ECF00F1140E9EE810508EC656
:102D900000F12407056A07949ECFD0E90E60CDE9C3
:102DA0000A510CA99CC1CDE9106002A958463F22E6
:102DB0006423CDE908CEFFF76DF9019D40F6FF765B
:102DC00003E000BF0A20FDF74DFE28460221FDF773
:102DD0002DFF81465046FDF749FD50461421FDF771
:102DE000C5FC5046FDF7DAFB07461FFA80FB50464C
:102DF000FDF7C4FDB34528BFB346B9F1010FA8F8EC
:102E0000067078D0D8E9030340F201160168CBEBD5
:102E10000B20CA6AC0F21006A0FB0660A3B148F2FC
:102E20008104082BC8F2800408D040F20045042B2E
:102E3000C4F2020514BF402338230EE040F20045DF
:102E40003C23C4F2020508E040F2004548F2810448
:102E50003423C4F20205C8F2800401324243A2FBCB
:102E60000426F209CA50D8E9061388F81400096844
:102E7000CA6A4BB1082B05D0042B14BF402338235A
:102E800003E000BF3C2300E0342301324243A2FBB5
:102E90000426F209CA5098F8166088F82000042128
:102EA00028460122002E08BF0121FDF7C5FE4FF480
:102EB000806128460022002E08BF0221FDF7BCFEDB
:102EC00098F82260012404212846012288F8154040
:102ED000002E08BF0121FDF7AFFE4FF480612846A8
:102EE0000022002E08BF0221FDF7A6FE019D40F63C
:102EF000FF7688F82140FDF7A5FED8F80810401AA3
:102F0000B0F57A7F2AD3A9F10100B0FA80F0440924
:102F1000FDF798FEC8F80800380A8DF84D0087EADA
:102F20001720604040F2AA2180F0BE00C4F2FF01E9
:102F30008DF850005520129103218DF8510040F278
:102F400024108DF84C10C2F2000012A90A2264234A
:102F50008DF84E708DF84F40FFF79CF898F80100FF
:102F600000283FF42FAF002488F80140FFF724FA2F
:102F7000A8F8044088F8004088F8024022E700BF23
:102F800053544D33324634204D6F746F7220436F6B
:102F90006E74726F6C6C6572205265616479202D5D
:102FA0002054494D4552312050574D204032306B0E
:102FB000487A206F6E205041382F5041390D0A0059
:102FC000F1EE100A4FF6FF71C0F2C03120EA0100A5
:102FD00040F04070E1EE100A704700000000000071
:102FE00000000102030406070809000000000102B6
:102FF000030400001830000800000020100000004A
:10300000F80100082830000810000020E007000048
:10301000180200080000000001000000100000007D
:083020000024F4000000000090
:040000050800019559
:00000001FF
