:020000040800F2
:100000007806002061020008690200086B020008FF
:100010006D0200086F020008710200080000000075
:100020000000000000000000000000007302000853
:10003000750200080000000077020008790200083D
:100040007B0200087B0200087B0200087B0200089C
:100050007B0200087B0200087B0200087B0200088C
:100060007B0200087B0200087B0200087B0200087C
:100070007B0200087B0200087B0200087B0200086C
:100080007B0200087B0200087B02000800000000E1
:100090000000000000000000000000007B020008DB
:1000A0007B0200087B0200087B0200087B0200083C
:1000B000950300087B0200087B0200087B02000811
:1000C0007B0200087B0200087B0200087B0200081C
:1000D0007B0200087B0200087B0200080000000091
:1000E0001D0300087B0200087B02000800000000DE
:1000F0000000000000000000000000007B0200087B
:10010000000000007B0200087B0200087B02000860
:1001100000000000000000000000000000000000DF
:100120007B0200087B0200087B0200087B020008BB
:100130007B0200080000000000000000000000003A
:100140000000000000000000000000007B0200082A
:100150007B0200087B0200087B0200087B0200088B
:100160007B0200087B020008000000000000000085
:10017000000000000000000000000000000000007F
:10018000000000007B0200080000000000000000EA
:100190007B02000800F002F800F052F814A696E87E
:1001A000000CB244B344DA4501D100F049F8BAE892
:1001B0000F000FA696E83000A5EB040504EB060738
:1001C000AAEB0704A7F101074FEA15154FEA34140B
:1001D000A4F10104AC4201D300F032F813F0010F96
:1001E00018BFFB1A43F0010300F001F8DBE71847E2
:1001F000500C0000700C0000103A24BF78C878C181
:10020000FAD8520724BF30C830C144BF04680C601C
:1002100070470000704700000023002400250026DE
:10022000103A28BF78C1FBD8520728BF30C148BF59
:100230000B6070471FB500F0EFFD1FBD10B510BD7E
:1002400000F031F81146FFF7F5FF00F0ADFB00F0CC
:100250004FF803B4FFF7F2FF03BC00F057F80000BB
:100260000948804709480047FEE7FEE7FEE7FEE74A
:10027000FEE7FEE7FEE7FEE7FEE7FEE70448054986
:10028000054A064B704700008103000895010008ED
:1002900078000020780600207802002078020020F4
:1002A000704770477047754600F02CF8AE46050061
:1002B0006946534620F00700854618B020B5FFF781
:1002C000DDFFBDE820404FF000064FF000074FF083
:1002D00000084FF0000BAC46ACE8C009ACE8C00920
:1002E000ACE8C009ACE8C00921F007018D467047B1
:1002F00010B50446AFF300802046BDE81040FFF77C
:10030000A8BF0000004870470800002001491820DD
:10031000ABBEFEE7260002007047000081B043F646
:100320001440C4F2010000688004002825D5FFE7CE
:1003300043F61441C4F201014FF40050086040F24A
:100340006C00C2F2000000680090009840F20401C6
:10035000C2F200010968401A32280DD3FFE7009865
:1003600040F20401C2F20001086040F26801C2F2EA
:10037000000101200870FFE7FFE701B070470000AF
:100380004EF68851CEF20001086840F47000086013
:10039000704700001020C4F200000068C00778B168
:1003A000FFE71021C4F20001086820F00100086096
:1003B00040F26C01C2F20001086801300860FFE7FA
:1003C0007047000081B08DF803009DF903000028FC
:1003D0000ED4FFE79DF9031001F01F0201209040A9
:1003E0004A094EF20011CEF2000141F82200FFE767
:1003F00001B0704782B08DF8070000919DF90700A9
:1004000000280AD4FFE7009800019DF907104EF27A
:100410000042CEF2000288540BE0009800019DF8E3
:10042000071001F00F014EF61452CEF2000288546C
:10043000FFE702B07047000043F60001C4F202017A
:10044000086840F001000860FFE743F60000C4F2CE
:10045000020000688007002801D4FFE7F5E743F6B3
:100460004001C4F20201086840F08050086047F281
:100470000001C4F20001086840F44040086043F6FF
:100480000041C4F2020140F20270086043F6080124
:10049000C4F2020108684FF6F3429043086008680E
:1004A00040F48050086043F60000C4F20200006887
:1004B000C001002814D5FFE743F60001C4F2020191
:1004C000086820F080700860FFE743F60000C4F27F
:1004D000020000688001002801D5FFE7F5E7FFE78B
:1004E00043F60401C4F2020145F21040C0F201706B
:1004F000086043F60001C4F20201086840F0807011
:100500000860FFE743F60000C4F2020000688001C3
:10051000002801D4FFE7F5E743F60801C4F2020121
:10052000086820F003000860086840F002000860D6
:10053000FFE743F60800C4F20200006800F00C0078
:10054000082801D0FFE7F4E740F20001C2F2000101
:100550004BF60050C0F201500860704780B582B081
:1005600043F64401C4F20201086840F48040086088
:1005700043F61401C4F20101086820F0F00008609D
:10058000086840F02000086043F60041C4F2010111
:10059000086840F40050086043F60841C4F20101C5
:1005A000086820F40050086043F60C41C4F20101D1
:1005B000086840F40050086043F61441C4F2010199
:1005C0004FF400500860282001900221FFF712FF2D
:1005D0000198FFF7F7FE02B080BD000081B040F245
:1005E0007000C2F20000007820B9FFE719208DF8F2
:1005F00003000FE040F27000C2F200000078012812
:1006000004D1FFE732208DF8030003E04B208DF882
:100610000300FFE79DF8030001B0704782B001902E
:1006200000910099012088400199886102B07047CB
:1006300080B582B08DF8070040F20040C4F202009D
:100640000421FFF7EBFF9DF80700000900F000F917
:100650009DF8070000F00F0000F0FAF800F024F910
:1006600002B080BD80B582B000208DF80700FFE7A2
:100670009DF807000F280AD8FFE72020FFF7D8FFD2
:10068000FFE79DF8070001308DF80700F0E702B0A2
:1006900080BD000080B582B08DF8070040F20040B8
:1006A000C4F20200042100F073F99DF8070000096C
:1006B00000F0CEF89DF8070000F00F0000F0C8F839
:1006C0009DF80700012805D0FFE79DF807000228E4
:1006D00004D1FFE7022000F075FB02E000F0E4F82F
:1006E000FFE702B080BD000080B582B08DF8070042
:1006F0008DF806109DF8070030B9FFE79DF8060059
:1007000080308DF8050005E09DF80600C0308DF8BA
:100710000500FFE79DF80500FFF7BCFF02B080BDB4
:1007200080B582B0002101910846FFF7DDFFFFF799
:1007300099FF01990846FFF7D7FF40F63C60C0F6E5
:10074000000000F0C3F840F27000C2F20000007830
:100750003030C0B2FFF76CFF40F63260C0F60000E8
:1007600000F0B4F8FFF73AFF00F0C2F82520FFF7D9
:100770005FFF019901200090FFF7B6FFFFF772FFBE
:1007800000980199FFF7B0FF40F63660C0F6000010
:1007900000F09CF840F26C00C2F20000006800F02B
:1007A000A7F802B080BD000080B582B040F20040E2
:1007B000C4F20200009005210191FFF72FFF00F025
:1007C00073F80098019900F0E3F800F06DF802B0BA
:1007D00080BD000080B584B0322000F0F3FA40F212
:1007E0000040C4F202000090042100F0D1F800980B
:1007F0000521019100F0CCF80320029000F028F8C8
:10080000019800F0DFFA029800F022F8019800F059
:10081000D9FA029800F01CF80120039000F0D2FAF7
:10082000022000F015F8039800F0CCFA2820FFF71A
:1008300031FF0820FFF72EFF0398FFF72BFF06205C
:10084000FFF728FF0C20FFF725FF04B080BD000054
:1008500080B582B08DF807009DF8070000F0010216
:1008600040F20040C4F202000090062100F0BEFAFF
:1008700000989DF80710C1F34002072100F0B6FA76
:1008800000989DF80710C1F38002082100F0AEFA2D
:1008900000989DF80710C1F3C002092100F0A6FAE4
:1008A000FFF782FF02B080BD81B000200090FFE71B
:1008B000009880087C2806D8FFE700BFFFE7009873
:1008C00001300090F4E701B07047000080B582B0BD
:1008D0000190FFE70198007840B1FFE701980078A8
:1008E000FFF7A6FE019801300190F3E702B080BD4A
:1008F00080B586B0059000208DF80900059820B9D4
:10090000FFE73020FFF794FE3FE0FFE70599002066
:10091000019041B1FFE79DF8091000200A2938BF76
:1009200001200190FFE70198C007E0B1FFE70598BB
:100930004CF6CD41CCF6CC41A0FB0132D20802EB03
:100940008202A0EB420040F030009DF809305A1CB2
:100950008DF809200DF10A02D0540598A0FB011072
:10096000C0080590D2E7FFE79DF8090001280CDBDD
:10097000FFE79DF8090001388DF80900C1B20DF1BB
:100980000A00405CFFF754FEEEE706B080BD0000B1
:1009900082B001900091009800F110010120884080
:1009A0000199886102B0704780B58CB00020049036
:1009B0000B9000F0FDF80A90FFF73EFD049943F616
:1009C0003002C4F20202106840F00700106040F2EA
:1009D0000040C4F20200059000F0FEF805980121E5
:1009E000069100F0F9F80598042100F0F5F8059853
:1009F000052100F0F1F80598062100F0EDF80598C2
:100A0000072100F0E9F80598082100F0E5F80598BD
:100A1000092100F0E1F840F60000C4F20200029063
:100A20000D21039100F0CAF80298039900F08AF9A9
:100A300004990598FFF7ACFF05980699FFF7A8FF02
:100A400000F048F900F0E0F8FFF788FDFFF7C2FE7C
:100A5000FFF766FE00F0ACF8099000F0A9F80890E6
:100A600000F088F9FFE700F0A3F8079040F2680073
:100A7000C2F20000007888B3FFE772B640F2680166
:100A8000C2F200010020087062B640F27000C2F2AB
:100A900000000178013101700078032807DBFFE7CF
:100AA00040F27001C2F2000100200870FFE740F23E
:100AB0000040C4F2020001900021FFF769FF019895
:100AC0000121FFF765FF0798099007980A9007989A
:100AD000089000F04FF9FFF723FEFFE740F27000A7
:100AE000C2F200000078D0B9FFE740F20040C4F243
:100AF00002000121FFF74CFF07980999401AB0F551
:100B0000FA7F0BD3FFE70798099040F21441C4F233
:100B10000201086880F001000860FFE73AE040F257
:100B20007000C2F200000078012819D1FFE740F2FE
:100B30000040C4F202000121FFF770FD07980999F7
:100B4000401A64280BD3FFE70798099040F214413C
:100B5000C4F20201086880F001000860FFE718E0B5
:100B600040F20040C4F202000021FFF757FD079851
:100B70000A99401AFA280BD3FFE707980A9040F227
:100B80001441C4F20201086880F002000860FFE727
:100B9000FFE7FFE707980899401AFA2805D3FFE70F
:100BA00007980890FFF7BCFDFFE730BF5BE7000048
:100BB00040F26C00C2F200000068704782B0019001
:100BC000009100984100032000FA01F201990868A1
:100BD0009043086002B0704782B001900091009885
:100BE0004100032000FA01F201990868904308606F
:100BF00000984100012000FA01F2019908681043B1
:100C0000086002B07047000043F63001C4F20201F0
:100C1000086840F00100086043F64001C4F2020198
:100C2000086840F0020008600021C4F20201086870
:100C300020F440500860086840F40050086020210B
:100C4000C4F20201086820F070600860086840F093
:100C50000070086040F20041C4F20001002008600A
:100C600040F22842C4F200025320106040F22C42AD
:100C7000C4F2000240F2E730106040F23442C4F2A5
:100C80000002FA20106040F21842C4F2000210681C
:100C900020F070001060106840F060001060106874
:100CA00040F00800106040F22042C4F200021068D8
:100CB00040F001001060086840F08000086040F2D9
:100CC0001442C4F2000201201060086840F00100E4
:100CD0000860704780B582B043F64001C4F202015B
:100CE000086840F0010008604FF080410191002049
:100CF00008602822C4F20002532111602C22C4F2A1
:100D0000000240F2E73111601422C4F20002012116
:100D100011601022C4F2000210600C22C4F2000222
:100D2000106840F0010010601C200090FFF762FB8B
:100D30000098FFF747FB0199086840F00100086040
:100D400002B080BD82B00190009100984100032064
:100D500000FA01F20199C8689043C8600098410008
:100D6000012000FA01F20199C8681043C86002B07E
:100D70007047000040F27000C2F20000007838B9FD
:100D8000FFE740F23441C4F20001FA20086018E0A5
:100D900040F27000C2F200000078012808D1FFE79D
:100DA00040F23441C4F200014FF4FA70086007E0E9
:100DB00040F23441C4F2000140F2EE200860FFE747
:100DC000FFE7704780B582B00190FFF7F1FE009019
:100DD000FFE7FFF7EDFE0099401A0199884202D221
:100DE000FFE700BFF5E702B080BD000080B584B02A
:100DF000039002918DF807209DF8070028B1FFE7C6
:100E000003980299FFF70AFC04E003980299FFF7A0
:100E1000BFFDFFE704B080BDF1EE100A4FF6FF7191
:100E2000C0F2C03120EA010040F04070E1EE100A4B
:100E3000704720443A005469636B3A0053743A0097
:100E4000600E00080000002008000000F801000803
:100E5000680E000808000020700600001802000854
:080E60000024F400CEFFFFFFA7
:04000005080002618C
:00000001FF
