:020000040800F2
:100000007006002061020008690200086B02000807
:100010006D0200086F020008710200080000000075
:100020000000000000000000000000007302000853
:100030007502000800000000770200087103000844
:100040007B0200087B0200087B0200087B0200089C
:100050007B0200087B0200087B0200087B0200088C
:100060007B0200087B0200087B0200087B0200087C
:100070007B0200087B0200087B0200087B0200086C
:100080007B0200087B0200087B02000800000000E1
:100090000000000000000000000000007B020008DB
:1000A0007B0200087B0200087B0200087B0200083C
:1000B0007B0200087B0200087B0200087B0200082C
:1000C0007B0200087B0200087B0200087B0200081C
:1000D0007B0200087B0200087B0200080000000091
:1000E0007B0200087B0200087B0200080000000081
:1000F0000000000000000000000000007B0200087B
:10010000000000007B0200087B0200087B02000860
:1001100000000000000000000000000000000000DF
:100120007B0200087B0200087B0200087B020008BB
:100130007B0200080000000000000000000000003A
:100140000000000000000000000000007B0200082A
:100150007B0200087B0200087B0200087B0200088B
:100160007B0200087B020008000000000000000085
:10017000000000000000000000000000000000007F
:10018000000000007B0200080000000000000000EA
:100190007B02000800F002F800F052F814A696E87E
:1001A000000CB244B344DA4501D100F049F8BAE892
:1001B0000F000FA696E83000A5EB040504EB060738
:1001C000AAEB0704A7F101074FEA15154FEA34140B
:1001D000A4F10104AC4201D300F032F813F0010F96
:1001E00018BFFB1A43F0010300F001F8DBE71847E2
:1001F0001409000034090000103A24BF78C878C1FF
:10020000FAD8520724BF30C830C144BF04680C601C
:1002100070470000704700000023002400250026DE
:10022000103A28BF78C1FBD8520728BF30C148BF59
:100230000B6070471FB500F049FC1FBD10B510BD25
:1002400000F031F81146FFF7F5FF00F0CBFA00F0AF
:100250004FF803B4FFF7F2FF03BC00F057F80000BB
:100260000948804709480047FEE7FEE7FEE7FEE74A
:10027000FEE7FEE7FEE7FEE7FEE7FEE70448054986
:10028000054A064B704700008103000895010008ED
:100290007000002070060020700200207002002014
:1002A000704770477047754600F02CF8AE46050061
:1002B0006946534620F00700854618B020B5FFF781
:1002C000DDFFBDE820404FF000064FF000074FF083
:1002D00000084FF0000BAC46ACE8C009ACE8C00920
:1002E000ACE8C009ACE8C00921F007018D467047B1
:1002F00010B50446AFF300802046BDE81040FFF77C
:10030000A8BF0000004870470800002001491820DD
:10031000ABBEFEE7260002007047000080B582B049
:10032000009000980138B0F1807F03D3FFE70120EF
:10033000019019E0009801384EF21401CEF200014C
:1003400008604FF0FF300F2100F024F84EF2180142
:10035000CEF20001002008604EF21002CEF2000240
:10036000072111600190FFE7019802B080BD0000F5
:1003700040F26C01C2F20001086801300860704769
:100380004EF68851CEF20001086840F47000086013
:100390007047000082B08DF8070000919DF90700BA
:1003A00000280AD4FFE7009800019DF907104EF2DB
:1003B0000042CEF2000288540BE0009800019DF844
:1003C000071001F00F014EF61452CEF200028854CD
:1003D000FFE702B07047000080B543F60001C4F2A9
:1003E0000201086840F001000860FFE743F60000E2
:1003F000C4F2020000688007002801D4FFE7F5E797
:1004000043F64001C4F20201086840F080500860E1
:1004100047F20001C4F20001086840F4404008605F
:1004200043F60041C4F2020140F20270086043F654
:100430000801C4F2020108684FF6F04290430860D8
:10044000086840F48050086043F60000C4F20200DF
:100450000068C001002814D5FFE743F60001C4F28C
:100460000201086820F080700860FFE743F6000092
:10047000C4F2020000688001002801D5FFE7F5E71B
:10048000FFE743F60401C4F2020145F21040C0F256
:100490000170086043F60001C4F20201086840F0F0
:1004A00080700860FFE743F60000C4F202000068B5
:1004B0008001002801D4FFE7F5E743F60801C4F204
:1004C0000201086820F003000860086840F002009C
:1004D0000860FFE743F60800C4F20200006800F07D
:1004E0000C00082801D0FFE7F4E740F20000C2F258
:1004F00000004BF60051C0F201510160006844F663
:10050000D351C1F26201A0FB01108009FFF706FF81
:1005100080BD000082B001900091009901208840C8
:100520000199886102B0704780B582B08DF80700EC
:1005300040F20040C4F202000421FFF7EBFF9DF8F7
:100540000700000900F0F2F89DF8070000F00F0026
:1005500000F0ECF800F016F902B080BD80B582B072
:1005600000208DF80700FFE79DF807000F280ADC40
:10057000FFE72020FFF7D8FFFFE79DF807000130D5
:100580008DF80700F0E702B080BD000080B582B0B2
:100590008DF8070040F20040C4F20200042100F090
:1005A00015F99DF80700000900F0C0F89DF8070054
:1005B00000F00F0000F0BAF89DF80700012805D000
:1005C000FFE79DF80700022804D1FFE7022000F0B2
:1005D00055FA02E000F0D6F8FFE702B080BD000057
:1005E00080B582B08DF807008DF806109DF80700E1
:1005F00030B9FFE79DF8060080308DF8050005E072
:100600009DF80600C0308DF80500FFE79DF8050055
:10061000FFF7BCFF02B080BD80B584B08DF80F003D
:10062000002102910846FFF7DBFFFFF797FF0299D1
:100630000846FFF7D5FF9DF80F0038B9FFE740F6F1
:10064000E620C0F6000000F0AFF806E040F6EF202C
:10065000C0F6000000F0A8F8FFE70120009000219C
:100660000191FFF7BDFFFFF779FF00980199FFF7B0
:10067000B7FF40F6F820C0F6000000F095F804B08F
:1006800080BD000080B582B040F20040C4F202009C
:10069000009005210191FFF73DFF00F073F80098ED
:1006A000019900F093F800F06DF802B080BD0000F1
:1006B00080B584B0322000F0E1F940F20040C4F28D
:1006C00002000090042100F081F8009805210191BA
:1006D00000F07CF80320029000F028F8019800F068
:1006E000CDF9029800F022F8019800F0C7F90298BD
:1006F00000F01CF80120039000F0C0F9022000F087
:1007000015F8039800F0BAF92820FFF73FFF0820FA
:10071000FFF73CFF0398FFF739FF0620FFF736FF8E
:100720000C20FFF733FF04B080BD000080B582B01D
:100730008DF807009DF8070000F0010240F200402C
:10074000C4F202000090062100F0AAF900989DF87A
:100750000710C1F34002072100F0A2F900989DF8AC
:100760000710C1F38002082100F09AF900989DF863
:100770000710C1F3C002092100F092F9FFF782FFD0
:1007800002B080BD81B000200090FFE70098800893
:100790007C2806D8FFE700BFFFE7009801300090F3
:1007A000F4E701B07047000080B582B00190FFE728
:1007B0000198007840B1FFE701980078FFF7B4FE98
:1007C000019801300190F3E702B080BD82B0019042
:1007D0000091009800F11001012088400199886182
:1007E00002B0704780B588B0002001900790FFF7F5
:1007F000F3FD019943F63002C4F20202106840F0A2
:100800000700106040F20040C4F20200029000F0C5
:10081000C3F80298012100F0BFF80298042100F00B
:10082000BBF80298052100F0B7F80298062100F005
:10083000B3F80298072100F0AFF80298082100F001
:10084000ABF80298092100F0A7F840F60000C4F2C6
:10085000020003900D21049100F090F80398049990
:1008600000F0F4F8FFF724FF40F26900C2F2000044
:100870000078FFF7D1FE00F07BF8069000F078F8E2
:100880000590FFE700F0A0F890B1FFE740F26900A3
:10089000C2F20000017881F0010101700078FFF7D9
:1008A000BBFE00F065F8069000F062F80590FFE7E7
:1008B00040F26900C2F20000007860BBFFE740F23E
:1008C0000040C4F202000121FFF780FF00F050F861
:1008D0000699401AB0F5FA7F1CD9FFE700F048F8F6
:1008E000069040F21440C4F202000068C00740B114
:1008F000FFE740F20040C4F202000021FFF766FF6C
:1009000007E040F20040C4F202000021FFF702FEBF
:10091000FFE7FFE72BE040F20040C4F202000021B5
:10092000FFF7F8FD00F024F80599401AFB281DD3C5
:10093000FFE700F01DF8059040F21440C4F20200F9
:1009400000688007002808D5FFE740F20040C4F2A5
:1009500002000121FFF73AFF07E040F20040C4F235
:1009600002000121FFF7D6FDFFE7FFE7FFE789E778
:1009700040F26C00C2F200000068704782B0019043
:10098000009100984100032000FA01F201990868E3
:100990009043086002B0704782B0019000910098C7
:1009A0004100032000FA01F20199086890430860B1
:1009B00000984100012000FA01F2019908681043F3
:1009C000086002B07047000080B582B040F61000A9
:1009D000C4F20200006800F40051012080EA5130A6
:1009E0008DF8060040F26800C2F200000078D0B92D
:1009F000FFE79DF80600B0B1FFE7282000F03EF8C1
:100A000040F61000C4F2020000688004002809D4F7
:100A1000FFE740F26801C2F20001012008708DF882
:100A200007000FE0FFE79DF8060038B9FFE740F246
:100A30006801C2F2000100200870FFE700208DF875
:100A40000700FFE79DF8070002B080BD82B001906B
:100A5000009100984100032000FA01F20199C86852
:100A60009043C86000984100012000FA01F201990A
:100A7000C8681043C86002B07047000080B582B0FB
:100A80000190FFF775FF0090FFE7FFF771FF0099F6
:100A9000401A0199884201D2FFE7F6E702B080BD13
:100AA00080B584B0039002918DF807209DF807006F
:100AB00028B1FFE703980299FFF72CFD04E00398A3
:100AC0000299FFF783FEFFE704B080BDF1EE100A44
:100AD0004FF6FF71C0F2C03120EA010040F04070D3
:100AE000E1EE100A70474D6F6465203A2030004DEA
:100AF0006F6465203A2031004857332052656164A5
:100B000079000000240B0008000000200400000011
:100B1000F8010008280B0008080000206806000003
:080B2000180200080024F40093
:04000005080002618C
:00000001FF
