:020000040800F2
:10000000E808002061020008690200086B0200088D
:100010006D0200086F020008710200080000000075
:100020000000000000000000000000007302000853
:10003000750200080000000077020008790200083D
:100040007B0200087B0200087B0200087B0200089C
:100050007B0200087B0200087B0200087B0200088C
:100060007B0200087B0200087B0200087B0200087C
:100070007B0200087B0200087B0200087B0200086C
:100080007B0200087B0200087B02000800000000E1
:100090000000000000000000000000007B020008DB
:1000A0007B0200087B0200087B0200087B0200083C
:1000B000950300087B0200087B0200087B02000811
:1000C0007B0200087B0200087B0200087B0200081C
:1000D0007B0200087B020008C50300080000000046
:1000E0001D0300087B0200087B02000800000000DE
:1000F0000000000000000000000000007B0200087B
:10010000000000007B0200087B0200087B02000860
:1001100000000000000000000000000000000000DF
:100120007B0200087B0200087B0200087B020008BB
:100130007B0200080000000000000000000000003A
:100140000000000000000000000000007B0200082A
:100150007B0200087B0200087B0200087B0200088B
:100160007B0200087B020008000000000000000085
:10017000000000000000000000000000000000007F
:10018000000000007B0200080000000000000000EA
:100190007B02000800F002F800F052F814A696E87E
:1001A000000CB244B344DA4501D100F049F8BAE892
:1001B0000F000FA696E83000A5EB040504EB060738
:1001C000AAEB0704A7F101074FEA15154FEA34140B
:1001D000A4F10104AC4201D300F032F813F0010F96
:1001E00018BFFB1A43F0010300F001F8DBE71847E2
:1001F000D8150000F8150000103A24BF78C878C15F
:10020000FAD8520724BF30C830C144BF04680C601C
:1002100070470000704700000023002400250026DE
:10022000103A28BF78C1FBD8520728BF30C148BF59
:100230000B6070471FB501F098FA1FBD10B510BDD7
:1002400000F031F81146FFF7F5FF00F02DFE00F049
:100250004FF803B4FFF7F2FF03BC00F057F80000BB
:100260000948804709480047FEE7FEE7FEE7FEE74A
:10027000FEE7FEE7FEE7FEE7FEE7FEE70448054986
:10028000054A064B704700008103000895010008ED
:10029000E8020020E8080020E8040020E80400202C
:1002A000704770477047754600F02CF8AE46050061
:1002B0006946534620F00700854618B020B5FFF781
:1002C000DDFFBDE820404FF000064FF000074FF083
:1002D00000084FF0000BAC46ACE8C009ACE8C00920
:1002E000ACE8C009ACE8C00921F007018D467047B1
:1002F00010B50446AFF300802046BDE81040FFF77C
:10030000A8BF0000004870471800002001491820CD
:10031000ABBEFEE7260002007047000081B043F646
:100320001440C4F2010000688004002825D5FFE7CE
:1003300043F61441C4F201014FF40050086040F24A
:100340009420C2F2000000680090009840F204017E
:10035000C2F200010968401A32280DD3FFE7009865
:1003600040F20401C2F20001086040F29021C2F2A2
:10037000000101200870FFE7FFE701B070470000AF
:100380004EF68851CEF20001086840F47000086013
:10039000704700001020C4F200000068C00778B168
:1003A000FFE71021C4F20001086820F00100086096
:1003B00040F29421C2F20001086801300860FFE7B2
:1003C0007047000081B044F20040C4F200000068B1
:1003D0000006002837D5FFE744F20C40C4F20000C5
:1003E0000068000600282ED5FFE740F2A020C2F2E8
:1003F0000000006840F2A421C2F200010988405CBC
:100400008DF803009DF8030078B1FFE79DF8030025
:1004100044F20441C4F20001086040F2A421C2F297
:1004200000010888013008800CE044F20C41C4F25D
:100430000001086820F080000860086840F0400073
:100440000860FFE7FFE744F20040C4F200000068E4
:100450004006002818D5FFE744F20C40C4F2000023
:100460000068400600280FD5FFE744F20C41C4F2B3
:100470000001086820F04000086040F29C21C2F2B0
:10048000000100200870FFE701B0704781B08DF8CF
:1004900003009DF9030000280ED4FFE79DF9031027
:1004A00001F01F02012090404A094EF20011CEF2E5
:1004B000000141F82200FFE701B0704782B08DF8DB
:1004C000070000919DF9070000280AD4FFE7009873
:1004D00000019DF907104EF20042CEF2000288544E
:1004E0000BE0009800019DF8071001F00F014EF697
:1004F0001452CEF200028854FFE702B070470000A9
:1005000080B582B043F63001C4F20201086840F0C1
:100510000100086043F64401C4F20201086840F497
:10052000807008600021C4F20201086820F0030016
:100530000860086840F0030008600C21C4F2020162
:10054000086820F00300086042F20431C4F201019F
:10055000086820F440300860086840F48030086083
:1005600042F20401C4F2010100200090086042F24E
:100570000802C4F20102106042F22C0EC4F2010E15
:10058000CEF8000042F23001C4F20101086042F2EC
:100590003401C4F20101086042F20C03C4F2010309
:1005A000186042F21003C4F201031860DEF800C0C4
:1005B0002CF4700CCEF800C00860196841F00701F7
:1005C0001960116841F48061116042F20001C4F2C7
:1005D00001010860116841F0010111600190FFE71D
:1005E0000198C0087C2806D8FFE700BFFFE7019804
:1005F00001300190F4E702B080BD000084B042F207
:100600001070029042F20000C4F2010000688007FE
:10061000002808D5FFE742F24C00C4F20100006850
:1006200001900198FFE742F20001C4F201010020AD
:10063000086042F20801C4F20101086840F08040FD
:100640000860FFE742F20000C4F2010001680020E8
:1006500089070029009006D4FFE70298002818BFF8
:1006600001200090FFE70098C00720B1FFE7029843
:1006700001380290E6E7029878B9FFE740F28C2152
:10068000C2F2000108680130086040F27800C2F24E
:1006900000000088ADF80E0015E042F24C00C4F2F4
:1006A000010001686FF31F3140F27800C2F20000D0
:1006B0000180018840F28822C2F200021180008885
:1006C000ADF80E00FFE7BDF80E0004B07047000063
:1006D00085B0ADF81200002003900290ADF806003E
:1006E000FFE7BDF806007F2821D8FFE7BDF812001C
:1006F000BDF80610014440F28400C2F2000030F858
:1007000011006FF31F300090009903980844039084
:1007100000980299884203D9FFE700980290FFE70A
:10072000FFE7BDF806000130ADF80600D9E70398F1
:10073000C10940F27C00C2F200000160029940F25F
:100740008422C2F20002116040F28002C2F2000272
:10075000116880311160006840F6E441414340F285
:100760000110C0F21000A1FB0020091A00EB51009B
:10077000C00A40F29821C2F20001086005B070473B
:1007800081B0ADF80200BDF802106FF31F3140F2E6
:100790007A00C2F20000038840F28402C2F2000232
:1007A00022F813100188013101800088802807D1C8
:1007B000FFE740F29221C2F2000101200870FFE73A
:1007C00040F27A00C2F200000088B0F5807F0DD3BD
:1007D000FFE740F29121C2F200010120087040F2CF
:1007E0007A01C2F2000100200880FFE701B07047E3
:1007F00043F60001C4F20201086840F001000860FD
:10080000FFE743F60000C4F20200006880070028FA
:1008100001D4FFE7F5E743F64001C4F2020108689E
:1008200040F08050086047F20001C4F200010868FF
:1008300040F44040086043F60041C4F2020140F237
:100840000270086043F60801C4F2020108684FF61E
:10085000F34290430860086840F48050086043F613
:100860000000C4F202000068C001002814D5FFE7B0
:1008700043F60001C4F20201086820F080700860AD
:10088000FFE743F60000C4F2020000688001002880
:1008900001D5FFE7F5E7FFE743F60401C4F20201E3
:1008A00045F21040C0F20170086043F60001C4F246
:1008B0000201086840F080700860FFE743F600001E
:1008C000C4F2020000688001002801D4FFE7F5E7C8
:1008D00043F60801C4F20201086820F00300086032
:1008E000086840F002000860FFE743F60800C4F221
:1008F0000200006800F00C00082801D0FFE7F4E7D0
:1009000040F20001C2F200014BF60050C0F201506B
:100910000860704780B582B043F64401C4F202011A
:10092000086840F48040086043F61401C4F20101F5
:10093000086820F0F0000860086840F020000860B7
:1009400043F60041C4F20101086840F40050086019
:1009500043F60841C4F20101086820F40050086021
:1009600043F60C41C4F20101086840F400500860ED
:1009700043F61441C4F201014FF4005008602820EE
:1009800001900221FFF79AFD0198FFF77FFD02B069
:1009900080BD000080B582B08DF8070040F20040B5
:1009A000C4F20200042100F047FC9DF80700000992
:1009B00000F058F99DF8070000F00F0000F052F920
:1009C00000F07CF902B080BD80B582B08DF80700E0
:1009D0009DF807000021009100F040F800988DF884
:1009E0000600FFE79DF806000F280AD8FFE7202041
:1009F000FFF7D0FFFFE79DF8060001308DF80600F5
:100A0000F0E702B080BD000080B582B08DF807002D
:100A100040F20040C4F20200042100F025FC9DF8E1
:100A20000700000900F01EF99DF8070000F00F0014
:100A300000F018F99DF80700012805D0FFE79DF8A0
:100A40000700022804D1FFE7022000F07BFE02E04D
:100A500000F034F9FFE702B080BD000080B582B03D
:100A60008DF807008DF806109DF8070030B9FFE7F4
:100A70009DF8060080308DF8050005E09DF8060021
:100A8000C0308DF80500FFE79DF80500FFF7BCFFBB
:100A900002B080BD80B584B08DF80F009DF80F00C6
:100AA00040BBFFE740F21000C2F20000006840F2D5
:100AB0009821C2F20001096888421BD1FFE740F289
:100AC0000800C2F20000006840F27C01C2F200019E
:100AD000096888420ED1FFE740F20C00C2F2000024
:100AE000006840F28001C2F200010968884201D129
:100AF000FFE760E09DF80F0078B1FFE7002002906B
:100B0000FFF762FF02990846FFF7A8FF41F2B970AC
:100B1000C0F6000000F0E4F8FFE701200190FFF7C5
:100B200053FF01980021FFF799FF40F28000C2F2C5
:100B30000000006838B9FFE741F28470C0F6000099
:100B400000F0CEF818E041F29570C0F6000000F019
:100B5000C7F800F083F94320FFF71CFF41F29B70B8
:100B6000C0F6000000F0BCF840F27C00C2F20000C9
:100B7000006800F0C7F8FFE740F29820C2F20000DA
:100B8000006840F21001C2F20001086040F27C00EF
:100B9000C2F20000006840F20801C2F200010860E1
:100BA00040F28000C2F20000006840F20C01C2F284
:100BB00000010860FFE704B080BD000080B582B08E
:100BC00040F20040C4F2020000900521019100F0C3
:100BD00033FB00F073F80098019900F045FB00F03A
:100BE0006DF802B080BD000080B584B0322000F006
:100BF000A9FD40F20040C4F202000090042100F080
:100C000033FB00980521019100F02EFB0320029098
:100C100000F028F8019800F095FD029800F022F805
:100C20000120039000F08EFD029800F01BF803985D
:100C300000F088FD022000F015F8039800F082FD16
:100C40002820FFF7E1FE0820FFF7DEFE0398FFF7FC
:100C5000DBFE0620FFF7D8FE0C20FFF7D5FE04B020
:100C600080BD000080B582B08DF807009DF80700B8
:100C700000F0010240F20040C4F2020000900621A0
:100C800000F02EFB00989DF80710C1F340020721E9
:100C900000F026FB00989DF80710C1F380020821A0
:100CA00000F01EFB00989DF80710C1F3C002092157
:100CB00000F016FBFFF782FF02B080BD81B000207C
:100CC0000090FFE7009880087C2806D8FFE700BF67
:100CD000FFE7009801300090F4E701B07047000092
:100CE00080B582B00190FFE70198007840B1FFE73E
:100CF00001980078FFF74EFE019801300190F3E76C
:100D000002B080BD80B584B00390039A41F259705F
:100D1000CDF2B710A2FB0010400B42F2107100FBA5
:100D200011200390039844F6D351C1F26201A0FB55
:100D30000110800949F69A11C1F699110191A0FBA1
:100D4000012101EB8101A0EB410040F03000FFF7F1
:100D500021FE0199039848F21F52C5F2EB12A0FB45
:100D600002204009A0FB012101EB8101A0EB410021
:100D700040F03000FFF70EFE019903984CF6CD428B
:100D8000CCF6CC420292A0FB0220C008A0FB0121BD
:100D900001EB8101A0EB410040F03000FFF7FAFDCC
:100DA00002990398A0FB0121C90801EB8101A0EB86
:100DB000410040F03000FFF7EDFD04B080BD0000C1
:100DC00080B586B0059000208DF80900059820B9FF
:100DD000FFE73020FFF7DEFD3EE0FFE7059900204A
:100DE000019041B1FFE79DF8091000200A2938BFA2
:100DF00001200190FFE70198C007E0B1FFE70598E7
:100E00004CF6CD41CCF6CC41A0FB0132D20802EB2E
:100E10008202A0EB420040F030009DF809305A1CDD
:100E20008DF809200DF10A02D0540598A0FB01109D
:100E3000C0080590D2E7FFE79DF8090060B1FFE721
:100E40009DF8090001388DF80900C1B20DF10A00C2
:100E5000405CFFF79FFDEFE706B080BD80B582B034
:100E600040F29820C2F20000009000684CF6CD419C
:100E7000CCF6CC410191A0FB0110C008FFF7A0FF08
:100E80002E20FFF787FD009801990068A0FB012143
:100E9000C90801EB8101A0EB410040F03000FFF7F1
:100EA00079FD02B080BD000080B590B000200590B3
:100EB0000F90FFF79DFC059943F63002C4F2020241
:100EC000106840F00700106040F20040C4F20200D9
:100ED000069000F0D5F906980121079100F0D0F9AD
:100EE0000698042100F0CCF90698052100F0C8F915
:100EF0000698062100F0C4F90698072100F0C0F911
:100F00000698082100F0BCF90698092100F0B8F90C
:100F100040F60000C4F2020003900D21049100F09D
:100F200095F90398049900F0C3F90599069800F023
:100F30009BF90698079900F097F900F067FA00F01E
:100F4000E5F9FFF7E7FC00F073FBFFF7D9FAFFF7CD
:100F50004BFE0798FFF79EFD00F002F90E9000F09F
:100F6000FFF80D9000F0FCF80C9000F0F9F80B90F1
:100F700000F0F6F80A9000F033FBFFE700F0F0F81D
:100F8000099009980A99401A0A280BD3FFE7099893
:100F90000A90FFF733FBADF82000BDF82000FFF703
:100FA000EFFBFFE740F29220C2F20000007878B138
:100FB000FFE772B640F29221C2F2000100200290D7
:100FC000087062B6FFF784FB0298FFF763FDFFE746
:100FD00040F29120C2F20000007880B1FFE772B6C3
:100FE00040F29121C2F2000100200190087062B627
:100FF0008020FFF76DFB0198FFF74CFDFFE740F203
:101000008000C2F20000006860B1FFE709980B9908
:10101000401AB0F5FA7F05D3FFE709980B9000F06E
:101020002DFAFFE772B640F29021C2F20001087873
:101030008DF823000020087062B69DF8230028B3C5
:10104000FFE740F2A620C2F20000017801310170F2
:101050000078032807D3FFE740F2A621C2F200017F
:1010600000200870FFE740F20040C4F20200009048
:10107000002100F0F9F80098012100F0F5F8099836
:101080000E9009980D9000F0ABFAFFE740F2A62011
:10109000C2F200000078D0B9FFE740F20040C4F28D
:1010A0000200012100F0E0F809980E99401AB0F50D
:1010B000FA7F0BD3FFE709980E9040F21441C4F277
:1010C0000201086880F001000860FFE73AE040F2A2
:1010D000A620C2F200000078012819D1FFE740F2F3
:1010E0000040C4F20200012100F0A6F809980E9910
:1010F000401A64280BD3FFE709980E9040F2144180
:10110000C4F20201086880F001000860FFE718E0FF
:1011100040F20040C4F20200002100F08DF809986E
:101120000D99401AFA280BD3FFE709980D9040F269
:101130001441C4F20201086880F002000860FFE771
:10114000FFE7FFE709980C99401AFA2806D3FFE752
:1011500009980C900020FFF79DFCFFE730BF0DE7DA
:1011600040F29420C2F200000068704788B00690F8
:10117000ADF81610049200208DF80500049868B9A7
:10118000FFE70699BDF81620501CADF81600302078
:101190008854BDF81600ADF81E0048E0FFE704993A
:1011A0000020009041B1FFE79DF8051000200A29BA
:1011B00038BF01200090FFE70098C007E0B1FFE7CB
:1011C00004984CF6CD41CCF6CC41A0FB0132D208BC
:1011D00002EB8202A0EB420040F030009DF80530A7
:1011E0005A1C8DF805200DF10602D0540498A0FB7E
:1011F0000110C0080490D2E7FFE79DF8050088B110
:10120000FFE79DF8050001388DF80500C1B20DF12A
:101210000600405C0699BDF81620531CADF8163048
:101220008854EAE7BDF81600ADF81E00FFE7BDF8E8
:101230001E0008B07047000082B001900091009934
:10124000012088400199886102B0704782B0019006
:10125000009100984100032000FA01F2019908680A
:101260009043086002B0704782B0019000910098EE
:1012700000F11001012088400199886102B0704797
:1012800082B00190009100984100032000FA01F221
:10129000019908689043086000984100012000FA15
:1012A00001F2019908681043086002B0704700001D
:1012B00082B00190009100984100032000FA01F2F1
:1012C0000199C8689043C86000984100012000FA65
:1012D00001F20199C8681043C86002B0704700006D
:1012E00080B584B0039002918DF807209DF8070027
:1012F00028B1FFE703980299FFF79EFF04E00398E7
:101300000299FFF7B1FFFFE704B080BD43F630015B
:10131000C4F20201086840F00100086043F6400191
:10132000C4F20201086840F0020008600021C4F223
:101330000201086820F440500860086840F400503A
:1013400008602021C4F20201086820F07060086083
:10135000086840F00070086040F20041C4F20001EB
:101360000020086040F22842C4F2000253201060BE
:1013700040F22C42C4F2000240F2E730106040F22A
:101380003442C4F20002FA20106040F21842C4F263
:101390000002106820F070001060106840F06000DB
:1013A0001060106840F00800106040F22042C4F263
:1013B0000002106840F001001060086840F08000F2
:1013C000086040F21442C4F2000201201060086874
:1013D00040F001000860704783B00290ADF806103D
:1013E0000092FFE70098007860B1FFE70098411C89
:1013F000009100780299BDF80620531CADF8063024
:101400008854EFE7BDF8060003B0704780B582B09E
:1014100043F64001C4F20201086840F00100086090
:101420004FF080410191002008602822C4F20002A0
:10143000532111602C22C4F2000240F2E731116006
:101440001422C4F20002012111601022C4F2000231
:1014500010600C22C4F20002106840F0010010601D
:101460001C200090FFF72AF80098FFF70FF8019969
:10147000086840F00100086002B080BD80B588B007
:101480000020ADF81E0040F29C20C2F2000000785F
:1014900008B1FFE7A2E072B640F27C00C2F20000A1
:1014A0000068069040F28420C2F2000000680590B7
:1014B00040F28000C2F200000068049040F28820F0
:1014C000C2F200000088039040F28C20C2F20000BB
:1014D0000068029062B6BDF81E1040F2A720C2F26A
:1014E0000000019041F29872C0F60002FFF774FF0D
:1014F00001460198ADF81E10BDF81E10069AFFF7C0
:1015000035FE01460198ADF81E10BDF81E1041F2DF
:10151000B372C0F60002FFF75FFF01460198ADF815
:101520001E10BDF81E10059AFFF720FE0146019817
:10153000ADF81E10BDF81E1041F2A772C0F60002F1
:10154000FFF74AFF01460198ADF81E10BDF81E10C6
:10155000049AFFF70BFE01460198ADF81E10BDF886
:101560001E1041F2AD72C0F60002FFF735FF0146D2
:101570000198ADF81E10BDF81E10039AFFF7F6FD96
:1015800001460198ADF81E10BDF81E1041F2A1727F
:10159000C0F60002FFF720FF01460198ADF81E10CB
:1015A000BDF81E10029AFFF7E1FD01460198ADF863
:1015B0001E10BDF81E20511CADF81E100D218154C7
:1015C000BDF81E20511CADF81E100A218154BDF833
:1015D0001E200021815400F083F8FFE708B080BD91
:1015E00040F2A620C2F20000007838B9FFE740F2CE
:1015F0003441C4F20001FA20086018E040F2A6204D
:10160000C2F200000078012808D1FFE740F234411F
:10161000C4F200014FF4FA70086007E040F2344170
:10162000C4F2000140F2EE200860FFE7FFE77047D8
:1016300080B582B043F63001C4F20201086840F080
:101640000100086043F64001C4F20201086840F45A
:10165000003008600021C4F20201086820F0F000A8
:101660000860086840F0A00008602021C4F2020170
:10167000086820F47F400860086840F4EE40086085
:1016800044F20841C4F2000141F21710086044F22C
:101690000C41C4F2000101910020086044F21042A4
:1016A000C4F20002106044F21442C4F2000210605E
:1016B000086840F008000860086840F0040008600E
:1016C000262000900421FEF7F9FE0098FEF7DEFECA
:1016D0000199086840F40050086002B080BD000025
:1016E00082B00090009838B1FFE740F29C20C2F22F
:1016F0000000007820B1FFE700208DF807001CE013
:10170000009840F2A021C2F20001086040F2A4213A
:10171000C2F200010020088040F29C21C2F20001C8
:101720000120087044F20C42C4F20002116841F03A
:10173000800111608DF80700FFE79DF8070002B0F7
:101740007047000080B582B00190FFF709FD00905E
:10175000FFE7FFF705FD0099401A0199884202D280
:10176000FFE700BFF5E702B080BDF1EE100A4FF6CB
:10177000FF71C0F2C03120EA010040F04070E1EE9C
:10178000100A7047543D2D2D2E2D43206176673D64
:101790002D2D2D2D00543D00444D41206176673D97
:1017A00000206572723D0020636E743D00207261FE
:1017B000773D00206D61783D00444D41204857360B
:1017C0002052656164790000E817000800000020DD
:1017D00014000000F8010008FC17000818000020A1
:1017E000D0080000180200080024F400CEFFFFFF1C
:0C17F000FFFFFFFFFFFFFFFFFFFFFFFFF9
:04000005080002618C
:00000001FF
