:020000040800F2
:10000000A808002069020008F92C0008752B0008D8
:10001000592C000849070008B93400080000000006
:10002000000000000000000000000000412F000858
:100030004D07000800000000FD2C0008F13000080A
:10004000830200088302000883020008830200087C
:10005000830200088302000883020008830200086C
:10006000830200088302000883020008830200085C
:10007000830200088302000883020008830200084C
:1000800083020008830200088302000800000000C9
:100090000000000000000000000000005107000800
:1000A000830200088302000883020008830200081C
:1000B00083020008AD3100088302000883020008B3
:1000C00083020008830200088302000883020008FC
:1000D0008302000883020008AD340008000000001D
:1000E0008302000883020008830200080000000069
:1000F0000000000000000000000000008302000873
:100100000000000083020008830200088302000848
:1001100000000000000000000000000000000000DF
:10012000830200088302000883020008830200089B
:100130008302000800000000000000000000000032
:100140000000000000000000000000008302000822
:10015000830200088302000883020008830200086B
:100160008302000883020008000000000000000075
:10017000000000000000000000000000000000007F
:1001800000000000830200080000000000000000E2
:100190008302000800F002F800F057F814A696E871
:1001A000000CB244B344DA4501D100F04EF8BAE88D
:1001B0000F000FA696E83000A5EB040504EB060738
:1001C000AAEB0704A7F101074FEA15154FEA34140B
:1001D000A4F10104AC4201D300F037F813F0010F91
:1001E00018BFFB1A43F0010300F001F8DBE71847E2
:1001F0007C3A00009C3A0000103A24BF78C878C1CD
:10020000FAD8520724BF30C830C144BF04680C601C
:1002100070470000704700000023002400250026DE
:10022000103A28BF78C1FBD8520728BF30C148BF59
:100230000B607047752900F0C380002070471FB520
:1002400003F0A0FC1FBD10B510BD00F042FA11462E
:10025000FFF7F5FF03F032F900F060FA03B4FFF79F
:10026000F2FF03BC00F068FA0948804709480047DC
:10027000FEE7FEE7FEE7FEE7FEE7FEE7FEE7FEE756
:10028000FEE7FEE704480549054A064B70470000B3
:100290009931000895010008A8020020A808002054
:1002A000A8040020A804002053EA020C00F0698092
:1002B0002DE9F04B4FF00006002B1FBFB3FA83F57A
:1002C00003FA05F424FA05F65E4012BF1643B2FAAB
:1002D00082F502FA05F4C5F120051EBF22FA05FCDD
:1002E00044EA0C04203556EA044C4FEA144418BF83
:1002F000641C4FF000084FF00009904271EB030CB2
:1003000039D3002919BFB1FA81F701FA07F6B0FA1B
:1003100080F700FA07F6C7F120071EBF20FA07FC96
:1003200046EA0C062037B6FBF4FCA7EB0507103FA6
:1003300007F01F0BCBF120062CFA06F60CFA0BFB8C
:1003400044BFB3460026202FA4BF5E464FF0000BEB
:100350005BEA060C08BF4FF0010B19EB0B0948EBE9
:100360000608ABFB027C06FB02CC0BFB03CCC01BDC
:1003700071EB0C01C1E70B46024641464846BDE819
:10038000F08B13B5084318BF4FF0FF300146AFF3B1
:100390000080BDE81C4070470FB41CB5074B06AA8F
:1003A0007B4469460090059800F07BF9002069467F
:1003B00000F08AF91CBC5DF814FB00002503000066
:1003C0002DE9F0410646002410687529314616A52E
:1003D00010D0AFF30080002802DA404213A507E0F6
:1003E00031688A0701D512A502E0490704D511A595
:1003F000012401E0AFF3008000210A2206F1240766
:1004000009E0B0FBF2FCB0FBF2F302FB1C00303061
:1004100078541846491C0028F3D123462A46304612
:10042000BDE8F04100F0DFB8000000002D00000042
:100430002B000000200000002DE9F0410F4605468A
:10044000002028622846E968884770B3252805D02F
:10045000D5E901219047286A401CF2E7E96828465F
:10046000002688476C2804460AD0682C08D04C2CFB
:1004700035D06A2C31D0742C31D07A2C2FD016E0A4
:10048000E968064628468847B042044608D16C2EE3
:1004900023D04FF480662846E9688847044606E082
:1004A0006C2E03D04FF4807601E01EE04026E4B1CC
:1004B000A4F14100192802D8203446F400663A46D7
:1004C000214628462E60FFF7B5FE60B1012808D00E
:1004D000FF1D27F007070837B4E78026DBE7002673
:1004E000D9E73F1DAEE72046B2E7286ABDE8F081B4
:1004F00010B5431C02E010F8011B71B18107FAD15D
:100500004FF0013202C88C1A8C4314EAC211F9D0A0
:10051000C01A0A0603D0C01E10BDC01A10BD0A04BE
:1005200001D0801E10BD0902FCD0401E10BD10B5C8
:10053000203AC0F00B80B1E81850A0E81850B1E89C
:100540001850A0E81850203ABFF4F5AF5FEA027CDB
:1005500024BFB1E81850A0E8185044BF18C918C00B
:10056000BDE810405FEA827C24BF51F8043B40F8AC
:10057000043B08BF7047D20728BF31F8023B48BF91
:1005800011F8012B28BF20F8023B48BF00F8012BCF
:1005900070474FF0000200B5134694469646203946
:1005A00022BFA0E80C50A0E80C50B1F12001BFF42C
:1005B000F7AF090728BFA0E80C5048BF0CC05DF892
:1005C00004EB890028BF40F8042B08BF704748BFE0
:1005D00020F8022B11F0804F18BF00F8012B704754
:1005E0007047704770472DE9F0470D46994692468F
:1005F000044600F124080168880604D5E06921F06A
:100600001001216000E00120A84201DD471B00E04D
:100610000027A1697A1902EB0900081AA061207865
:10062000C00602D42046AFF30080002608E0D4E9DB
:1006300001211AF806009047206A401C761C2062AF
:100640004E45F4DB2078C0060AD52046AFF3008083
:1006500006E0D4E9012130209047206A401C206246
:10066000381EA7F10107F4DC07E0D4E9012118F8EE
:1006700005009047206A401C2062281EA5F1010554
:10068000F3DC2046AFF300802078000602D502207C
:10069000BDE8F0870120FBE701694A1C0261087888
:1006A000704700B58FB0CDE90131002105910549B2
:1006B0007944CDE9031011466846FFF7BDFE0FB03F
:1006C00000BD0000E5FFFFFF0A6802F8010B0A60A9
:1006D0007047754600F02CF8AE4605006946534653
:1006E00020F00700854618B020B5FFF7CBFDBDE828
:1006F00020404FF000064FF000074FF000084FF089
:10070000000BAC46ACE8C009ACE8C009ACE8C009D5
:10071000ACE8C00921F007018D46704710B50446CA
:10072000AFF300802046BDE81040FFF797BD000002
:10073000004870471000002001491820ABBEFEE7BA
:100740002600020070470000FEE70000704700002E
:10075000402000F085BC000070B581B000220092FE
:1007600090F83C20012A03D1022001B070BD00BFE7
:10077000D1F800E001221FFA8EFC4FEA4C0380F80A
:100780003C200EEB4E0213FA8EF31024BEF1090F3B
:1007900088BFA3F11E0288BF0C24036807251E59D9
:1007A000954026EA05051D518D681E5905FA02F28D
:1007B00032431A514968062906D801EB81014A1FC4
:1007C000194651F8345F0EE00C2901EB810105D880
:1007D000A1F12302194651F8305F04E0A1F1410272
:1007E000194651F82C5F1F24944025EA04040C603C
:1007F0000CFA02F20C6842F2043CC4F2010C2243EF
:10080000ACF54174A3420A603ED1BEF1120F07D18C
:10081000DCF8001041F48001CCF8001034E000BF97
:100820002EF0010110292FD1DCF80010BEF1100FBD
:1008300041F40001CCF8001026D140F20801C2F2C8
:10084000000109684DF68362C4F21B32A1FB02125B
:10085000910C01EB8101490000910099A1B100992F
:1008600001390091009979B10099013900910099FD
:1008700051B1009901390091009929B100990139CC
:10088000009100990029EAD1002180F83C10002055
:1008900001B070BD0068C06C70470000002804BF44
:1008A0000120704710B5016C00293DD0016CC906CC
:1008B00045D4016C41F202129143023142F20432FA
:1008C0000164C4F20102116821F44031116013681F
:1008D00090E812102343D0F810E013604A68012416
:1008E00022F480724A604A68C0F6007442EA0E221E
:1008F0004A604A6822F040724A604A6842EA0C0242
:100900004A608A6822F400628A60C2688B681A436F
:100910008A60826A8B68A24223F070638B608B6866
:1009200010D123F0405216E0044600F065F820464E
:100930000021616484F83C10016CC906B9D501211D
:1009400053E000BF1A438A608A6822F040528A60EE
:10095000C26A8B681A438A608A6822F002028A603F
:100960008A68037E90F8204042EA43028A604A681F
:1009700084B142F400624A604A684EF2000322F4F5
:1009800060424A60426ACFF6FF734C6803EB423222
:10099000224301E022F400624A60CA6A40F2000C7D
:1009A00022F47002CA62C3694269CFF6F07CCC6A55
:1009B0000CEB03532343CB628B6823F400738B60EF
:1009C00090F830308C6844EA43238B608B6823F4C2
:1009D00080638B608B6843EA82228A6000214164D5
:1009E000026C012363F301020264002280F83C20C0
:1009F000BDE810400846704780B586B042F200015D
:100A00000068C4F20101002288420592CDE9032268
:100A10000292019202D006B080BD00BF43F63000C2
:100A20000092C4F20200436943F480734361436956
:100A300003F480730093009B0092036843F001036A
:100A40000360006800F00100009000980120019010
:100A50000320CDE9020201F5604001A900F00CFB82
:100A600006B080BD70B5044600680D468268520528
:100A700044BF80685FEAC05038D400F0D9FB2168D9
:100A80000A68920749D40646681C3CD0DDB908685C
:100A9000800721D5086880073FD4086880071BD5E8
:100AA0000868800739D40868800715D5086880076A
:100AB00033D4086880070FD508688007E7D52CE095
:100AC0000868800729D400F0B3FB801B2168A84286
:100AD000F6D908688007F3D4206C40F00400206445
:100AE000002084F83C00032070BD00BF206C40F063
:100AF00020002064002084F83C00012070BD00BF6D
:100B00000868800709D40868800706D40868800749
:100B10005CBF08685FEA8070F2D56FF01200086071
:100B2000206C40F400702064886810F0405F01D0B1
:100B3000002070BD207E0028FAD1C86A10F4700F22
:100B400002D088684005F3D4206C20F480702064C3
:100B5000206CC004ECD4206C40F001002064002024
:100B600070BD000010B581B00021009190F83C10DC
:100B7000012903D1022001B010BD00BF046801218A
:100B800080F83C10214651F8083FDB0729D10B685B
:100B90004DF6836243F001030B6040F20803C2F29A
:100BA00000031B68C4F21B32A3FB02239A0C02EB66
:100BB00042020092009AA2B1009A013A0092009A71
:100BC0007AB1009A013A0092009A52B1009A013A21
:100BD0000092009A2AB1009A013A0092009A002AE3
:100BE000EAD10A68036CD2070CD143F0100101640A
:100BF00000F1440101200A6810430860002001B0A0
:100C000010BD00BF40F2017223EA020202F58072B9
:100C100002646268520504D5026C012363F30D324D
:100C20000264026C4FF0000C0023D20444BF426CFB
:100C300022F0060342F2000E436480F83CC06FF0DD
:100C40002200C4F2010E2060DEF80403C00609D0C1
:100C500074450BD1DEF8080010F0405F06D14FF06C
:100C60008040C8E7086810F0405FF8D0002001B06D
:100C700010BD000090F83C10012904BF022070470D
:100C800001688A6822F001028A608968C90705D173
:100C9000016C41F20112914301310164002180F89D
:100CA0003C1000207047000070B5866D044600F0CF
:100CB000BFFA94F83510022928D105462068216C26
:100CC000026822F016020260426922F0800242614C
:100CD00009B9A16C19B1016821F00801016001682E
:100CE00021F00101016000BF20680068C00715D035
:100CF00000F09EFA401B0628F6D3202060650320F2
:100D000084F83500002184F8341070BD80206065BF
:100D10000120002184F8341070BD00BFE06D3F2138
:100D200001FA00F0B060012084F8350000200021B5
:100D300084F8341070BD000090F83510022909D1F4
:100D4000052180F835100068016821F0010101607B
:100D5000002070478021416501207047B0B50446EE
:100D600000F066FA054640F20000C2F2000000788A
:100D7000611C18BF044400BF00F05AFA401BA04297
:100D8000FAD3B0BD2DE9F04F82B000F13E4241F2FE
:100D90000007894602F1FF72C4F2020707214FEAF9
:100DA000B223B84208BF042100F120070024042523
:100DB0004FF0020B0097042B38BF4FEAB22101918C
:100DC00026E000BF0168032202FA0BF291430160A2
:100DD0006FF00301009F01EA540305F01C0CFE585C
:100DE0000F2101FA0CF126EA0101F950C168D14640
:100DF0009143C160416821EA0E01416081689143DD
:100E0000816002340835102C0BF1040B00F0A08037
:100E1000012101FA04F818EA090A59D043F6004101
:100E2000C4F201012F1FA1F57E7C24F0030207F01C
:100E3000080E0F215CF8023001FA0EF201991340FE
:100E400001FA0EF6B34224D143F6004EC4F2010E6D
:100E5000DEF8003043F60C4123EA0A03CEF80030F6
:100E6000DEF80430C4F2010123EA0A03CEF80430AC
:100E70000B68A60823EA0A030B60DEF8083023EAB1
:100E80000A03CEF808305CF8263023EA02024CF858
:100E90002620ABF102020368032101FA02F2934318
:100EA000036007F0180C6FF00301009F01EA54067D
:100EB000B9590F2303FA0CF39943B951C16891430F
:100EC000C160416821EA0801416081689143816005
:100ED000022101FA04FE1EEA090292D043F6004103
:100EE000C4F20101CA46A1F57E7924F0030105F0A0
:100EF0000C060F2359F8011003FA06FC019B01EAC6
:100F00000C0103FA06F6B1427FF45CAF43F60048E9
:100F1000C4F20108D8F8001043F60C469143C8F813
:100F20000010D8F80410C4F201069143C8F8041068
:100F3000316891433160D8F80810A6089143C8F889
:100F4000081059F8261021EA0C0149F8261039E753
:100F500002B0BDE8F08F0000012818BF704770B5DF
:100F600086B0242040F27005C4F20000C2F20005F1
:100F70000068297861B1297801291DD16862686A01
:100F8000E968884228D2E868696AC043084426E0D4
:100F90000024C4F20204E860204601210126FFF784
:100FA000F1FE0020CDE904004FF40410029002206D
:100FB0000196039025E000BF297802292ED12861EF
:100FC0002869E96888422DD2E8682969C043084445
:100FD0006861686960BB3AE0686AE968401A0024A1
:100FE000C4F20204E861204601210126FFF7CAFE8F
:100FF0000020CDE9040001964FF4881002260290EB
:10100000039601A9204600F037F8062000210022AF
:1010100000F090F9062000F07BF92E7006B0BDE8D4
:10102000704070472869E968401A6861686970B162
:1010300068694BF60051C0F20151B1FBF0F0642138
:10104000A861E8696A694843B0FBF2F02862286940
:10105000E8600120287006B0BDE8704070470000CD
:1010600043F61441C4F201010A68024214BF086049
:101070007047FFF771BF00002DE9F04F83B000F11A
:10108000200200F13E4741F20005009207F1FF7790
:10109000C4F2020507224FEAB726A84208BF04227D
:1010A00000254FF000084FF00009042E38BF4FEA2A
:1010B000B72201920AE000BF09F1010908F1020814
:1010C000B9F1100F05F1040500F0A2800F680122AC
:1010D00002FA09FE17EA0E0AEED0D1F804C0032284
:1010E0000CF003077E1E02FA08F4012E6FEA040BCF
:1010F00012D88468CE6804EA0B0406FA08F6344372
:101100008460446824EA0E06CCF3001404FA09F45F
:101110002643466004E000BF032F01D103271EE0F1
:10112000C6688C6806EA0B0604FA08F42643022F08
:10113000C66014D16FF00302009E02EA590756F808
:1011400007C005F01C040F220B69A2402CEA020222
:10115000A3401A43F251D1F804C00CF0030702680F
:1011600007FA08F302EA0B021A431CF4403F02603C
:10117000A2D0002243F644030292C4F202031A688A
:1011800043F6004442F480421A601A68C4F2010433
:1011900002F480420292029A29F003024FF6084CB0
:1011A0002244CFF6FF7C52F80C3005F00C070F26D6
:1011B000BE40B343019E06FA07F73B4342F80C30AA
:1011C000A2684B6842EA0A0743F60C4CDE0258BF9D
:1011D00022EA0A07A760C4F2010CDCF800209E0294
:1011E00042EA0A0758BF22EA0A07CCF80070626890
:1011F0009E0342EA0A0758BF22EA0A07676022688C
:10120000DB0342EA0A0758BF22EA0A07276053E7CE
:1012100003B0BDE8F08F00000069084018BF01204E
:1012200070470000002A08BF090481617047000070
:1012300040F2A020C2F200000068704740F20000B7
:1012400040F2A021C2F20000C2F2000100780A6858
:10125000104408607047000080B543F60040C4F2B7
:101260000200016841F400710160016841F480618D
:101270000160016841F480710160032000F086F88C
:10128000002000F005F800F027F8002080BD0000E5
:1012900070B540F20006C2F2000640F20801327852
:1012A000C2F200014FF47A730968B3FBF2F204460C
:1012B000B1FBF2F1084600F061FB0F2C4FF0010585
:1012C00008D838B94FF0FF3021460022002500F041
:1012D00031F87460284670BD82B0002043F64001AA
:1012E0000190C4F202014A6842F480424A604A68AE
:1012F00002F480420192019A0090086840F0805008
:101300000860086800F080500090009802B07047B4
:10131000002848BF704700F01F01012202FA01F1C6
:101320001C2202EAD0004EF20012CEF200028150DE
:101330007047000010B54EF60C5CCEF2000CDCF8E5
:101340000030C3F3022E8EF00704042C28BF0424BF
:10135000BEF103034FF0FF3E0EFA04F438BF002342
:10136000A14399400EFA03F39A43114300F00F0290
:1013700000F160430901043A03F564436244002824
:1013800048BF02F10C03197010BD00004EF60C515D
:10139000CEF200010A684FF6FF031A4060F30A22FA
:1013A00042F0806040F0FD7008607047002804BF84
:1013B000012070472DE9F04143F60808C4F2020805
:1013C0000446D8F8F8030D4600F00700814207D91B
:1013D00088F8F853D8F8F80300F00700A84277D14E
:1013E0002068810717D5410705D5D8F8001041F4CA
:1013F000E051C8F80010010705D5D8F8001041F4F5
:101400006041C8F80010D8F80010A26821F0F0017F
:101410001143C8F80010C00740D1D8F8F80300F015
:101420000700854207D288F8F853D8F8F80300F08F
:101430000700A8424CD12068410707D5D8F8001012
:10144000E26821F4E0511143C8F80010000708D504
:10145000D8F80000216920F4604040EAC100C8F8D3
:10146000000000F07DF8D8F8001043F6DC32C1F33C
:101470000311C0F60002515C40F2080220FA01F1AB
:1014800040F20400C2F200000068C2F200021160E3
:10149000FFF7FEFE0020BDE8F08100BF6068811EFE
:1014A000022907D258F8081C89015CBF0120BDE859
:1014B000F08111E0012807D158F8081C89035CBFAE
:1014C0000120BDE8F08107E058F8081C890703D423
:1014D0000120BDE8F08100BFD8F8001021F0030121
:1014E0000843C8F80000FFF7A3FE064641F288371C
:1014F000D8F80000616800F00C00B0EB810F8CD0D0
:10150000FFF796FE801BB842F2D90320BDE8F081B8
:1015100040F2080043F60801C2F20000C4F20201E2
:101520000068096843F6EC32C1F38221C0F600027C
:10153000515CC8407047000040F2080043F60801C3
:10154000C2F20000C4F202010068096843F6EC32FE
:10155000C1F34231C0F60002515CC8407047000040
:1015600010B543F60404C4F202046168C1F38101BA
:1015700042F20040C0F2F400DFE801F002040A0287
:1015800010BD00BF41F20020C0F27A0010BD00BFC4
:10159000216801F03F02216823684902C3F38811E2
:1015A00006D4A1FB00010023FEF77EFE07E000BF8A
:1015B00041F20020C0F27A004843B0FBF2F021680B
:1015C0000222C1F3014102EB4101B0FBF1F010BD79
:1015D000002804BF012070472DE9F04182B0044685
:1015E000007843F60006C007C4F202060CD0B068CB
:1015F00000F00C00042840F081803068800303D59F
:101600006068002800F06881207880071BD5B068EA
:1016100010F00C0F09D0B06800F00C00082840F062
:1016200087807068400200F183803068800703D5AE
:10163000E068012840F050813068216920F0F8000E
:1016400040EAC10030602078000713D420784007BA
:101650002AD4A569002D00F03A81B06800F00C0092
:10166000082840F0A580012D40F00E81012002B035
:10167000BDE8F0816069002800F082800020C4F29B
:1016800047200121C0F8801EFFF7D2FD054600BFAC
:10169000706F8007DAD4FFF7CBFD401B0228F7D923
:1016A000032002B0BDE8F081306C5FEAC0080AD4C4
:1016B00000200190306C40F080503064306C00F0BD
:1016C00080500190019847F20007C4F20007386883
:1016D000C00547D4386840F480703860FFF7A8FD33
:1016E000054600BF3868C0053CD4FFF7A1FD401B8C
:1016F0000228F7D9032002B0BDE8F081B06800F0FD
:101700000C00082803D1706840023FF576AF61688D
:101710003068B1F5803F07D0B1F5A02F40F09A8036
:1017200040F480203060306840F4803030609AE0CF
:10173000E068002840F20000C4F247205CD001219C
:101740000160FFF775FD0546306880073FF574AF0F
:10175000FFF76EFD401B0228F6D9032002B0BDE85A
:10176000F08100BFA168306F012905D0052955D14E
:1017700040F004003067306F40F00100306756E001
:101780000020C4F247200021C0F8801EFFF750FD62
:10179000054600BF706F80077FF558AFFFF748FD23
:1017A000401B0228F6D9032002B0BDE8F08100BF3B
:1017B0000027C4F2472700203866FFF739FD022DC5
:1017C00005460DD13068800140F18A80FFF730FD79
:1017D000401B02284FF00300F4D902B0BDE8F081AD
:1017E0003068800173D5FFF723FD401B02284FF0BE
:1017F0000300F5D9F1E700BF00210160FFF718FDF4
:10180000054600BF306880077FF51DAFFFF710FD6C
:10181000401B02284FF00300F4D9DEE720F001005E
:101820003067306F002920F0040030677AD0FFF76E
:10183000FFFC054641F28837306F800700F1848055
:10184000FFF7F6FC401BB842F6D9032002B0BDE812
:10185000F08100BF20F4803030603068002920F42F
:10186000802030607AD0FFF7E3FC054630688003C3
:101870003FF5CAAEFFF7DCFC401B6428F6D9032015
:1018800002B0BDE8F08100BF7068E16900F4800239
:101890008A4221D1216A00F03F028A421CD147F6D8
:1018A000C071626A0140B1EB821F15D1A16A4FF687
:1018B000FF73C903994300F44032A1F580318A4295
:1018C0000AD1E16A00F07060B0EB016F04D1002032
:1018D00002B0BDE8F08100BF012002B0BDE8F08198
:1018E00004F11C052FCD084340EA8210D9034FF6BE
:1018F000FF729143A1F5803140EA056008437060B2
:1019000001203866FFF794FC044600BF3068800170
:10191000DDD4FFF78DFC001B02284FF00300F5D942
:101920005BE700BFFFF784FC054641F2883700BF44
:10193000306F800708D5FFF77BFC401BB8424FF0A3
:101940000300F5D949E700BFB8F1000F3FF581AEBC
:10195000306C20F0805030647BE600BFFFF768FCFD
:10196000054600BF306880037FF54EAEFFF760FC90
:10197000401B64284FF00300F4D92EE7411E0020DD
:10198000B0EB116F1CBF012070474EF21002CEF277
:10199000000251604EF62351CEF20001F0230B708D
:1019A0000721906011607047704700007047000089
:1019B00090F83C20012A04BF02207047B0B501F125
:1019C00008053CCDD1E900CE23F47C5322F47052BB
:1019D0001A432EF4F0431A432CF4E0431A4324F440
:1019E000C0431A432A43C96922F480420368114361
:1019F0005964002180F83C100020B0BD90F83C20D4
:101A0000012A4FF0020241D010B580F83D20026853
:101A1000D2F804E0D2F808C00C682EF0700323431B
:101A200040F6FF34C4F20004A242536010DCB2F16D
:101A3000804F1ED040F20043C4F200039A4218D0F7
:101A400040F60003C4F200039A4212D016E000BF31
:101A500040F60043C4F200039A420AD044F2000365
:101A6000C4F201039A4204D00023C4F201039A4253
:101A700004D149682CF080031943916001210022B0
:101A800080F83D1080F83C20BDE8104010467047BB
:101A9000002804BF0120704710B5044690F83D00AF
:101AA00028B9002084F83C00204600F01FF80220EE
:101AB00084F83D002068211D01F07EFB012084F8A0
:101AC000460084F83E0084F83F0084F8400084F823
:101AD000410084F8420084F8430084F8440084F80C
:101AE000450084F83D00002010BD000080B582B0A4
:101AF000006840F20041C4F20001884214D0B0F105
:101B0000804F0ED10020019043F64000C4F2020045
:101B1000016841F001010160006800F001000190DE
:101B2000019802B080BD00BF0020009043F6400045
:101B3000C4F202000168002241F002010160006865
:101B4000002100F00200009000981D20FFF7F2FB3A
:101B50001D2002B0BDE88040FFF7DABB90F83D10D1
:101B600001291CBF01207047022180F83D10006848
:101B700040F6FF31C4F2000188420FDCB0F1804F23
:101B80001DD040F20041C4F20001884217D040F657
:101B90000001C4F20001884211D017E040F6004174
:101BA000C4F2000188420AD044F20001C4F20101EB
:101BB000884204D00021C4F20101884206D1816824
:101BC00001F00701062904BF00207047016841F0B9
:101BD000010101600020704790F83D1001291CBFF1
:101BE00001207047022180F83D10006840F6FF3266
:101BF000C168C4F20002904241F00101C1600FDCF3
:101C0000B0F1804F1DD040F20041C4F20001884283
:101C100017D040F60001C4F20001884211D017E04D
:101C200040F60041C4F2000188420AD044F20001AB
:101C3000C4F20101884204D00021C4F201018842AB
:101C400006D1816801F00701062904BF0020704712
:101C5000016841F0010101600020704770470000F9
:101C600070B504460068C5680669B10716D515F059
:101C7000020113D06FF00201016101212177806917
:101C8000800703D02046FFF7E9FF05E0204600F07B
:101C90008FF8204600F0D4F900202077700719D57E
:101CA00015F0040016D020686FF0040101610221D4
:101CB0002177806910F4407F04D02046FFF7CEFFE3
:101CC00006E000BF204600F073F8204600F0B8F9A7
:101CD00000202077300717D515F0080014D02068B1
:101CE0006FF00801016104212177C069800703D0EA
:101CF0002046FFF7B3FF05E0204600F059F82046E4
:101D000000F09EF900202077F00619D515F010009C
:101D100016D020686FF01001016108212177C06999
:101D200010F4407F04D02046FFF798FF06E000BF84
:101D3000204600F03DF8204600F082F90020207790
:101D4000F00718BF15F0010002D1300609D412E0E7
:101D500020686FF001010161204600F03FFA300673
:101D600009D515F0800006D020686FF08001016170
:101D70002046FFF719FE700609D515F0400006D081
:101D800020686FF040010161204600F05DFAB00666
:101D900058BF70BD15F0200008D021686FF02002F8
:101DA00020460A61BDE87040FFF700BE70BD00002C
:101DB0007047000090F83C30012B04BF02207047B0
:101DC0004FEAB202032A00F2ED802DE9F043DFE88A
:101DD00002F003A3397300BF036800261D6A1A6A64
:101DE000C4F2010622F001021A621A465C6852F837
:101DF00018CFB3428E68D1F800E025F0020545EA1D
:101E000006050CD1CE68D1E9057824F4407425F09C
:101E10000C0526F004063C43354344EA08042CF044
:101E2000730747EA0E075C609F614F6809695F634B
:101E30001D629F6947F008079F619F6927F00407AB
:101E40009F61A4E0036800261D6A1A6AC4F20106B5
:101E500022F480721A621A46D3F804C052F81CEFBA
:101E6000B3428E680C6825F4007545EA06250FD14B
:101E7000CE68D1E90598360240F2FF4725F4406567
:101E8000BE4335432CF4405748EA090647EA061C8E
:101E90002EF073072743C3F804C0DF614F68096958
:101EA000DF631D62DF6947F00807DF61DF6927F044
:101EB0000407DF616BE000BF03680027D3F820C090
:101EC0001A6AC4F2010722F480521A621A465C6848
:101ED00052F81C5FD1F800E08E68BB4204D14F6914
:101EE00024F4804444EA87142CF4005747EA063768
:101EF00025F4E64646EA0E265C60DE614E68096916
:101F00001E641F62DF6947F40067DF61DF6927F441
:101F10008067DF613AE000BF036800261D6A1A6A25
:101F2000C4F2010622F010021A621A46D3F804C065
:101F300052F8184FB3428E68D1F800E025F0200522
:101F400045EA06150FD1CE68D1E905986FF0400734
:101F500025F0C00507EA061635432CF4406748EA29
:101F6000090647EA860C24F4E64444EA0E27C3F83F
:101F700004C09F614F6809699F631D629F6947F4B0
:101F800000679F619F6927F480679F61090213685A
:101F9000194311600021BDE8F043002280F83C2085
:101FA000084670470121002280F83C20084670470F
:101FB000002804BF0120704710B5044690F83D008A
:101FC00028B9002084F83C00204600F01FF80220C9
:101FD00084F83D002068211D01F0EEF8012084F80E
:101FE000460084F83E0084F83F0084F8400084F8FE
:101FF000410084F8420084F8430084F8440084F8E7
:10200000450084F83D00002010BD0000006800215C
:10201000C4F20101884218BF704781B000200090CF
:1020200043F64400C4F20200016841F0010101607E
:10203000006800F001000090009801B070470000B7
:1020400070470000C1B1042908D0082914BF4122FB
:102050004022825C012A05D016E000BF3F22825C4C
:10206000012A11D10222082910D0042914BF80F8B6
:10207000412080F83F200BE090F83E20012A03D158
:10208000022280F83E2003E00120704780F84020C3
:10209000006801F01F010122036A8A4023EA02015D
:1020A0000162036A4421C4F201011A43A1F144030D
:1020B0009842026216D040F6FF31C4F20001884215
:1020C0001ADCB0F1804F28D040F20041C4F2000188
:1020D000884222D040F60001C4F2000188421CD0A0
:1020E00022E000BF0A6842F400420A6040F6FF3175
:1020F000C4F200018842E4DD40F60041C4F2000170
:1021000088420AD044F20001C4F20101884204D09E
:102110000021C4F20101884206D1816801F0070163
:10212000062904BF00207047016841F001010160E9
:102130000020704780B5026801F01F0C012303FAEC
:102140000CFE136A40F2000C23EA0E031362C4F281
:10215000010C136A6245136211D1DCF820C041F210
:1021600011131CEA030F0AD1D2F820C040F24443F5
:102170001CEA030F03D1536C23F400435364D2F8D9
:1021800020C041F211131CEA030F06D1D2F820C07F
:1021900040F244431CEA030F14D0082918D0042944
:1021A0000AD000294FF0010114BF80F8411080F8D7
:1021B0003E10002080BD00BF012180F83F100020AC
:1021C00080BD00BF136823F0010313600829E6D126
:1021D000012180F84010002080BD0000006840F21E
:1021E0000041C4F20001884218BF704770B58EB03C
:1021F000FFF71EF840F27006C2F20006F16A88424C
:1022000014D004460DF106050AA128462246FEF721
:10221000C3F82846FEF76CF982B240F2D810C2F239
:1022200000002946642300F0D9FBF4620EB0BDE83B
:102230007040704744656C6179204D6F64653A2049
:10224000256C750D0A000000704700007047000003
:1022500070470000B0B582B001680A68CC684B696D
:1022600002F02F05202D04F0200505D125B102B084
:10227000BDE8B04001F026B85FEA027C1EBF03F063
:10228000010E04F4907313EB0E0341D1036BD506DA
:1022900018D5012B16D114F0100313D0002201928F
:1022A0000A6801924A680192019A496949064BD429
:1022B000818DC28DC38D002B18BF914240F0F481F7
:1022C00002B0B0BD13062DD514F080032AD090F8CB
:1022D0004120212AF4D18268B2F5805F03D10269DE
:1022E000002A00F06782026A531C036212784A6077
:1022F000C28C013A1304C284E2D1C86820F0800085
:10230000C860C86840F04000C86002B0B0BD00BFFF
:10231000D30718BF14F4807340F0D080530700F146
:10232000D380D8E05206CBD514F04002C8D0CA689A
:1023300022F04002CA60202180F8411002B0BDE8BE
:10234000B04000F015BC00BFC16B0A68526893B280
:10235000002BB5D0858DAB42B2D2C285C969B1F52B
:10236000807F00F0A080016851E8031F026821F41B
:10237000807142E80313DBB1016851E8031F026872
:1023800021F4807142E8031393B1016851E8031FFF
:10239000026821F4807142E803134BB1016851E8EF
:1023A000031F026821F4807142E80313002BDAD185
:1023B000016851E8051F026821F0010142E8051398
:1023C000BBB3016851E8051F026821F0010142E832
:1023D000051373B3016851E8051F026821F001017C
:1023E00042E805132BB3016851E8051F026821F08C
:1023F000010142E80513002BDAD11AE0016851E827
:10240000051F026821F0400142E80513DBB10168B5
:1024100051E8051F026821F0400142E8051393B11D
:10242000016851E8051F026821F0400142E80513E8
:102430004BB1016851E8051F026821F0400142E8F4
:102440000513002BDAD1202180F84210002101630E
:10245000016851E8031F026821F0100142E80313EC
:10246000DBB1016851E8031F026821F0100142E866
:10247000031393B1016851E8031F026821F01001B2
:1024800042E803134BB1016851E8031F026821F0D1
:10249000100142E80313002BDAD1C16B0446084651
:1024A000FEF702FC204602214163818DC28D891A0C
:1024B00089B202B0BDE8B040FFF7C8BE436C43F03C
:1024C00001034364530706D5BEF1000F03D0436CEC
:1024D00043F002034364930706D5BEF1000F03D017
:1024E000436C43F004034364BCF1000F06D55EEA7D
:1024F000050303D0436C43F008034364436C002B93
:102500003FF4DEAE920605D525B1044600F0DAFEB2
:10251000216820464969426C01F0400102F008023E
:10252000891800F0B98000BF016851E8031F0268F4
:1025300021F4907142E80313BBB3016851E8031F13
:10254000026821F4907142E8031373B3016851E803
:10255000031F026821F4907142E803132BB3016852
:1025600051E8031F026821F4907142E80313002B25
:10257000DAD11AE0016851E8051F026821F0010173
:1025800042E80513DBB1016851E8051F026821F03C
:10259000010142E8051393B1016851E8051F026883
:1025A00021F0010142E805134BB1016851E8051F14
:1025B000026821F0010142E80513002BDAD1016B1A
:1025C000012924D1016851E8031F026821F010019C
:1025D00042E80313DBB1016851E8031F026821F0F0
:1025E000100142E8031393B1016851E8031F026828
:1025F00021F0100142E803134BB1016851E8031FB9
:10260000026821F0100142E80313002BDAD12021E7
:1026100080F842100021016301684969490640F1D0
:10262000C380016851E8051F026821F0400142E8BB
:102630000513DBB1016851E8051F026821F0400174
:1026400042E8051393B1016851E8051F026821F0C3
:10265000400142E805134BB1016851E8051F0268CB
:1026600021F0400142E80513002BDAD1C16B0029AB
:1026700000F09A8043F2B922C0F6000204460846F0
:102680000A65FEF759FB00283FF41AAEE06B016DB6
:1026900002B0BDE8B04008470446FFF7D9FD00206E
:1026A000606402B0B0BD00BF891A00BF026852E882
:1026B000032F036822F4907243E80325BDB3026838
:1026C00052E8032F036822F4907243E8032575B3A0
:1026D000026852E8032F036822F4907243E803254E
:1026E0002DB3026852E8032F036822F4907243E886
:1026F0000325002DDAD11AE0026852E8052F03689D
:1027000022F0010243E80525DDB1026852E8052FF9
:10271000036822F0010243E8052595B1026852E8FA
:10272000052F036822F0010243E805254DB1026838
:1027300052E8052F036822F0010243E80525002D29
:10274000DAD1202280F8422000220263026852E897
:10275000032F036822F0100243E80325DDB102686D
:1027600052E8032F036822F0100243E8032595B1D5
:10277000026852E8032F036822F0100243E80325A1
:102780004DB1026852E8032F036822F0100243E8BB
:102790000325002DDAD1022289B2426302B0BDE8DE
:1027A000B040FFF753BD00BF02B0BDE8B040FFF737
:1027B0004FBD00BF026A32F8023B6FF35F234B60EC
:1027C000026295E5002804BF0120704710B5044659
:1027D00090F8410028B9002084F84000204600F01D
:1027E00021F8242084F841002068C16821F40051B8
:1027F000C160204600F0E6FD2068016921F49041A7
:102800000161416921F02A014161C16841F400512F
:10281000C16000202021606484F8411084F84210D7
:10282000606310BD80B586B044F200410068C4F218
:102830000001002288420592CDE903220292019212
:1028400002D006B080BD00BF43F630000092C4F253
:102850000200036943F400330361036903F40033A6
:102860000093009B0092036843F00103036000683B
:1028700000F00100009000980C2001900220CDE9AA
:1028800002020720059001F5DE3001A90492FEF74F
:10289000F3FB262000210022FEF74CFD2620FEF748
:1028A00037FD06B080BD000090F84230202B07D1E4
:1028B00000294FF0010318BF002A05D118467047C0
:1028C00002231846704700BF002303638162222160
:1028D0008285C285436480F842100169006819B19D
:1028E000C16841F48071C160416941F001014161F9
:1028F000C16841F02001C1601846704770B500689A
:1029000044F20041C4F20001884201D070BD00BF12
:1029100040F27004C2F200046078D8B160780128F7
:1029200052D1E0887F2827D82079E18840F22025FD
:102930004A1CC2F20005E2806854E088032832D1C4
:10294000E07880BBAE78022E01D0FF2E1AD1012094
:10295000E07023E02079AA2836D1012060700020A1
:10296000E080E070E088AA22411CE18040F2202152
:10297000C2F200010A5427E000206070E080E0709D
:1029800022E000BF00206070E080E07040F2D810CC
:10299000211DC2F200000122FFF786FFFF2E02D0A8
:1029A000022E18BF70BDE07870B1E08807280BD305
:1029B0002879E1880730884206D12079552803D14B
:1029C0000120A0700020607040F2D810211DC2F2DA
:1029D00000000122BDE87040FFF766BF2DE9F0431B
:1029E00081B0044690F84100202809D100294FF019
:1029F000010018BF002A07D101B0BDE8F08300BF75
:102A0000022001B0BDE8F0830020606421201D4653
:102A10000E4684F841001746FEF70AFCA784E784B7
:102A2000A1688146B1F5805F02D1206900285DD0A0
:102A300037460020E28C2168002A5DD06A1C24D031
:102A4000002D4AD0804600BF0868000608D4FEF773
:102A5000EFFBA0EB0900A8427AD82168C868F3E729
:102A600017B117F8010B04E038F8020B00276FF3D9
:102A70005F204860E08C0138E084E08C0028E3D1DE
:102A80003AE000BF0A68120609D40A68120606D4A2
:102A90000A6812065CBF0A685FEA0262F2D51FB1DB
:102AA00017F8012B05E000BF30F8022B00276FF369
:102AB0005F224A60E28C013AE284E28C002AE4D18F
:102AC0001AE000BF30F8022B00276FF35F224A6044
:102AD000E28C013AE284E28C72B10A68120635D5C2
:102AE000002FEFD017F8012BF1E700BF0027304689
:102AF000E28C2168002AA1D1086840061ED42DB3BB
:102B0000681C14D1086840062AD40868400627D4F7
:102B10000868400624D4086840064FF00000F1D54C
:102B20000DE000BF2068C1680068400618D4FEF7B9
:102B30007FFBA0EB0900A842F4D909E00020202186
:102B400084F8411001B0BDE8F08300BFFEF770FBD0
:102B50000320202184F8411001B0BDE8F08300BFBC
:102B60000020202184F8411001B0BDE8F08300006E
:102B700070470000FEE70000B0B592B040F20014CC
:102B8000C2F20004204600210025FFF7D3FA2046B8
:102B90000421FFF7CFFA0020C4F2010053213122B3
:102BA000802384E823002046C4E90325C4E90553B3
:102BB000FFF7FEF910B172B6FEE700BF40F2001059
:102BC000C2F2000010A9CDE91055FEF717FF18B1A9
:102BD00072B600BFFEE700BF602009900020CDE97B
:102BE0000A00CDE90C00CDE90E0040F20010C2F25F
:102BF000000009A90022FFF7DDF818B172B600BF86
:102C0000FEE700BF40F20010C2F2000009A9042252
:102C1000FFF7D0F810B172B6FEE700BF4FF40061C5
:102C2000002001914FF480610790CDE90210CDE9B9
:102C300004004FF4005006904FF48040089040F29A
:102C40000010C2F2000001A9FEF7B2FE10B172B688
:102C5000FEE700BF12B0B0BDFEE700002DE9F04175
:102C60000C46022905461FD8E000C0B24FF480711F
:102C700040F20048AF7A21FA00F24FF48031C4F2FA
:102C8000020821FA00F60421D2B24046002F08BF04
:102C90000121FEF7C7FA4FF48061F2B24046002FDF
:102CA00008BF0221FEF7BEFA6C72BDE8F081000099
:102CB00010B5D0E900231468D4F82CC063B1082BF8
:102CC00006D0042B14BF4FF0400E4FF0380E05E035
:102CD0004FF03C0E02E000BF4FF0340E0CF1010348
:102CE00048F281024B43C8F28002A3FB0223DA09B7
:102CF00044F80E20017210BDFEE70000704700008E
:102D00002DE9F04F85B040F2700BC2F2000BBBF81A
:102D100006000728C0F0D08040F22027C2F200074A
:102D20003878AA2840F0C880BBF80600384410F86C
:102D3000010C552840F0C08097F804A097F8018056
:102D4000B87897F80390BBF806100AF107028A4298
:102D500040F0B280FF2802D0022840F0AD800AF196
:102D60000400010608D0BAF1FB0F00F0030C05D9EE
:102D70000020002219E000BF002028E0C0B200F0CF
:102D8000FC00424200206FF0030300BFF9184C79A9
:102D90008D79CE796040097A684004337040D61846
:102DA000043680EA0100F1D11A1DBCF1000F0ED0EB
:102DB0003A445178BCF1010F80EA010007D09178C4
:102DC000BCF1020F80EA01001CBFD17848400AEB39
:102DD0000701497988426FD140F20040C4F20200F5
:102DE0004FF48051FEF718FAB9F11F0F18DCB9F152
:102DF000010F31D0B9F1100F24D1BAF1030F08BF80
:102E000001285DD0012857D04CA70220414610224E
:102E10000323009700F096F805B0BDE8F08F00BFDF
:102E2000B9F1200F28D0B9F1300F0BD105370220AE
:102E3000414630225346009700F084F805B0BDE8C3
:102E4000F08F00BF02204146FF22FF2305B0BDE8FE
:102E5000F04F00F025B900BFBAF1020F08BF0128FA
:102E600038D0012828D0022041460122022305B093
:102E7000BDE8F04F00F014B9BBF838100138B0FAD3
:102E800080F0ADF80A10BBF844104009ADF80C1002
:102E90008DF80E00DBF818000DF10A07000A8DF816
:102EA0000F00DBF8180041468DF8100002202022A8
:102EB0000723009700F046F805B0BDE8F08F00BF8B
:102EC0007879B979FD7978B10128F5D10BF13C0613
:102ED0000CE000BF7879B979012821D00028EBD126
:102EE0000BF130001EE000BF0BF130063046FFF75B
:102EF000DFFE681EB0FA80F0022D18BF450930468B
:102F00002946FFF7ABFE30890DF11107ADF811002E
:102F100001208DF813000220414610220323C8E748
:102F20000BF13C00FFF7C4FE0220414601220123C1
:102F300005B0BDE8F04F00F0B3B800BF00000200DC
:102F4000704700002DE9F047A8B08C46AA218DF803
:102F5000001069468DF801008DF802C08DF803203D
:102F60008DF8043063B1DDF8C0E0042B03F0030CEE
:102F70000AD205200024BCF1000F804629D140E090
:102F80004FF0050804203FE003F0FC00C0F100080A
:102F90000EF1010905206FF0030500BF09EB0506DE
:102FA000F47896F806A0B688C7B251FA80F20435D4
:102FB000CC55A2F80160C21C08EB05040430D2B263
:102FC000043401F802A0E9D12C1DBCF1000F8046A9
:102FD00017D01EF8045000F10108C6B2BCF1010F71
:102FE0008D550ED074446678851C5FFA88F2BCF16A
:102FF000020FA8468E5404D0A67800F10308E8B268
:103000000E54181D030635D0C5B2042D00F0030C74
:1030100006D200250020BCF1000F19D12BE000BF23
:1030200005F0FC00454200206FF003040E1973798F
:10303000B279F7795840367A5040043478402A19EA
:10304000043280EA0600F1D1251DBCF1000F12D038
:103050004C1C625DBCF1010F80EA02000BD02544DC
:103060006A78BCF1020F80EA02001CBFAA785040C7
:1030700001E000BF002008F101025FFA88F3C854A4
:1030800008F10200D2B255238B54C2B240F2D810DC
:10309000C2F200006423FFF7A1FC28B0BDE8F0876E
:1030A00080B5A8B08DF8010048405040584080F0ED
:1030B00001008DF8060055204FF0AA0C8DF807008E
:1030C00040F2D8108DF800C08DF802108DF8032062
:1030D0004FF0010C8DF80530C2F20000694608225D
:1030E00064238DF804C0FFF779FC28B080BD000090
:1030F000FEF7A4B870B592B006AC20463021FDF7BB
:1031000048FA002543F640000595CDE90355CDE981
:1031100001550095C4F202000168022641F0805179
:103120000160006800F080500090009847F20000B5
:103130000095C4F20000016866F38F3101600068F9
:1031400000F44040009000980120099010200A905F
:103150000E904FF4A8700F9004201090072011904B
:1031600020460696CDE90C65FEF732FA10B172B62C
:10317000FEE700BF0F20CDE901064FF48050CDE9F6
:10318000040501A802210395FEF710F910B172B6EB
:10319000FEE700BF12B070BD4EF68850CEF20000C0
:1031A000016841F4700101607047000040F2901026
:1031B000C2F20000FEF754BD10B540F2FF7E036876
:1031C000C4F2000E40F2000C7045C4F2010C1DDD8B
:1031D00040F60002C4F20002904220D060451ED0AA
:1031E00040F60042C4F20002904218D04FF6FF723F
:1031F000C4F2000290421CDC704525DCB0F1804F27
:103200003AD040F20042C4F2000233E0B0F1804F05
:1032100005D040F20042C4F200029042E6D14A6872
:1032200023F0700313434FF6FF72C4F20002904282
:10323000E2DD44F2FF32C4F20102904210DC60454C
:103240001AD044F2000213E040F60002C4F2000279
:10325000904211D040F60042C4F200020AE000BFE2
:1032600044F60002C4F20102904205D044F200424A
:10327000C4F20102904203D1CA6823F4407313439D
:1032800023F080024B69D1F800E08C681A43604556
:103290000260C462C0F828E002D10969CCF830109D
:1032A000012141610169C90708BF10BD016921F011
:1032B0000101016110BD0000806B0021C185C18446
:1032C000FEF7C6BF81B090F84210222921D1836851
:1032D0000246B3F5805F09D152F8281F52F8183C16
:1032E000002B63D003685B680AE000BF52F8281F18
:1032F00013B90369002BF5D003685B6803F07F0303
:103300000B70116801311160C18D01390A04C1854A
:1033100002D001B0704700BF0168CA6822F02002E5
:10332000CA60CA6822F48072CA604A6922F0010247
:103330004A61202180F8421000214163026B012A7A
:103340003CD10163016851E8031F026821F01001BC
:1033500042E80313DBB1016851E8031F026821F062
:10336000100142E8031393B1016851E8031F02689A
:1033700021F0100142E803134BB1016851E8031F2B
:10338000026821F0100142E80313002BDAD1016832
:103390000A68D20606D5002200920A68009249689F
:1033A00000910099818D01B0FEF750BF026852680C
:1033B0006FF35F2221F8022B8162A5E701B0FFF7CE
:1033C0009DBA0000B0B50446006804F108030ECBB6
:1033D0000569194325F440552A4302616269E3698E
:1033E0001143C268194349F20C639A431143C16007
:1033F0004169A26921F4407141F20043114340F454
:103400008062C4F201039A42416103D1FEF794F84D
:1034100002E000BFFEF77CF8E1694FF69C75636837
:103420001922C0F6FF75B1F5004FA0FB02011FD1B4
:103430005A00DB0FFCF738FF48F21F51C5F2EB11C1
:10344000A0FB01235A0905F1805302FB030032233C
:1034500003EBC000A0FB01014FF4F87000EA11106B
:1034600000EB0210C1F34211084421688860B0BD2E
:103470009A009B0FFCF718FF48F21F51C5F2EB11A1
:10348000A0FB01235A0902FB0500322303EB0010C5
:10349000A0FB0101F02000EA511000EB0210C1F383
:1034A0004311084421688860B0BD000040F2D81084
:1034B000C2F20000FEF7CEBEFEE70000FEB043F60B
:1034C000300540F20049C4F20205C4F20209FDF7DA
:1034D000C3FEFFF70FFE00265A96CDE95866CDE9E8
:1034E00056660296286840F2074140F004002860C2
:1034F0002868002200F004000290029802962868D2
:1035000040F2074840F080002860286800F0800002
:10351000029002980296286840F00100286028680E
:1035200000F00100029002980296286840F0020024
:103530002860286800F00200029002984846FDF7D3
:1035400071FE4FF4805056ACCDE95606012748462F
:1035500021465897FDF790FD48462146CDE956870C
:10356000CDE95866FDF788FD4FF48810579002208A
:10357000CDE95800A9F5806021465697FDF77CFDFE
:1035800040F2B8000123A9F56441C2F20000C0F680
:10359000007359964FF48032067680F82060C0E9B7
:1035A0000A36C76180F8306080E84600C0E90366EB
:1035B0004761FDF773F918B172B600BFFEE700BFAF
:1035C00040F2B800C2F2000056A9CDE956675896FD
:1035D000FDF7C2F810B172B6FEE700BF40F200403E
:1035E000C4F20200A0F5E03140F2D810C2F20000AF
:1035F00000240C234FF4E13280E81600C0E90344B4
:10360000C0E90534C461FFF7DDF818B172B600BF38
:10361000FEE700BF569428694FF0804140F001005A
:10362000286128694FF0FF3200F00100569056984B
:1036300040F24810C2F20000C0E90014C0E90242A2
:1036400004618461FEF724FA10B172B6FEE700BF90
:1036500040F24810C2F20000FEF780FA10B172B6D4
:10366000FEE700BFFFF788FA00265696286940F269
:10367000004740F0020028612869C4F2020700F008
:1036800002005690569840F29010A7F50031C2F211
:103690000000092342F2CF0280E84600C0E9033669
:1036A0008661FEF7F5F918B172B600BFFEE700BFFC
:1036B0001D20012100220124FDF73CFE1D20FDF705
:1036C00027FE40F29010C2F20000FEF785FA40F2A9
:1036D000700840F20015C2F20008C2F20005384638
:1036E00001210022C8E90C56C8F83760FDF79AFDA1
:1036F000384602210022FDF795FDD8E90C0188F833
:1037000039600068C26A49B1082905D0042914BF8C
:103710004021382103E000BF3C2100E03421002695
:10372000465088F8464040F200440420C4F20204A7
:10373000C8E90F5020460421002288F83860A8F814
:103740004460FDF76FFD20464FF480610022FDF7D5
:1037500069FDD8E90F0188F845600068C26A49B17F
:10376000082905D0042914BF4021382103E000BFF7
:103770003C2100E0342140F200140022C2F2000497
:1037800042502046002188F84420FEF75BFC20468A
:103790000421FEF757FC40F2D819C2F2000908F1E3
:1037A000040148460122FFF77FF80620002100228D
:1037B000FDF7C0FD0620FDF7ABFD43F6284145AC03
:1037C000C0F6000120464322FCF7B1FE2046FCF77C
:1037D0008FFE82B2484621466423FFF7FFF843F686
:1037E000A030C0F6000090E88E00D0E90465D0E972
:1037F00006C40DF1D80E8EE88E00CDE93A6500F1D1
:103800002007D0E90C65806B8ECFCDE93CC436AC87
:103810000DF1F80E449020468EE88E00CDE9426509
:10382000FCF766FE82B2484621466423FFF7D6F8CD
:10383000B94827AC2690B8A0071D00F1140E8ECF12
:103840009EE840508EC42B9600F12407D0E90D6409
:10385000056A8ECFC06BCDE9336426ACCDE92E511D
:1038600030A935902046CDE92CCE8CC1FCF740FE26
:1038700082B2484621466423FFF7B0F8B6480DF1FE
:10388000700E1B90B4A0071D8ECFD0E9074CD0E975
:1038900005658EE88E00D0E9090122941BACCDE9C4
:1038A00023C02046CDE920652591FCF721FE82B298
:1038B000484621466423FFF791F840F2B80940F2E8
:1038C0000045C2F20009C4F2020502E00A20FDF739
:1038D00045FA0120FDF742FA28464FF48051FDF7E2
:1038E0009BFC82464846FDF73DF948461421FDF70A
:1038F000B9F84846FCF7CEFF07461FFA80FB48465A
:10390000FDF7B8F940F6FF70834528BF8346BAF14A
:10391000010FA8F808706ED0D8E90C0340F2011628
:103920000168CBEB0B20CA6AC0F21006A0FB065060
:1039300063B148F28106082BC8F2800604D0042B3C
:1039400014BF4023382306E03C2304E048F28106FC
:103950003423C8F2800601324243A2FB0625EA095D
:10396000CA50D8E90F1388F838000968CA6A4BB101
:10397000082B05D0042B14BF4023382303E000BFDD
:103980003C2300E0342301324243A2FB0625EA092E
:10399000CA5040F2004698F83A50C4F2020688F83D
:1039A0004400042130460122002D08BF0121FDF70B
:1039B00039FC4FF4806130460022002D08BF0221FF
:1039C000FDF730FC98F846500124042130460122CE
:1039D00088F83940002D08BF0121FDF723FC4FF482
:1039E000806130460022002D354608BF0221FDF7D8
:1039F00019FC88F84540FDF71BFCD8F82810401A40
:103A0000B0F57A7F76D3AAF10100B0FA80F04409CC
:103A1000FDF70EFCC8F82800380A40F2AA218DF8FC
:103A20005D0187EA1720C4F2FF018DF85F41604015
:103A300040F2D8145691032180F0BE00C2F2000477
:103A40000DF5AC7B8DF85C118DF860014FF0550AD7
:103A5000204659460A2264238DF85E718DF861A1D3
:103A6000FEF7BCFFD8F81820D8F82030D8F814702A
:103A700002AD43F6F4312846C0F600010097FCF78A
:103A80008BFC2846FCF734FD82B22046294664238D
:103A9000FEF7A4FFD8F81800D8F81810000ED8F8D0
:103AA0001820D8F818508DF85D0180EA114080EA9E
:103AB000122040F2AA2668400B0CC5F2FF0680F0E7
:103AC000A900170A569604268DF85E318DF86051CC
:103AD00040F200458DF86101204659460B226423CF
:103AE0008DF85C618DF85F71C4F202058DF862A1FA
:103AF000FEF774FF98F8020000283FF4E7AE0024B8
:103B000088F80240FFF7FCF8A8F8064088F8014062
:103B100088F80340DAE600BF54494D3220696E69E7
:103B20007469616C697A65642077697468203834D7
:103B30004D487A20636F756E74657220666F7220CF
:103B40006163637572617465206D6561737572651B
:103B50006D656E740D0A000054494D332073746115
:103B60007274656420696E20696E74657272757016
:103B700074206D6F646520617420316B487A0D0A82
:103B800000000000F1EE100A4FF6FF71C0F2C031E4
:103B900020EA010040F04070E1EE100A704700009A
:103BA00048415244574152453A20436F6E6E656317
:103BB0007420504138202850574D206F757470750F
:103BC0007429202D2D2D3E20504130202845585459
:103BD0004920696E707574290D0A0000000000000C
:103BE00000000000010203040607080900000000AD
:103BF0000102030450574D20467265713A20256C2E
:103C00007520487A2C20447574793A20256C7525E6
:103C1000252C20506572696F64205469636B733A78
:103C200020256C750D0A000053544D333246342064
:103C30004D6F746F7220436F6E74726F6C6C65722F
:103C4000205265616479202D2050574D20467265C1
:103C500071204D6561737572656D656E7420757345
:103C6000696E6720455854490D0A0000903C0008D1
:103C70000000002010000000F8010008A03C00082F
:103C80001000002098080000180200080000000042
:103C900001000000100000000024F40000000000FB
:040000050800019559
:00000001FF
