:020000040800F2
:1000000060070020610200081D2100085D1E000835
:100010007920000859040008D52A000800000000D3
:10002000000000000000000000000000ED220008B9
:100030005D0400080000000021210008A52400083C
:100040007B0200087B0200087B0200087B0200089C
:100050007B0200087B0200087B0200087B0200088C
:100060007B0200087B0200087B0200087B0200087C
:100070007B0200087B0200087B0200087B0200086C
:100080007B0200087B0200087B02000800000000E1
:100090000000000000000000000000007B020008DB
:1000A0007B0200087B0200087B0200087B0200083C
:1000B0007B0200087B0200087B0200087B0200082C
:1000C0007B0200087B0200087B0200087B0200081C
:1000D0007B0200087B0200087B0200080000000091
:1000E0007B0200087B0200087B0200080000000081
:1000F0000000000000000000000000007B0200087B
:10010000000000007B0200087B0200087B02000860
:1001100000000000000000000000000000000000DF
:100120007B0200087B0200087B0200087B020008BB
:100130007B0200080000000000000000000000003A
:100140000000000000000000000000007B0200082A
:100150007B0200087B0200087B0200087B0200088B
:100160007B0200087B020008000000000000000085
:10017000000000000000000000000000000000007F
:10018000000000007B0200080000000000000000EA
:100190007B02000800F002F800F052F814A696E87E
:1001A000000CB244B344DA4501D100F049F8BAE892
:1001B0000F000FA696E83000A5EB040504EB060738
:1001C000AAEB0704A7F101074FEA15154FEA34140B
:1001D000A4F10104AC4201D300F032F813F0010F96
:1001E00018BFFB1A43F0010300F001F8DBE71847E2
:1001F000CC2B0000EC2B0000103A24BF78C878C14B
:10020000FAD8520724BF30C830C144BF04680C601C
:1002100070470000704700000023002400250026DE
:10022000103A28BF78C1FBD8520728BF30C148BF59
:100230000B6070471FB502F0FBFC1FBD10B510BD71
:1002400000F0D0F81146FFF7F5FF02F047FC00F090
:10025000EEF803B4FFF7F2FF03BC00F0F5F800007E
:100260000948804709480047FEE7FEE7FEE7FEE74A
:10027000FEE7FEE7FEE7FEE7FEE7FEE70448054986
:10028000054A064B704700004D25000895010008FF
:100290006001002060070020600300206003002050
:1002A00053EA020C00F069802DE9F04B4FF0000694
:1002B000002B1FBFB3FA83F503FA05F424FA05F601
:1002C0005E4012BF1643B2FA82F502FA05F4C5F198
:1002D00020051EBF22FA05FC44EA0C04203556EA2C
:1002E000044C4FEA144418BF641C4FF000084FF050
:1002F0000009904271EB030C39D3002919BFB1FA00
:1003000081F701FA07F6B0FA80F700FA07F6C7F1AD
:1003100020071EBF20FA07FC46EA0C062037B6FB72
:10032000F4FCA7EB0507103F07F01F0BCBF12006ED
:100330002CFA06F60CFA0BFB44BFB3460026202F1E
:10034000A4BF5E464FF0000B5BEA060C08BF4FF0FF
:10035000010B19EB0B0948EB0608ABFB027C06FB13
:1003600002CC0BFB03CCC01B71EB0C01C1E70B46AD
:10037000024641464846BDE8F08B13B5084318BF16
:100380004FF0FF300146AFF30080BDE81C407047DE
:100390004FF0000200B5134694469646203922BF1E
:1003A000A0E80C50A0E80C50B1F12001BFF4F7AF69
:1003B000090728BFA0E80C5048BF0CC05DF804EB4B
:1003C000890028BF40F8042B08BF704748BF20F8B9
:1003D000022B11F0804F18BF00F8012B70477047B7
:1003E00070477047754600F02BF8AE460500694629
:1003F000534620F00700854618B020B5FFF73EFFB2
:10040000BDE820404FF000064FF000074FF0000815
:100410004FF0000BAC46ACE8C009ACE8C009ACE852
:10042000C009ACE8C00921F007018D46704710B53E
:100430000446AFF300802046BDE81040FFF709BF37
:10044000004870471000002001491820ABBEFEE7AD
:100450002600020070470000FEE700007047000021
:1004600072B600BFFEE700002DE9F04F87B005909F
:1004700000F13E4000F1FF704FEAB027052F0D4616
:10048000049180F03D8128680021B1EB104F40F0CD
:10049000198180B2002800F015816868B0F5881FC6
:1004A00080F21D81122800F24181012101FA00F041
:1004B0000F21C0F20601084200F03881059905F1CC
:1004C0001000039001F12000019041F20000C4F2FD
:1004D00002000722814208BF04224FF0030C4FF0B4
:1004E00000084FF0000A4FF0000B042F38BF3A46C7
:1004F000029209E00BF1010B0AF1020ABBF1100FA5
:1005000008F1040800F0DA802868012101FA0BF9EB
:1005100010EA0907EED0686800F003014A1E012ABC
:1005200006D9032929D100F00301022941D06CE04A
:10053000E86804280AD342F60D50C0F60000C02136
:1005400002F0CAFA049D4FF0030CE868059B0CFA10
:100550000AF2996800FA0AF09143084398605968D2
:10056000686821EA0901C0F3001202FA0BF2114394
:10057000596000F003010329D5D0A86803280AD3E5
:1005800042F60D50C0F60000D12102F0A5FA049DFC
:100590004FF0030CA868059B0CFA0AF2D96800FA20
:1005A0000AF091430843D860686800F0030102290B
:1005B0002BD10398006810280AD281B249F2FF7249
:1005C00022FA01F1C90703D05DA101EB80000AE026
:1005D00042F60D50C0F60000DE2102F07DFADDE9A2
:1005E00003054FF0030C6FF00301019C01EA5B016E
:1005F0000068625808F01C030F269E40B2439840E2
:1006000010436050686800F00301059E0CFA0AF37D
:10061000326801FA0AF19A43114310F4403F316005
:100620003FF468AF002043F644010690C4F2020193
:10063000086843F6004440F4804008600868C4F24B
:10064000010400F48040069006982BF003004FF65A
:1006500008462044CFF6FF76815908F00C020F239C
:1006600093409943029B03FA02F211438151A0681F
:10067000696840EA070243F60C46CB0258BF20EAFD
:100680000702A260C4F2010630688B0240EA07024A
:1006900058BF20EA0702326060688B0340EA070215
:1006A00058BF20EA070262602068C90340EA0702D7
:1006B00058BF20EA070222601CE700BF07B0BDE870
:1006C000F08F00BF42F60D50C0F60000AD2102F0E1
:1006D00003FA049D6868B0F5881FFFF6E3AEB0F535
:1006E000081F19DAB0F5881F3FF4E8AEB0F5901F87
:1006F0003FF4E4AEB0F5041F3FF4E0AE16E000BFF7
:10070000072F3FF4C0AE42F60D50C0F60000AC21FA
:1007100002F0E2F9049DB6E63FF4D0AEB0F5441F16
:100720003FF4CCAEB0F5481F3FF4C8AE42F60D50D2
:10073000C0F60000AE2102F0CFF9049DBEE600BF76
:1007400000000000010000000200000003000000A3
:100750000400000005000000060000000700000083
:1007600008000000090000000A000000000000006E
:100770000C00000000000000000000000F0000005E
:1007800070B516460C46054631B1022E0ED2002E2B
:1007900008BF2404AC6170BD42F60D50C0F60000E5
:1007A00040F29D1102F098F9022EF0D342F60D505E
:1007B000C0F600004FF4CF7102F08EF9AC6170BD4D
:1007C00040F25C10C2F200000068704740F2000086
:1007D00040F25C11C2F20000C2F2000100780A6827
:1007E000104408607047000080B543F60040C4F232
:1007F0000200016841F400710160016841F4806108
:100800000160016841F480710160032000F088F804
:10081000002000F005F800F027F8002080BD00005F
:1008200070B540F20006C2F2000640F208013278CC
:10083000C2F200014FF47A730968B3FBF2F2044686
:10084000B1FBF2F1084600F0A1FC0F2C4FF00105BE
:1008500008D838B94FF0FF3021460022002500F0BB
:100860001FF87460284670BD82B0002043F6400136
:100870000190C4F202014A6842F480424A604A6828
:1008800002F480420192019A0090086840F0805082
:100890000860086800F080500090009802B070472F
:1008A00070B515460E46102A044606D342F6465049
:1008B000C0F60000A82102F00FF9102E06D342F670
:1008C0004650C0F60000A92102F006F94EF60C5081
:1008D000CEF2000001684FF0FF33C1F3022181F036
:1008E0000702042A28BF0422033903FA02F238BFA0
:1008F000002126EA02028A4003FA01F125EA0101F9
:10090000114304F00F02043A104404F1604209015B
:1009100002F56442002C48BF00F10C02117070BD5A
:1009200010B504460338052806D342F64650C0F6F3
:100930000000902102F0D0F84EF60C50CEF20000EC
:1009400001684FF6FF02114064F30A2141F0806113
:1009500041F0FD71016010BD002804BF0120704707
:100960002DE9F041044600680D4601380F2807D3F1
:1009700042F6D540C0F6000040F25A2102F0ACF831
:10098000082D07D342F6D540C0F6000040F25B21A7
:1009900002F0A2F843F60808C4F20208D8F8F803F7
:1009A00000F00700854208D988F8F853D8F8F80312
:1009B00000F00700A84240F0B180206881071FD5F1
:1009C000410705D5D8F8001041F4E051C8F80010EF
:1009D000000705D5D8F8000040F46040C8F80000D2
:1009E000A0686FF0070101EB3011082980F0B88092
:1009F000D8F8001021F0F0010843C8F80000206882
:100A0000C00765D1D8F8F80300F00700854207D287
:100A100088F8F853D8F8F80300F00700A8427DD111
:100A2000206841071AD5E0686FF0030101EBB0219F
:100A300004290BD34FEAB02141B142F6D540C0F6AC
:100A4000000040F2C32102F047F8E068D8F8001037
:100A500021F4E0510843C8F80000206800071AD5C7
:100A600020696FF0030101EBB02104290BD34FEA99
:100A7000B02141B142F6D540C0F6000040F2CA2193
:100A800002F02AF82069D8F8001021F4604141EA08
:100A9000C000C8F8000000F09BF8D8F8001042F63B
:100AA0004A42C1F30311C0F60002515C40F2080251
:100AB00020FA01F140F20400C2F200000068C2F224
:100AC00000021160FFF7ACFE0020BDE8F08100BF1E
:100AD0006068042808D342F6D540C0F6000040F212
:100AE000852101F0F9FF6068811E022908D258F8BB
:100AF000081C89015CBF0120BDE8F08112E000BF45
:100B0000012807D158F8081C89035CBF0120BDE803
:100B1000F08107E058F8081C890703D40120BDE8DC
:100B2000F08100BFD8F8001021F003010843C8F895
:100B30000000FFF745FE064641F28837D8F800006E
:100B4000616800F00C00B0EB810F3FF45BAFFFF782
:100B500037FE801BB842F1D90320BDE8F08100BF09
:100B60004FEA301100293FF443AF42F6D540C0F6BA
:100B7000000040F27E2101F0AFFFA06838E70000DE
:100B800040F2080043F60801C2F20000C4F202017C
:100B90000068096842F65A42C1F38221C0F6000299
:100BA000515CC8407047000040F2080043F608015D
:100BB000C2F20000C4F202010068096842F65A421B
:100BC000C1F34231C0F60002515CC84070470000DA
:100BD00010B543F60404C4F202046168C1F3810154
:100BE00042F20040C0F2F400DFE801F002040A0221
:100BF00010BD00BF41F20020C0F27A0010BD00BF5E
:100C0000216801F03F02216823684902C3F388117B
:100C100006D4A1FB00010023FFF742FB07E000BF61
:100C200041F20020C0F27A004843B0FBF2F02168A4
:100C30000222C1F3014102EB4101B0FBF1F010BD12
:100C4000002804BF012070472DE9F04182B004461E
:100C50000068102807D342F6D540C0F60000E62110
:100C600001F03AFF206843F60006C007C4F202060E
:100C700012D06068002818BFB0F5803F40F00881AE
:100C8000B06800F00C00042814D13068800303D54C
:100C90006068002800F0BA812078800753D5E068AA
:100CA000022821D22069202829D2B06810F00C0F28
:100CB00031D13AE0B06800F00C00082802D1706829
:100CC0004002E2D461683068B1F5803F07D0B1F5E9
:100CD000A02F40F0598140F480203060306840F40B
:100CE0008030306059E100BF42F6D540C0F60000C8
:100CF00040F21D1101F0F0FE20692028D5D342F604
:100D0000D540C0F600004FF48F7101F0E5FEB068E9
:100D100010F00C0F09D0B06800F00C00082840F06B
:100D20008D807068400200F189803068800703D5AB
:100D3000E068012840F06A813068216920F0F800FD
:100D400040EAC1003060207800071FD420784007B7
:100D500040D4A069032808D342F6D540C0F600006D
:100D600040F2CD1101F0B8FEA069002800F04981E1
:100D7000B16801F00C01082940F0AE80012840F074
:100D80001D81012002B0BDE8F08100BF606902282A
:100D900008D342F6D540C0F600004FF4AF7101F021
:100DA0009BFE6069002800F07F806020C4F247202D
:100DB0000121C0F8201EFFF703FD0546706F800774
:100DC000C4D4FFF7FDFC401B0228F7D9032002B072
:100DD000BDE8F081A068052800F2C880012101FA71
:100DE00000F010F0230F00F0C180306C5FEAC00803
:100DF0000AD400200190306C40F080503064306C98
:100E000000F080500190019847F20007C4F20007FB
:100E10003868C0052ED4386840F480703860FFF719
:100E2000CFFC05463868C00524D4FFF7C9FC401B39
:100E30000228F7D9032002B0BDE8F081E06800285D
:100E400040F26000C4F2472060D0012140F8601CED
:100E5000FFF7B6FC054600BF306880073FF56CAF72
:100E6000FFF7AEFC401B0228F6D9032002B0BDE814
:100E7000F08100BFA168306F012905D0052959D143
:100E800040F004003067306F40F0010030675AE0F6
:100E9000B0F5A02F3FF4F4AE42F6D540C0F6000006
:100EA000EB2101F019FEEBE66020C4F2472000219F
:100EB000C0F8201EFFF784FC054600BF706F800756
:100EC0007FF544AFFFF77CFC401B0228F6D90320D6
:100ED00002B0BDE8F08100BF022840F09B80E069CD
:100EE00040F48000B0F5800F40F0D480206A0238D2
:100EF0003E2880F0DC80606A3238B0F5BF7F00F2B7
:100F0000E480A06A082840F2EB8031E1002140F83B
:100F1000601CFFF755FC0546306880077FF513AF6E
:100F2000FFF74EFC401B02284FF00300F4D902B03B
:100F3000BDE8F08120F001003067306F002920F01B
:100F4000040030677AD0FFF73BFC054641F2883752
:100F5000306F800700F18480FFF732FC401BB842FD
:100F6000F6D9032002B0BDE8F08100BF42F6D540BB
:100F7000C0F600004FF4C57101F0AEFD306C5FEAC1
:100F8000C0087FF536AF3FE720F48030306030682E
:100F9000002920F4802030606CD0FFF711FC05465A
:100FA000306880033FF578AEFFF70AFC401B6428E9
:100FB000F6D9032002B0BDE8F08100BF7068E16996
:100FC00000F480028A4221D1216A00F03F028A4265
:100FD0001CD147F6C071626A0140B1EB821F15D186
:100FE000A16A4FF6FF73C903994300F44032A1F59B
:100FF00080318A420AD1E16A00F07060B0EB016F83
:1010000004D1002002B0BDE8F08100BF012002B091
:10101000BDE8F0816020C4F2472000210160FFF7A5
:10102000CFFB044630688001EBD5FFF7C9FB001BFE
:1010300002284FF00300F5D979E700BFFFF7C0FBA6
:10104000054641F2883700BF306F800708D5FFF7AB
:10105000B7FB401BB8424FF00300F5D967E700BF6C
:10106000B8F1000F3FF575AE306C20F08050306461
:101070006FE600BFFFF7A4FB054600BF30688003A2
:101080007FF50AAEFFF79CFB401B64284FF003007E
:10109000F4D94CE742F6D540C0F600004FF4EB71AE
:1010A00001F01AFD206A02383E28FFF424AF42F610
:1010B000D540C0F6000040F2D71101F00DFD606A86
:1010C0003238B0F5BF7F7FF61CAF42F6D540C0F690
:1010D00000004FF4EC7101F0FFFCA06A082847D82B
:1010E000012101FA00F010F4AA7F41D0E06A023831
:1010F0000E2807D342F6D540C0F600004FF4ED713C
:1011000001F0EAFC6027C4F2472700203860FFF7AF
:1011100057FB05463068800108D5FFF751FB401B9F
:1011200002284FF00300F5D901E700BF04F11C05C8
:101130002FCD084340EA8210D9034FF6FF72914346
:10114000A1F5803140EA05600843706001203860F5
:10115000FFF736FB044600BF306880013FF551AF12
:10116000FFF72EFB001B02284FF00300F4D9DEE648
:1011700042F6D540C0F6000040F2D91101F0ACFCB7
:10118000E06A02380E28B5D2BCE70000411E0020FC
:10119000B0EB116F1CBF012070474EF21002CEF26F
:1011A000000251604EF62351CEF20001F0230B7085
:1011B0000721906011607047F0B581B00746006864
:1011C0000022C4F2010290420D4607D042F69A4036
:1011D000C0F6000040F2E67101F07EFC286840F4A1
:1011E0000060B0F5006F27D1686840F48060B0F50A
:1011F000806F2FD1A8684FEA3020042837D2E868E2
:10120000B0F5807F3FD2286940F48050B0F5805F10
:1012100047D1686940F40050B0F5005F4FD1E869EC
:1012200040F48040B0F5804F57D197F83C0001283A
:101230005FD1022001B0F0BD42F69A40C0F6000036
:1012400040F2E77101F048FC686840F48060B0F556
:10125000806FCFD042F69A40C0F600004FF4FD6197
:1012600001F03AFCA8684FEA30200428C7D342F6C0
:101270009A40C0F6000040F2E97101F02DFCE868E8
:10128000B0F5807FBFD342F69A40C0F6000040F22E
:10129000EA7101F021FC286940F48050B0F5805FCC
:1012A000B7D042F69A40C0F6000040F2EB7101F070
:1012B00013FC686940F40050B0F5005FAFD042F60F
:1012C0009A40C0F6000040F2EC7101F005FCE869BC
:1012D00040F48040B0F5804FA7D042F69A40C0F667
:1012E000000040F2ED7101F0F7FB97F83C00012897
:1012F0009FD095E85F0023F47C5322F470521A4388
:1013000021F4F041114320F4E040084324F4C041AB
:1013100008433043E96920F480403A680843506448
:10132000002087F83C0001B0F0BD0000B0B50446D5
:10133000006840F2FF72C4F2000290420D4611DDD7
:1013400040F60001C4F2000188421CD040F6004182
:10135000C4F20001884216D00021C4F20101884283
:1013600011D008E0B0F1804F0DD040F20041C4F23E
:101370000001884207D042F69A40C0F6000040F2D1
:10138000A97101F0A9FB28684FEA3010082807D39B
:1013900042F69A40C0F6000040F2AA7101F09CFBB0
:1013A000686840F08000802807D042F69A40C0F676
:1013B000000040F2AB7101F08FFB94F83C00012873
:1013C0004FF0020008BFB0BD84F83D0020684268BD
:1013D00081682B6822F070021A4340F6FF33C4F292
:1013E0000003984242600FDCB0F1804F1DD040F204
:1013F0000042C4F20002904217D040F60002C4F24C
:101400000002904211D015E040F60042C4F2000202
:1014100090420AD044F20002C4F20102904204D089
:101420000022C4F20102904204D16A6821F08001D6
:1014300011438160012084F83D00002084F83C00C5
:10144000B0BD00002DE9F04F81B016460D460C2AC4
:10145000044605D80120B04041F21111084209D1DB
:101460003C2E07D042F66240C0F6000041F28201F5
:1014700001F032FB286840F01000702812D1A868F3
:1014800040F0020002281AD1286940F00400042824
:1014900022D194F83C0001282AD1022001B0BDE8F5
:1014A000F08F00BF42F66240C0F6000041F28301B7
:1014B00001F012FBA86840F002000228E4D042F6D6
:1014C0006240C0F6000041F2840101F005FB28698A
:1014D00040F004000428DCD042F66240C0F6000070
:1014E00041F2850101F0F8FA94F83C000128D4D0CB
:1014F0004FEAB6010120032984F83C0000F236814E
:10150000DFE801F002501A3420684FF6FF71C4F290
:10151000000188425CDC40F2FF71C4F200018842A5
:1015200000F3FA80B0F1804F00F00E8140F20041EC
:10153000C4F2000106E100BF206840F2FF71C4F26E
:101540000001884240F37E8040F60001C4F20001B1
:10155000884200F0898040F60041C4F200018842D0
:1015600000F082800021C4F2010172E0266840F29E
:10157000FF70C4F2000000218642C4F201017BDD4D
:1015800040F60000C4F20000864200F0898040F678
:101590000040C4F20000864200F082808E4200F0DB
:1015A0007F8072E0206840F6FF31C4F2000188427B
:1015B0001EDCB0F1804F35D040F20041C4F2000192
:1015C00088422FD040F60001C4F200011FE000BFA6
:1015D00044F2FF31C4F20101884200F3A9800021E6
:1015E000C4F20101884200F0AF8044F20001A7E09C
:1015F00040F60041C4F20001884213D00021C4F239
:10160000010188420ED044F20001C4F20101884277
:1016100008D042F66240C0F600004FF4855101F058
:101620005BFA2068294601F0EBF8206850F8181F93
:1016300041F400610160016821F480610160296961
:1016400009028FE0B0F1804F0ED040F20041C4F2A9
:101650000001884208D042F66240C0F6000041F224
:10166000B10101F039FA2068294601F025F9206816
:1016700050F81C1F6EE000BFB6F1804F10D040F252
:101680000040C4F2000086420AD042F66240C0F632
:1016900000000E4641F2C20101F01EFA31462668F2
:1016A000D6F82090306A8E4220F4805030627768FD
:1016B000D6F81CA0D5F800B0D5F8088012D168691A
:1016C00040F48071B1F5807F08D042F66240C0F6E8
:1016D000000041F6B43101F0FFF9686927F4804158
:1016E00041EA80172AF4E64141EA0B217760F16173
:1016F00029F40050696840EA08302A693164306290
:10170000206850F81C1F41F400610160016821F459
:1017100080610160110225E040F60001C4F2000181
:10172000884211D040F60041C4F200010AE000BF37
:1017300044F20041C4F20101884205D044F60001A0
:10174000C4F20101884217D1294600F0FFFF20684A
:1017500050F8181F41F008010160016821F00401F0
:10176000016029690268114301600020002184F8AA
:101770003C1001B0BDE8F08F42F66240C0F60000B8
:1017800041F28F0101F0A8F92068DDE7002804BFCD
:1017900001207047B0B5044600684FF6FF71C4F2EF
:1017A000000188420EDC40F2FF71C4F20001884261
:1017B00016DCB0F1804F2BD040F20041C4F20001A2
:1017C00024E000BF44F2FF31C4F20101884213DC7F
:1017D0000021C4F2010188421AD044F2000113E052
:1017E00040F60001C4F20001884211D040F60041E9
:1017F000C4F200010AE000BF44F20041C4F201015A
:10180000884205D044F60001C4F20101884273D138
:10181000A0684FEA301006287CD8012101FA00F0B8
:1018200010F0570F76D02069002818BFB0F5807FE0
:101830003AD12068B0F1804F05D040F60041C4F2A3
:101840000001884250D1E06838B942F66240C0F6E3
:10185000000040F22F5101F03FF9A069251D40F032
:10186000800080282CD194F83D00A8B3022084F891
:101870003D002068294600F073FE012084F84600F0
:1018800084F83E0084F83F0084F8400084F841006A
:1018900084F8420084F8430084F8440084F845004A
:1018A00084F83D000020B0BDB0F5007FC1D042F605
:1018B0006240C0F6000040F22E5101F00DF9B8E789
:1018C00042F66240C0F600004FF4A66101F004F950
:1018D00094F83D000028C9D1002084F83C0020463F
:1018E00000F022F8C2E700BFE0684FF6FF71013850
:1018F0008842AAD2B1E700BF42F66240C0F60000BB
:1019000040F22C5101F0E8F8A0684FEA30100628A8
:101910007FF683AF42F66240C0F6000040F22D51E0
:1019200001F0DAF87FE7000000680021C4F201014D
:10193000884218BF704781B00020009043F64400F1
:10194000C4F20200016841F001010160006800F08A
:1019500001000090009801B07047000070B5044687
:10196000006840F2FF72C4F2000244259042C4F2C3
:10197000010511DD40F60002C4F20002904214D0CD
:1019800040F60042C4F2000290420ED00022C4F29F
:101990000102904209D027E0B0F1804F05D040F21B
:1019A0000042C4F2000290421ED14FEAB102042A62
:1019B00023D371B9401B44F2BC3244F2BC73821A87
:1019C000C01AB2FA82F2B0FA80F05209400910430C
:1019D0001CD142F66240C0F600000E4640F2B35100
:1019E00001F07AF8314608E06FF004021142E0D1CC
:1019F00043F6BC722A449042DBD139B104290FD09E
:101A0000082914BF412040200BE000BF94F83E009D
:101A100001281CBF012070BD022084F83E0011E0A7
:101A20003F20205C01281CBF012070BD0220082936
:101A300006D0042914BF84F8410084F83F0001E077
:101A400084F840002068012200F00AFE2068A5F119
:101A50004401884216D040F6FF31C4F200018842AA
:101A60001ADCB0F1804F28D040F20041C4F20001EE
:101A7000884222D040F60001C4F2000188421CD006
:101A800020E000BF296841F40041296040F6FF31A1
:101A9000C4F200018842E4DD40F60041C4F20001D6
:101AA00088420AD044F20001C4F20101884204D005
:101AB0000021C4F20101884204D1816801F00701CC
:101AC000062903D0016841F001010160002070BDCA
:101AD000002804BF0120704710B5044680692168C2
:101AE00010B344F20042C4F20002914214D041F219
:101AF0000002C4F2010291420ED041F20042C4F24F
:101B00000102914208D042F68150C0F6000040F236
:101B1000731100F0E1FFA0694FEA302004281DD3C3
:101B20004FF4BA7114E000BF44F20040C4F2000068
:101B3000814213D041F20000C4F2010081420DD075
:101B400041F20040C4F20100814207D04FF4BC7161
:101B500042F68150C0F6000000F0BEFFA06840F4DD
:101B60008050B0F5805F29D1E06940F40040B0F5C5
:101B7000004F31D194F84100D0B3242084F84100C3
:101B80002068C16821F40051C160204600F0F2FED7
:101B90002068016921F490410161416921F02A0125
:101BA0004161C16841F40051C1600020202160649E
:101BB00084F8411084F84210606310BD42F68150F1
:101BC000C0F600004FF4BD7100F086FFE06940F4FC
:101BD0000040B0F5004FCDD042F68150C0F6000075
:101BE00040F27B1100F078FF94F841000028C4D146
:101BF000002084F84000204600F002F8BDE7000015
:101C000080B586B044F200410068C4F200010022B1
:101C100088420592CDE903220292019202D006B0D9
:101C200080BD00BF43F630000092C4F20200036999
:101C300043F400330361036903F400330093009B12
:101C40000092036843F001030360006800F00100A4
:101C5000009000980C2001900220CDE9020207209C
:101C6000059001F5DE3001A90492FEF7FDFB06B0F8
:101C700080BD000090F84230202B07D100294FF0A2
:101C8000010318BF002A05D11846704702231846E1
:101C9000704700BF00230363816222218285C285D1
:101CA000436480F842100169006819B1C16841F4C9
:101CB0008071C160416941F001014161C16841F039
:101CC0002001C160184670472DE9F04381B00446F9
:101CD00090F84100202809D100294FF0010018BFD9
:101CE000002A07D101B0BDE8F08300BF022001B097
:101CF000BDE8F0830020606421201D460E4684F874
:101D000041001746FEF75CFDA784E784A168814681
:101D1000B1F5805F02D1206900285DD037460020F0
:101D2000E28C2168002A5DD06A1C24D0002D4AD0A4
:101D3000804600BF0868000608D4FEF741FDA0EB0E
:101D40000900A8427AD82168C868F3E717B117F8E4
:101D5000010B04E038F8020B00276FF35F204860A6
:101D6000E08C0138E084E08C0028E3D13AE000BF49
:101D70000A68120609D40A68120606D40A6812060E
:101D80005CBF0A685FEA0262F2D51FB117F8012B47
:101D900005E000BF30F8022B00276FF35F224A6096
:101DA000E28C013AE284E28C002AE4D11AE000BF1E
:101DB00030F8022B00276FF35F224A60E28C013A71
:101DC000E284E28C72B10A68120635D5002FEFD09A
:101DD00017F8012BF1E700BF00273046E28C21689D
:101DE000002AA1D1086840061ED42DB3681C14D166
:101DF000086840062AD40868400627D408684006C8
:101E000024D4086840064FF00000F1D50DE000BF73
:101E10002068C1680068400618D4FEF7D1FCA0EB2A
:101E20000900A842F4D909E00020202184F84110DB
:101E300001B0BDE8F08300BFFEF7C2FC0320202103
:101E400084F8411001B0BDE8F08300BF00202021DC
:101E500084F8411001B0BDE8F0830000FEE7000007
:101E6000F0B587B0002643F630000696CDE904664B
:101E7000CDE902660196C4F202000168002441F037
:101E8000040101600168C4F2020401F0040101913F
:101E9000019901960168002241F08001016001680A
:101EA000202701F08001019101990196016841F01C
:101EB00001010160016801F00101019101990196A0
:101EC000016841F0020101600068202100F0020079
:101ED000019001982046FEF753FC4FF40050029009
:101EE0004FF4041002ADCDE9030604F50060294665
:101EF000FEF7BAFA0120CDE90306204629460297EB
:101F00000596FEF7B1FA07B0F0BD000070B598B0C5
:101F1000002540F2CC00C4F201050021C2F200000D
:101F2000472240F2E73380261191CDE90F11CDE928
:101F30000D11CDE90B11CDE90911CDE90711CDE95D
:101F40000511CDE90311CDE90111C0E90052C0E945
:101F50000213C0E904118661FFF718FC002818BFBE
:101F6000FEF77EFA40F2CC00C2F2000010A9FFF7A3
:101F7000DDF9002818BFFEF773FA602009900020F1
:101F8000CDE90A00CDE90C00CDE90E0040F2CC000D
:101F9000C2F2000009A90022FFF754FA002818BF76
:101FA000FEF75EFA40F2CC00C2F2000009A904225A
:101FB000FFF748FA002818BFFEF752FA40F2CC04A7
:101FC0004FF40050C2F200040026069001A92046FA
:101FD0000596CDE90366CDE901660896FFF7ECF8B2
:101FE000002818BFFEF73CFA20681796A842CDE9F2
:101FF00015661496139601D018B070BD002043F6F4
:1020000030011290C4F202010A6842F001020A6033
:10201000096801F00101129112994FF44071139176
:102020000221CDE9141016900120179005F580309B
:1020300013A9FEF719FA18B070BD000080B540F280
:10204000141044F20041C2F20000C4F20001002367
:102050004FF00C0C4FF4E13280E80E00C0E903337E
:10206000C0E905C3C361FFF733FD002808BF80BD89
:10207000BDE88040FEF7F4B9FEE700002DE9F0412D
:102080000C460229054622D8E000C0B24FF4807108
:1020900040F20048AF7A21FA00F24FF48031C4F2E6
:1020A000020821FA00F64FF48061D2B24046002FB8
:1020B00008BF4FF48071FEF763FB4FF40061F2B28A
:1020C0004046002F08BF4FF40071FEF759FB6C72B9
:1020D000BDE8F08110B5D0E900231468D4F82CC015
:1020E00063B1082B06D0042B14BF4FF0400E4FF005
:1020F000380E05E04FF03C0E02E000BF4FF0340E0A
:102100001FFA8CF340F202124B43C0F20112A3FB00
:10211000022344F80E30017210BD0000FEE70000FB
:10212000704700002DE9F04385B040F27008C2F21C
:10213000000898F800100929C0F0C48098F81C2005
:10214000AA2A40F0BF804144C97E552940F0BA8098
:1021500098F81E10022940F0B58098F8203098F8C1
:102160001D1098F81FC01A1D160607D0FB2B02F091
:10217000030E05D90026002417E000BF002627E043
:10218000D2B202F0FC090024002600BF08EB0405CF
:102190006F7FA87FEA7F7E4095F8205070405040C6
:1021A0000434A14585EA0006F0D1BEF1000F0FD03E
:1021B00008EB0402507FBEF1010F86EA000607D04B
:1021C000907FBEF1020F86EA00061CBFD07F46401A
:1021D00003EB080090F82100864273D1BCF11F0F79
:1021E00016DCBCF1010F2DD0BCF1100F22D1032B56
:1021F00068D198F8213098F8222098F82350002BC5
:102200003ED0012B5ED10C4608F110063BE000BF2A
:10221000BCF1200F22D0BCF1300F0BD108F1210707
:1022200002203022CDE9007300F062F805B0BDE86D
:10223000F08300BF0220FF22FF2305B0BDE8F0437A
:1022400000F008B9022B3DD198F8213098F82220EF
:10225000012B3BD0B3BB08F1040039E0B8F80C0007
:10226000B8F81820ADF80C00AA20ADF80E208DF8B3
:102270001000052703AE0220202205231EE000BF28
:102280000C4608F1040630461146FFF723FF681E8E
:10229000B0FA80F0022D18BF450930462946FFF7F5
:1022A000EDFE30890327ADF8110001208DF81300F1
:1022B0000DF111060220214610220323CDE900670B
:1022C00000F016F805B0BDE8F08300BF08F110007B
:1022D0000C461146FFF7FEFE022021460122012393
:1022E00005B0BDE8F04300F0B5B80000704700004D
:1022F0002DE9F04788B0DDF844E08C46AA218DF83E
:1023000000106946BEF1000F8DF801008DF802C083
:102310008DF803208DF804300ED0DDF840C0BEF1FA
:10232000040F0EF003090BD205230024B9F1000FAE
:10233000984628D13FE000BF4FF0050804223EE058
:102340000EF0FC00C0F100080CF1010A05236FF04B
:10235000030500BF0AEB0506F078B479B688DFB252
:1023600051FA83F20435C855A2F80160D81C08EB75
:1023700005020433C0B204320C54EBD12C1DB9F168
:10238000000F984617D01CF8045003F10108DEB284
:10239000B9F1010F8D550ED0644466789D1C5FFA2B
:1023A00088F0B9F1020FA8460E5404D0A27803F1C8
:1023B0000308EBB2CA540EF10402130634D0D5B2AE
:1023C000042D02F0030C05D200250022BCF1000F01
:1023D00018D12AE005F0FC02554200226FF00304F8
:1023E0000E197379B079F7795A400434367A50402F
:1023F0002A197840043286EA0002F1D1251DBCF189
:10240000000F12D04C1C605DBCF1010F82EA00028B
:102410000BD025446878BCF1020F82EA00021CBF91
:10242000A878424001E000BF002208F101005FFAF5
:1024300088F3CA54C0B2552308F102020B5440F28B
:102440001410D2B2C2F200006423FFF73DFC08B0C2
:10245000BDE8F08780B588B08DF801004840504055
:10246000584080F001008DF8060055204FF0AA0C6E
:102470008DF8070040F214108DF800C08DF802109E
:102480008DF803204FF0010C8DF80530C2F20000EA
:102490006946082264238DF804C0FFF715FC08B0D4
:1024A00080BD0000FEF792B970B592B006AC204630
:1024B0003021FDF76DFF002543F640000595CDE97D
:1024C0000355CDE901550095C4F2020001680226CA
:1024D00041F080510160006800F080500090009849
:1024E00047F200000095C4F20000016866F38F31E6
:1024F0000160006800F440400090009801200990BD
:1025000010200A900E904FF4A8700F9004201090A5
:102510000720119020460696CDE90C65FEF790FB4A
:1025200010B172B6FEE700BF0F20CDE901064FF4EF
:102530008050CDE9040501A802210395FEF70CFAAD
:1025400010B172B6FEE700BF12B070BD4EF68850F3
:10255000CEF20000016841F4700101607047000094
:1025600010B540F2FF7E0368C4F2000E40F2000C8A
:102570007045C4F2010C1DDD40F60002C4F20002F9
:10258000904220D060451ED040F60042C4F20002C6
:10259000904218D04FF6FF72C4F2000290421CDC49
:1025A000704525DCB0F1804F3AD040F20042C4F2D1
:1025B000000233E0B0F1804F05D040F20042C4F297
:1025C00000029042E6D14A6823F0700313434FF6AD
:1025D000FF72C4F200029042E2DD44F2FF32C4F224
:1025E0000102904210DC60451AD044F2000213E070
:1025F00040F60002C4F20002904211D040F60042C0
:10260000C4F200020AE000BF44F60002C4F2010274
:10261000904205D044F20042C4F20102904203D13C
:10262000CA6823F44073134323F080024B69D1F846
:1026300000E08C681A4360450260C462C0F828E07C
:1026400002D10969CCF83010012141610169C90743
:1026500008BF10BD016921F00101016110BD00003A
:1026600070B54FF6FF73C4F2000398420EDC40F2DF
:10267000FF73C4F20003984216DCB0F1804F2BD0F8
:1026800040F20043C4F2000324E000BF44F2FF33F1
:10269000C4F20103984213DC0023C4F20103984200
:1026A0001AD044F2000313E040F60003C4F2000322
:1026B000984211D040F60043C4F200030AE000BF84
:1026C00044F20043C4F20103984205D044F60003EB
:1026D000C4F20103984209D10C2918D801238B4078
:1026E00041F21116334223D111E000BF42F662439A
:1026F000C0F60003044618460D4641F69F511646A3
:1027000000F0EAF92946324620460C29E6D93C2950
:102710000ED042F66243C0F60003044618460D464A
:102720004FF4ED51164600F0D7F9294632462046BF
:1027300001F01F010123066A8B4026EA03030362AE
:10274000036A02FA01F11943016270BD2DE9F047F5
:102750000446006A226A0D4622F00101216200212E
:10276000C4F201016668D4F818808C42A968D5F8D3
:10277000009020F0020041EA000736D1E86840F0FE
:102780000801082908D042F66240C0F6000041F670
:10279000D02100F0A1F9E868A96927F00C0A41F4FA
:1027A0000071B1F5007F20F0040707D042F66240C7
:1027B000C0F6000041F6DD2100F08EF9686947EAB5
:1027C0000A0740F48071B1F5807F08D042F662407C
:1027D000C0F6000041F6DE2100F07EF9686926F4BB
:1027E0004071AA69084340EA020628F0730040EAF3
:1027F00009006660A061686860632762BDE8F087D1
:102800002DE9F0470446006A226A0D4622F01001C5
:1028100021620021C4F201016668D4F818908C424C
:10282000A968D5F8008020F0200040EA011738D1CF
:10283000E86840F00801082908D042F66240C0F676
:10284000000041F61C3100F047F9E868A9696FF013
:10285000400241F4007127F0C00AB1F5007F02EA9E
:10286000001707D042F66240C0F6000041F6293159
:1028700000F032F9686947EA0A0740F48071B1F55F
:10288000807F08D042F66240C0F6000041F62A314F
:1028900000F022F96869A96926F44062084342EA17
:1028A000800629F4E64040EA08206660A061686876
:1028B000A0632762BDE8F0872DE9F0470446006A6F
:1028C000226A0D4622F4807121620021C4F20101C6
:1028D0006668D4F81C908C42A968D5F8008020F472
:1028E000007040EA012739D1E86840F00801082962
:1028F00008D042F66240C0F6000041F6673100F0B1
:10290000EBF8E868A969000240F2FF4241F4007167
:1029100027F4406AB1F5007F20EA020707D042F6AB
:102920006240C0F6000041F6743100F0D5F86869E5
:1029300047EA0A0740F48071B1F5807F08D042F67B
:102940006240C0F6000041F6753100F0C5F86869D4
:10295000A96926F44052084342EA001629F07300A0
:1029600040EA08006660E0616868E0632762BDE8ED
:10297000F0870000B0B50446406843F2A171C0F290
:10298000A001884207D342F68150C0F6000040F60D
:10299000756100F0A1F8E06840F40050B0F5005F08
:1029A00007D042F68150C0F6000040F6766100F094
:1029B00093F82069002818BFB0F5806F32D16069A4
:1029C00018B14FF6F371084007D042F68150C0F6B7
:1029D000000040F6786100F07FF8206804F10803F9
:1029E0000ECB0569194325F440552A4302616269FB
:1029F000E3691143C268194349F20C639A431143D6
:102A0000C1604169A26921F4407141F20043114360
:102A100040F48062C4F201039A4241610ED1FEF794
:102A2000C3F80DE0B0F5C06FC9D042F68150C0F6D2
:102A3000000040F6776100F04FF8C0E7FEF7A0F81D
:102A4000E1694FF69C7563681922C0F6FF75B1F510
:102A5000004FA0FB02011FD15A00DB0FFDF720FC45
:102A600048F21F51C5F2EB11A0FB01235A0905F1F1
:102A7000805302FB0300322303EBC000A0FB0101E3
:102A80004FF4F87000EA111000EB0210C1F342118C
:102A9000084421688860B0BD9A009B0FFDF700FCD8
:102AA00048F21F51C5F2EB11A0FB01235A0902FBAA
:102AB0000500322303EB0010A0FB0101F02000EA27
:102AC000511000EB0210C1F34311084421688860E3
:102AD000B0BD0000FEE700007047000088B040F283
:102AE0000044C4F20204FDF77FFEFFF7DDFCFFF7B0
:102AF000B7F9FFF7A3FAFFF709FA40F2700540F2C1
:102B0000CC07C2F20005C2F20007002620464FF4AF
:102B100080710022C5E90176C5F80B60FDF730FE33
:102B200020464FF400710022FDF72AFED5E901018D
:102B30006E730068C26A49B1082905D0042914BF20
:102B40004021382103E000BF3C2100E03421465001
:102B50000420C5E904700120A87620464FF4806166
:102B600000222E732E83FDF70BFE20464FF40061EA
:102B70000022FDF705FED5E904016E760068C26A01
:102B800041B1082904D0042914BF4021382102E0B2
:102B90003C2100E0342140F2CC040026C2F20004C3
:102BA0004650204600212E76FEF7D8FE204604210E
:102BB000FEF7D4FE40F21418C2F20008A91C4046E9
:102BC0000122FFF757F812480DF1040E009010A0F3
:102BD000071D8ECFD0E9054CC0698EE88E000790A6
:102BE000694640461E226423CDE9054CFFF76CF888
:102BF000687858B1012000BF00284FF00000FBD0DA
:102C00006E70FFF78FFA68782E70F5E7FEE700BF69
:102C100053544D3332204D6F746F7220436F6E7476
:102C2000726F6C6C65722052656164790D0A0000E8
:102C3000F1EE100A4FF6FF71C0F2C03120EA010038
:102C400040F04070E1EE100A704700000000000004
:102C50000000010203040607080900000000010249
:102C600003042E2E2F447269766572732F53544DD0
:102C70003332463478785F48414C5F4472697665F8
:102C8000722F5372632F73746D3332663478785FAA
:102C900068616C5F74696D2E63002E2E2F4472691B
:102CA000766572732F53544D3332463478785F48CB
:102CB000414C5F4472697665722F5372632F73744F
:102CC0006D3332663478785F68616C5F74696D5F0C
:102CD00065782E63002E2E2F447269766572732FED
:102CE00053544D3332463478785F48414C5F4472D8
:102CF000697665722F5372632F73746D3332663445
:102D000078785F68616C5F7263632E63002E2E2F8C
:102D1000447269766572732F53544D33324634785A
:102D2000785F48414C5F4472697665722F537263D5
:102D30002F73746D3332663478785F68616C5F67C7
:102D400070696F2E63002E2E2F4472697665727340
:102D50002F53544D3332463478785F48414C5F44AA
:102D600072697665722F5372632F73746D33326696
:102D70003478785F68616C5F636F727465782E6316
:102D8000002E2E2F447269766572732F53544D3383
:102D900032463478785F48414C5F44726976657298
:102DA0002F5372632F73746D3332663478785F6893
:102DB000616C5F756172742E63000000E02D000885
:102DC0000000002010000000F8010008F02D0008AD
:102DD000100000205007000018020008000000004A
:102DE00001000000100000000024F40000000000BA
:040000050800019559
:00000001FF
