:020000040800F2
:10000000C006002061020008690200086B020008B7
:100010006D0200086F020008710200080000000075
:100020000000000000000000000000007302000853
:10003000750200080000000077020008790200083D
:100040007B0200087B0200087B0200087B0200089C
:100050007B0200087B0200087B0200087B0200088C
:100060007B0200087B0200087B0200087B0200087C
:100070007B0200087B0200087B0200087B0200086C
:100080007B0200087B0200087B02000800000000E1
:100090000000000000000000000000007B020008DB
:1000A0007B0200087B0200087B0200087B0200083C
:1000B000950300087B0200087B0200087B02000811
:1000C0007B0200087B0200087B0200087B0200081C
:1000D0007B0200087B020008C50300080000000046
:1000E0001D0300087B0200087B02000800000000DE
:1000F0000000000000000000000000007B0200087B
:10010000000000007B0200087B0200087B02000860
:1001100000000000000000000000000000000000DF
:100120007B0200087B0200087B0200087B020008BB
:100130007B0200080000000000000000000000003A
:100140000000000000000000000000007B0200082A
:100150007B0200087B0200087B0200087B0200088B
:100160007B0200087B020008000000000000000085
:10017000000000000000000000000000000000007F
:10018000000000007B0200080000000000000000EA
:100190007B02000800F002F800F052F814A696E87E
:1001A000000CB244B344DA4501D100F049F8BAE892
:1001B0000F000FA696E83000A5EB040504EB060738
:1001C000AAEB0704A7F101074FEA15154FEA34140B
:1001D000A4F10104AC4201D300F032F813F0010F96
:1001E00018BFFB1A43F0010300F001F8DBE71847E2
:1001F0007814000098140000103A24BF78C878C121
:10020000FAD8520724BF30C830C144BF04680C601C
:1002100070470000704700000023002400250026DE
:10022000103A28BF78C1FBD8520728BF30C148BF59
:100230000B6070471FB501F0F9F91FBD10B510BD77
:1002400000F031F81146FFF7F5FF00F047FD00F030
:100250004FF803B4FFF7F2FF03BC00F057F80000BB
:100260000948804709480047FEE7FEE7FEE7FEE74A
:10027000FEE7FEE7FEE7FEE7FEE7FEE70448054986
:10028000054A064B704700008103000895010008ED
:10029000C0000020C0060020C0020020C0020020D4
:1002A000704770477047754600F02CF8AE46050061
:1002B0006946534620F00700854618B020B5FFF781
:1002C000DDFFBDE820404FF000064FF000074FF083
:1002D00000084FF0000BAC46ACE8C009ACE8C00920
:1002E000ACE8C009ACE8C00921F007018D467047B1
:1002F00010B50446AFF300802046BDE81040FFF77C
:10030000A8BF0000004870470800002001491820DD
:10031000ABBEFEE7260002007047000081B043F646
:100320001440C4F2010000688004002825D5FFE7CE
:1003300043F61441C4F201014FF40050086040F24A
:100340007000C2F2000000680090009840F20401C2
:10035000C2F200010968401A32280DD3FFE7009865
:1003600040F20401C2F20001086040F26C01C2F2E6
:10037000000101200870FFE7FFE701B070470000AF
:100380004EF68851CEF20001086840F47000086013
:10039000704700001020C4F200000068C00778B168
:1003A000FFE71021C4F20001086820F00100086096
:1003B00040F27001C2F20001086801300860FFE7F6
:1003C0007047000081B044F20040C4F200000068B1
:1003D0000006002837D5FFE744F20C40C4F20000C5
:1003E0000068000600282ED5FFE740F28400C2F224
:1003F0000000006840F28801C2F200010988405CF8
:100400008DF803009DF8030078B1FFE79DF8030025
:1004100044F20441C4F20001086040F28801C2F2D3
:1004200000010888013008800CE044F20C41C4F25D
:100430000001086820F080000860086840F0400073
:100440000860FFE7FFE744F20040C4F200000068E4
:100450004006002818D5FFE744F20C40C4F2000023
:100460000068400600280FD5FFE744F20C41C4F2B3
:100470000001086820F04000086040F28001C2F2EC
:10048000000100200870FFE701B0704781B08DF8CF
:1004900003009DF9030000280ED4FFE79DF9031027
:1004A00001F01F02012090404A094EF20011CEF2E5
:1004B000000141F82200FFE701B0704782B08DF8DB
:1004C000070000919DF9070000280AD4FFE7009873
:1004D00000019DF907104EF20042CEF2000288544E
:1004E0000BE0009800019DF8071001F00F014EF697
:1004F0001452CEF200028854FFE702B070470000A9
:1005000043F63001C4F20201086840F001000860BF
:1005100043F64401C4F20201086840F480700860A8
:100520000021C4F20201086820F00C00086008688D
:1005300040F00C0008600C21C4F20201086820F0B1
:100540000C00086042F20431C4F20101086820F492
:1005500040300860086840F48030086042F20401CE
:10056000C4F201010020086042F20801C4F2010156
:10057000086042F22C02C4F20102106042F2300222
:10058000C4F20102106042F2340CC4F2010CCCF847
:10059000000042F21003C4F2010318600A6842F43A
:1005A00080620A600122CCF800201A6842F018022A
:1005B0001A6042F20002C4F201021060086840F0C2
:1005C000010008607047000080B542F20000C4F2EC
:1005D000010000688007002814D5FFE742F24C00B4
:1005E000C4F20100016840F26A00C2F2000001801A
:1005F00040F26802C2F2000200211170008800F08F
:100600000DFEFFE742F20000C4F201000068800620
:1006100000280FD5FFE742F20001C4F2010108688B
:1006200020F02000086040F26801C2F200010020C2
:100630000870FFE780BD000040F26800C2F20000D1
:10064000007808B1FFE714E040F26801C2F200014F
:100650000120087042F20001C4F20101002008608C
:1006600042F20801C4F20101086840F080400860CD
:10067000FFE7704743F60001C4F20201086840F04A
:1006800001000860FFE743F60000C4F202000068C2
:100690008007002801D4FFE7F5E743F64001C4F2E4
:1006A0000201086840F08050086047F20001C4F27F
:1006B0000001086840F44040086043F60041C4F27D
:1006C000020140F20270086043F60801C4F2020120
:1006D00008684FF6F34290430860086840F4805081
:1006E000086043F60000C4F202000068C001002860
:1006F00014D5FFE743F60001C4F20201086820F0B8
:1007000080700860FFE743F60000C4F20200006852
:100710008001002801D5FFE7F5E7FFE743F6040174
:10072000C4F2020145F21040C0F20170086043F6C5
:100730000001C4F20201086840F080700860FFE721
:1007400043F60000C4F2020000688001002801D4D2
:10075000FFE7F5E743F60801C4F20201086820F05C
:1007600003000860086840F002000860FFE743F6F5
:100770000800C4F20200006800F00C00082801D054
:10078000FFE7F4E740F20001C2F200014BF600502F
:10079000C0F201500860704780B582B043F6440152
:1007A000C4F20201086840F48040086043F6140176
:1007B000C4F20101086820F0F0000860086840F009
:1007C0002000086043F60041C4F20101086840F4CB
:1007D0000050086043F60841C4F20101086820F4A3
:1007E0000050086043F60C41C4F20101086840F46F
:1007F0000050086043F61441C4F201014FF4005068
:100800000860282001900221FFF758FE0198FFF7A9
:100810003DFE02B080BD000081B040F28A00C2F20D
:100820000000007820B9FFE719208DF803000FE0E1
:1008300040F28A00C2F200000078012804D1FFE7EC
:1008400032208DF8030003E04B208DF80300FFE712
:100850009DF8030001B0704782B0019000910099AB
:10086000012088400199886102B0704780B582B04C
:100870008DF8070040F20040C4F202000421FFF7A7
:10088000EBFF9DF80700000900F008F99DF807004C
:1008900000F00F0000F002F900F02CF902B080BD6A
:1008A00080B582B000208DF80700FFE79DF80700B3
:1008B0000F280AD8FFE72020FFF7D8FFFFE79DF8B1
:1008C000070001308DF80700F0E702B080BD00009E
:1008D00080B582B08DF8070040F20040C4F20200FB
:1008E000042100F0EFF99DF80700000900F0D6F8A8
:1008F0009DF8070000F00F0000F0D0F89DF8070009
:10090000012805D0FFE79DF80700022804D1FFE782
:10091000022000F061FE02E000F0ECF8FFE702B018
:1009200080BD000080B582B08DF807008DF80610FC
:100930009DF8070030B9FFE79DF8060080308DF87C
:10094000050005E09DF80600C0308DF80500FFE7C2
:100950009DF80500FFF7BCFF02B080BD80B582B0F6
:10096000002101910846FFF7DDFFFFF799FF01998C
:100970000846FFF7D7FF41F24A60C0F6000000F0DA
:10098000CBF840F28A00C2F2000000783030C0B2EA
:10099000FFF76CFF41F24660C0F6000000F0BCF8C3
:1009A000FFF73AFF00F01AF9019901200090FFF7D4
:1009B000B9FFFFF775FF00980199FFF7B3FF41F208
:1009C0004E60C0F6000000F0A7F800F057F9432091
:1009D000FFF74CFF41F25160C0F6000000F09CF8B8
:1009E00040F26A00C2F20000008800F0A7F802B0EE
:1009F00080BD000080B582B040F20040C4F2020029
:100A0000009005210191FFF727FF00F073F800988F
:100A1000019900F057F900F06DF802B080BD0000B8
:100A200080B584B0322000F0D7FD40F20040C4F21F
:100A300002000090042100F045F900980521019181
:100A400000F040F90320029000F028F8019800F02F
:100A5000C3FD029800F022F8019800F0BDFD029855
:100A600000F01CF80120039000F0B6FD022000F019
:100A700015F8039800F0B0FD2820FFF729FF0820A3
:100A8000FFF726FF0398FFF723FF0620FFF720FF5D
:100A90000C20FFF71DFF04B080BD000080B582B0C0
:100AA0008DF807009DF8070000F0010240F20040B9
:100AB000C4F202000090062100F0A2FD00989DF80B
:100AC0000710C1F34002072100F09AFD00989DF83D
:100AD0000710C1F38002082100F092FD00989DF8F4
:100AE0000710C1F3C002092100F08AFDFFF782FF61
:100AF00002B080BD81B000200090FFE70098800820
:100B00007C2806D8FFE700BFFFE70098013000907F
:100B1000F4E701B07047000080B582B00190FFE7B4
:100B20000198007840B1FFE701980078FFF79EFE3A
:100B3000019801300190F3E702B080BD80B584B028
:100B40000390039844F6D351C1F26201A0FB011057
:100B5000800949F69A11C1F699110191A0FB012172
:100B600001EB8101A0EB410040F03000FFF77EFE79
:100B70000199039848F21F52C5F2EB12A0FB022024
:100B80004009A0FB012101EB8101A0EB410040F0F5
:100B90003000FFF76BFE019903984CF6CD42CCF67E
:100BA000CC420292A0FB0220C008A0FB012101EB75
:100BB0008101A0EB410040F03000FFF757FE0299A1
:100BC0000398A0FB0121C90801EB8101A0EB4100C2
:100BD00040F03000FFF74AFE04B080BD80B586B01B
:100BE000059000208DF80900059820B9FFE7302016
:100BF000FFF73CFE3FE0FFE705990020019041B17F
:100C0000FFE79DF8091000200A2938BF0120019054
:100C1000FFE70198C007E0B1FFE705984CF6CD412A
:100C2000CCF6CC41A0FB0132D20802EB8202A0EB51
:100C3000420040F030009DF809305A1C8DF8092020
:100C40000DF10A02D0540598A0FB0110C0080590D0
:100C5000D2E7FFE79DF8090001280CDBFFE79DF8CC
:100C6000090001388DF80900C1B20DF10A00405C9D
:100C7000FFF7FCFDEEE706B080BD000080B582B056
:100C800040F27800C2F20000009000684CF6CD41BE
:100C9000CCF6CC410191A0FB0110C008FFF79EFFEC
:100CA0002E20FFF7E3FD009801990068A0FB0121C9
:100CB000C90801EB8101A0EB4100FFF78FFF02B0F3
:100CC00080BD000082B001900091009800F11001F9
:100CD000012088400199886102B0704780B58EB0CC
:100CE000002003900D90FFF7C5FC039943F63002F6
:100CF000C4F20202106840F00700106040F20040A9
:100D0000C4F20200049000F0F1F904980121059169
:100D100000F0ECF90498042100F0E8F904980521AA
:100D200000F0E4F90498062100F0E0F904980721A6
:100D300000F0DCF90498082100F0D8F904980921A2
:100D400000F0D4F940F60000C4F2020001900D2139
:100D5000029100F0BDF90198029900F073FB03992C
:100D60000498FFF7AFFF04980599FFF7ABFF00F079
:100D70007DFA00F0D3F9FFF70FFDFFF7C1FB00F09C
:100D8000A1FBFFF74DFEFFF7E9FD00F0CFF80C9057
:100D900000F0CCF80B9000F0C9F80A9000F0C6F80B
:100DA000C838099000F0C2F8089000F063FBFFE734
:100DB00000F0BCF80790FFF707FC07980999401A64
:100DC000C82805D3FFE707980990FFF735FCFFE730
:100DD00007980899401AB0F5FA7F05D3FFE70798FE
:100DE000089000F07BFAFFE772B640F26C01C2F2A5
:100DF000000108788DF81B000020087062B69DF88D
:100E00001B0048B3FFE740F28A00C2F200000178FD
:100E1000013101700078032807D3FFE740F28A010F
:100E2000C2F2000100200870FFE740F20040C4F267
:100E3000020000900021FFF745FF00980121FFF715
:100E400041FF07980C9007980B9007980A9000F0C4
:100E500011FBFFF783FDFFE740F28A00C2F20000BA
:100E60000078D0B9FFE740F20040C4F2020001214F
:100E7000FFF728FF07980C99401AB0F5FA7F0BD3BB
:100E8000FFE707980C9040F21441C4F20201086891
:100E900080F001000860FFE73AE040F28A00C2F209
:100EA00000000078012819D1FFE740F20040C4F2A9
:100EB00002000121FFF7D0FC07980C99401A642822
:100EC0000BD3FFE707980C9040F21441C4F20201E3
:100ED000086880F001000860FFE718E040F2004079
:100EE000C4F202000021FFF7B7FC07980B99401AE3
:100EF000FA280BD3FFE707980B9040F21441C4F295
:100F00000201086880F002000860FFE7FFE7FFE7E2
:100F100007980A99401AFA2805D3FFE707980A901C
:100F2000FFF71CFDFFE730BF42E7000040F2700012
:100F3000C2F200000068704783B00290ADF806105E
:100F40000092009844F6D351C1F26201A0FB011057
:100F5000800949F69A12C1F69912A0FB023101EB01
:100F60008101A0EB410040F030000299BDF806304D
:100F700003F1010CADF806C0C854009848F21F51A7
:100F8000C5F2EB11A0FB01104009A0FB023101EBFF
:100F90008101A0EB410040F030000299BDF806301D
:100FA00003F1010CADF806C0C85400984CF6CD41D1
:100FB000CCF6CC41A0FB0130C008A0FB023202EB12
:100FC0008202A0EB420040F03000029ABDF80630E9
:100FD00003F1010CADF806C0D0540098A0FB01212C
:100FE000C90801EB8101A0EB410040F030000299FB
:100FF000BDF80620531CADF806308854BDF8060035
:1010000003B0704788B00690ADF816100492002027
:101010008DF80500049868B9FFE70699BDF8162019
:10102000501CADF8160030208854BDF81600ADF8FD
:101030001E0048E0FFE704990020009041B1FFE75F
:101040009DF8051000200A2938BF01200090FFE715
:101050000098C007E0B1FFE704984CF6CD41CCF60C
:10106000CC41A0FB0132D20802EB8202A0EB42008D
:1010700040F030009DF805305A1C8DF805200DF128
:101080000602D0540498A0FB0110C0080490D2E7D7
:10109000FFE79DF8050088B1FFE79DF805000138DE
:1010A0008DF80500C1B20DF10600405C0699BDF84F
:1010B0001620531CADF816308854EAE7BDF8160028
:1010C000ADF81E00FFE7BDF81E0008B07047000035
:1010D00082B00190009100984100032000FA01F2D3
:1010E000019908689043086002B0704782B001908F
:1010F000009100984100032000FA01F2019908686C
:101100009043086000984100012000FA01F2019923
:1011100008681043086002B07047000043F63001D1
:10112000C4F20201086840F00100086043F6400183
:10113000C4F20201086840F0020008600021C4F215
:101140000201086820F440500860086840F400502C
:1011500008602021C4F20201086820F07060086075
:10116000086840F00070086040F20041C4F20001DD
:101170000020086040F22842C4F2000253201060B0
:1011800040F22C42C4F2000240F2E730106040F21C
:101190003442C4F20002FA20106040F21842C4F255
:1011A0000002106820F070001060106840F06000CD
:1011B0001060106840F00800106040F22042C4F255
:1011C0000002106840F001001060086840F08000E4
:1011D000086040F21442C4F2000201201060086866
:1011E00040F001000860704783B00290ADF806102F
:1011F0000092FFE70098007860B1FFE70098411C7B
:10120000009100780299BDF80620531CADF8063015
:101210008854EFE7BDF8060003B0704781B0ADF821
:101220000200BDF8020040F6E44148431121C1F23A
:101230000101A0FB0110010A40F27C00C2F2000093
:101240000160016840F27800C2F2000001600068AD
:101250004CF6CD41CCF6CC41A0FB0110C00840F2C9
:101260007401C2F20001086001B0704780B582B01D
:1012700043F64001C4F20201086840F00100086032
:101280004FF080410191002008602822C4F2000242
:10129000532111602C22C4F2000240F2E7311160A8
:1012A0001422C4F20002012111601022C4F20002D3
:1012B00010600C22C4F20002106840F001001060BF
:1012C0001C200090FFF7FAF80098FFF7DFF801996B
:1012D000086840F00100086002B080BD80B586B0AB
:1012E0000020ADF80E0040F28000C2F2000000784D
:1012F00008B1FFE7A4E072B640F26A00C2F2000053
:101300000088ADF8160040F27800C2F200000068D4
:10131000049062B6BDF80E1040F28B00C2F20000DD
:10132000029041F24E62C0F60002FFF75DFF0146F7
:101330000298ADF80E10BDF80E10049A4CF6CD438D
:10134000CCF6CC430093A2FB0332D208FFF75AFE3F
:10135000009B01460298ADF80E10BDF80E20511CFE
:10136000ADF80E102E218154BDF80E10049AA2FB88
:1013700003C3DB0803EB8303A2EB4302FFF742FE48
:1013800001460298ADF80E10BDF80E1041F25A62F7
:10139000C0F60002FFF728FF01460298ADF80E10D4
:1013A000BDF80E10BDF81620FFF7C6FD01460298E5
:1013B000ADF80E10BDF80E1041F25562C0F60002F5
:1013C000FFF712FF01460298ADF80E10BDF80E109F
:1013D00040F28A02C2F200021278FFF713FE0146C1
:1013E0000298ADF80E10BDF80E1041F26062C0F622
:1013F0000002FFF7F9FEADF80E00BDF80E000190F7
:10140000FFF70AFA019902460298FFF7FBFD014631
:101410000298ADF80E10BDF80E20511CADF80E105C
:101420000D218154BDF80E20511CADF80E100A217B
:101430008154BDF80E200021815400F09BF8FFE795
:1014400006B080BD82B00190009100984100032059
:1014500000FA01F20199C8689043C8600098410001
:10146000012000FA01F20199C8681043C86002B077
:101470007047000040F28A00C2F20000007838B9DC
:10148000FFE740F23441C4F20001FA20086018E09E
:1014900040F28A00C2F200000078012808D1FFE77C
:1014A00040F23441C4F200014FF4FA70086007E0E2
:1014B00040F23441C4F2000140F2EE200860FFE740
:1014C000FFE7704780B582B043F63001C4F20201F5
:1014D000086840F00100086043F64001C4F20201D0
:1014E000086840F4003008600021C4F20201086876
:1014F00020F0F0000860086840F0A000086020219B
:10150000C4F20201086820F47F400860086840F4D3
:10151000EE40086044F20841C4F2000141F21710A5
:10152000086044F20C41C4F20001019100200860FF
:1015300044F21042C4F20002106044F21442C4F2B9
:1015400000021060086840F008000860086840F079
:1015500004000860262000900421FEF7AFFF0098E9
:10156000FEF794FF0199086840F40050086002B04B
:1015700080BD000082B00090009838B1FFE740F2D3
:101580008000C2F20000007820B1FFE700208DF853
:1015900007001CE0009840F28401C2F200010860DC
:1015A00040F28801C2F200010020088040F2800170
:1015B000C2F200010120087044F20C42C4F20002A1
:1015C000116841F0800111608DF80700FFE79DF878
:1015D000070002B07047000080B582B00190FFF7AD
:1015E000A5FC0090FFE7FFF7A1FC0099401A0199C4
:1015F000884202D2FFE700BFF5E702B080BD0000DD
:1016000080B584B0039002918DF807209DF8070003
:1016100028B1FFE703980299FFF71EF904E0039849
:101620000299FFF74FFBFFE704B080BDF1EE100A0F
:101630004FF6FF71C0F2C03120EA010040F0407067
:10164000E1EE100A704720443A0053743A00543DCA
:101650000020723D002073743D00207261773D00D0
:1016600020647574793D0000881600080000002091
:1016700008000000F801000890160008080000208B
:10168000B8060000180200080024F400CEFFFFFF97
:04000005080002618C
:00000001FF
